S016000074726F6E5F6D6970695F746573742E737265631E
S31502000000809402221D850202F582020219850202ED
S315020000101985020219850202198502021985020250
S315020000200000000000000000000000001985020226
S3150200003019850202000000001985020219850202D2
S31502000040C96502025D6702028168020265690202EF
S31502000050A97702029D790202A5570202AD57020252
S31502000060495D0202A15D02023D5E0202955E020246
S30902000070ED5E020235
S31502000074010100000000000050E4020258E40202FA
S3150200008464E4020270E402027CE4020288E40202EC
S3150200009498E40202A4E40202ACE40202B0E402021C
S315020000A4B8E40202C4E40202D0E40202DCE402027C
S315020000B4E4E40202F4E40202FCE4020204E50202BB
S315020000C408E5020210E502021CE5020228E5020224
S315020000D430E502023CE5020244E5020250E5020270
S315020000E45CE5020268E5020250E502026CE50202E0
S315020000F474E5020280E502028CE5020298E5020238
S31502000104A8E50202A4E50202B0E50202BCE5020287
S31502000114C8E50202D8E50202E8E50202F4E50202B3
S3150200012400E6020208E6020208E6020210E60202FB
S3150200013420E60202E8E5020230E6020240E6020294
S315020001444CE6020258E6020264E6020274E602027F
S3150200015484E6020294E60202A0E60202ACE6020287
S31502000164BCE60202C8E60202D4E60202E0E60202A3
S31502000174F0E60202FCE602020CE7020218E70202B9
S3150200018424E7020234E7020240E702024CE70202D3
S3150200019458E7020264E7020270E7020280E70202FB
S315020001A470E702028CE7020298E70202A4E702025F
S315020001B45CEB0202B0E70202BCE70202CCE70202EF
S315020001C4D8E70202E8E70202F8E7020200E80202BE
S315020001D408E8020214E8020224E802022CE80202F7
S315020001E438E8020244E802024CE8020258E8020233
S315020001F464E8020270E8020278E8020280E8020277
S3150200020488E8020294E802029CE80202A8E80202D2
S31502000214B0E80202B8E80202C4E80202CCE802022A
S31502000224D4E80202DCE80202E8E80202F4E8020286
S3150200023400E902020CE9020218E9020220E90202BA
S315020002442CE9020228E9020234E902023CE902022A
S3150200025448E9020258E9020264E9020274E9020266
S3150200026480E9020288E9020298E90202A4E902028A
S31502000274B0E90202B8E90202C4E90202D0E90202C2
S31502000284DCE90202E8E90202F0E9020200EA0202F9
S3150200029408EA020210EA020218EA020224EA020246
S315020002A434EA02023CEA020248EA020254EA02027E
S315020002B460EA02026CEA02027CEA020284EA0202AE
S315020002C494EA0202A0EA0202ACEA0202BCEA0202CE
S315020002D4C4EA0202D0EA0202DCEA0202E4EA020206
S315020002E4F0EA0202FCEA0202DCEA020208EB020279
S315020002F414EB020220EB02022CEB02023CEB02029A
S3150200030444EB02024CEB020258EB020264EB0202D9
S3150200031470EB020280EB02028CEB020294EB020205
S315020003249CEB0202A8EB0202B4EB0202BCEB020251
S31502000334C4EB0202D0EB0202DCEB0202E4EB0202A1
S31502000344F0EB0202FCEB020218EB020218EB0202C9
S3150200035418EB020218EB020218EB020218EB020275
S3150200036418EB020218EB020218EB020218EB020265
S3150200037418EB020208EC020214EC020218EB020267
S315020003841CEC020224EC02022CEC02022CEC020209
S315020003942CEC020218EB020218EB020218EB020220
S315020003A418EB020218EB020238EC020240EC0202DB
S315020003B440EC020240EC020240EC020240EC020271
S315020003C44CEC020254EC02025CEC02026CEC0202F9
S315020003D47CEC0202DCEA02028CEC020294EC0202DB
S315020003E4DCEA0202DCEA0202DCEA0202DCEA0202D9
S315020003F4A0EC0202A8EC0202B4EC0202C0EC020275
S31502000404CCEC0202D4EC0202DCEC0202E8EC0202BC
S31502000414E8EC0202F4EC0202F4EC0202FCEC020244
S3150200042408ED020214ED020220ED02022CED020294
S31502000434ECEA0202ECEA020238ED020244ED02029E
S3150200044450ED020258ED020258ED020260ED02027C
S3150200045468ED020274ED02027CED020288ED0202EC
S3150200046494ED0202A4ED0202B0ED0202C0ED020214
S31502000474C8ED0202CCED0202D8ED0202E8ED020258
S31502000484F8ED020200EE02020CEE020214EE020281
S3150200049420EE020228EE020234EE020240EE0202CC
S315020004A444EE020244EE02024CEE020258EE02024C
S315020004B464EE020270EE02027CEE020284EE020294
S315020004C48CEE0202ECEA020294EE02029CEE0202B4
S315020004D4A4EE0202ACEE0202B8EE0202C4EE02027C
S315020004E4CCEE0202D8EE0202E4EE0202F0EE0202C0
S315020004F400EF020208EF020210EF020218EF0202F4
S3150200050428EF0202C8EA020230EF020238EF0202C0
S3150200051440EF02024CEF020258EF020264EF0202BB
S3150200052470EF02027CEF020284EF020294EF0202EF
S315020005349CEF0202ACEF0202B4EF0202C0EF020227
S31502000544ACEF0202CCEF0202D4EF0202D8EF0202AF
S31502000554DCEF0202E0EF0202ECEF0202F4EF020227
S3150200056404F0020210F0020218F0020220F0020263
S315020005742CF0020238F0020244F0020250F00202A7
S3150200058458F0020260F0020268F0020268F0020207
S3150200059474F0020280F002028CF0020298F0020267
S315020005A4A8F00202B4F00202BCF00202C4F0020293
S315020005B4CCF00202D8F00202E8F00202F0F00202E3
S315020005C4F8F0020204F102020CF1020224F1020220
S315020005D414F1020220F1020228F1020298FF020239
S315020005E438F1020248F1020250F1020254F1020207
S315020005F45CF1020264F1020270F1020278F1020273
S3150200060480F1020290F1020298F10202A0F10202C2
S31502000614A8F10202B0F10202B8F10202C0F102022A
S31502000624C8F10202D0F10202DCF10202E4F1020292
S31502000634F0F10202F8F1020204F202020CF20202E0
S3150200064414F202021CF2020224F202022CF2020246
S3150200065434F202023CF2020244F202024CF20202B6
S3150200066458F2020264F2020274F202027CF20202FA
S3150200067444F20202ECEE02028CF2020294F202024A
S31502000684A4F20202B8F20202C8F20202D4F202028E
S31502000694E0F20202E4F20202ECF20202F8F20202CE
S315020006A408F3020214F3020218F3020224F302020A
S315020006B42CF3020234F302023CF302024CF302026A
S315020006C458F3020268F302027CF3020288F302027E
S315020006D490F3020298F30202A4F30202B0F30202B6
S315020006E4C0F30202C8F30202D0F30202D8F30202F2
S315020006F4E8F30202F4F30202FCF302020CF402022D
S3150200070414F4020220F402022CF4020234F4020269
S3150200071440F4020248F4020258F4020264F40202A9
S315020007246CF4020278F4020280F4020288F40202F1
S3150200073494F40202A0F40202ACF40202B4F4020239
S31502000744C0F40202CCF40202D4F40202E0F402027D
S31502000754E8F40202F0F40202FCF4020208F50202D0
S3150200076414F5020220F5020224F5020230F5020211
S3150200077438F5020240F502024CF5020258F502026D
S3150200078464F502026CF5020278F5020280F50202B1
S315020007948CF5020298F50202A4F50202A8F50202F9
S315020007A4B0F50202B8F50202C4F50202D0F502025D
S315020007B4DCF50202E4F50202ECF50202F4F50202A9
S315020007C4FCF502020CF602021CF6020220F60202F2
S315020007D428F6020230F6020238F6020240F6020255
S315020007E44CF6020258F6020264F6020270F602029D
S315020007F474F602027CF6020288F6020298F60202F5
S31502000804A4F60202ACF60202B4F60202C0F6020230
S31502000814CCF60202D4F60202E0F60202E8F602027C
S31502000824F0F60202FCF6020208F7020210F70202CE
S315020008341CF7020224F7020234F7020240F702020C
S3150200084448F7020250F7020258F7020264F702025C
S315020008546CF702025002030274F7020280F70202E4
S315020008648CF7020294F702029CF70202A8F702022C
S31502000874B8F70202C0F70202CCF70202D8F7020264
S31502000884E0F70202E8F70202ECF7020208EA0202C1
S31502000894F4F70202FCF7020204F802020CF802025E
S315020008A418F8020220F8020228F8020230F80202BC
S315020008B434F802023CF80202D4F6020248F80202B2
S315020008C450F802027404030258F8020268F802029B
S315020008D470F802027CF8020288F8020290F8020218
S315020008E498F80202A0F80202A8F80202B4F8020278
S315020008F4BCF80202C8F80202D4F80202E0F80202C4
S31502000904E4F80202ECF80202F8F8020200F9020222
S315020009140CF902021CF9020228F9020234F9020253
S315020009243CF9020248F9020254F9020260F902028F
S315020009346CF9020274F9020284F9020294F90202BF
S31502000944A0F90202ACF90202BCF90202C8F90202D7
S31502000954D4F90202E0F90202ECF90202F8F90202FF
S3150200096408FA020210FA02021CFA020224FA02022B
S315020009742CFA020238FA020244FA02024CFA02027F
S3150200098454FA02025CFA020268FA020274FA0202D7
S315020009947CFA02028CFA020298FA0202A4FA02020F
S315020009A4B0FA0202BCFA0202C4FA0202CCFA020247
S315020009B43CF80202D8FA0202E8FA0202F4FA020245
S315020009C400FB020208FB020214FB02021CFB0202E7
S315020009D424FB020234FB020240FB020248FB02022F
S315020009E454FB020264FB020270FB02027CFB02025B
S315020009F484FB02028CFB02029CFB0202A4FB02029F
S31502000A04ACFB0202B4FB0202C4FB0202D0FB0202EA
S31502000A14DCFB0202E4FB0202F0FB0202F8FB020226
S31502000A2404FC02020CFC020218FC020220FC020272
S31502000A342CFC020238FC020248FC020250FC0202AE
S31502000A445CFC020264FC020270FC020278FC0202F2
S31502000A5484FC02028CFC020294FC0202A0FC020246
S31502000A64A8FC0202B4FC0202BCFC0202C4FC02029E
S31502000A74CCFC0202CCFC0202D4FC0202E4FC02021A
S31502000A84ECFC02022C030302F4FC020200FD020245
S31502000A9408FD020210FD020220FD020230FD0202DE
S31502000AA43CFD020248FD020254FD02025CFD020202
S31502000AB468FD020270FD02027CFD020284FD02024E
S31502000AC48CFD020294FD0202A0FD0202ACFD0202AA
S31502000AD4B4FD0202BCFD0202C8FD0202D0FD0202FE
S31502000AE4D8FD0202E0FD0202ECFD0202F4FD02025E
S31502000AF4F8FD020200FE020208FE020210FE0202D3
S31502000B0418FE020224FE020230FE020238FE02022D
S31502000B1440FE02024CFE020258FE020260FE02027D
S31502000B246CFE020274FE02027CFE020284FE0202D1
S31502000B3490FE02029CFE0202A4FE0202B4FE02021D
S31502000B44C0FE0202C8FE0202D4FE0202DCFE020259
S31502000B54E4FE0202F0FE0202F8FE020204FF0202B0
S31502000B640CFF020214FF02021CFF020228FF020209
S31502000B7434FF020244FF020250FF020260FF020235
S31502000B8470FF020278FF020284FF020290FF020251
S31502000B949CFF0202A8FF0202B0FF0202BCFF02028D
S31502000BA4C8FF0202D0FF0202DCFF0202ECFF0202CD
S31502000BB4F4FF0202FCFF020208000302140003020D
S31502000BC41C0003022C000302380003024000030245
S31502000BD448000302500003025C0003026800030299
S31502000BE480030302740003027C0003028C000302E6
S31502000BF494000302A0000302A8000302B400030245
S31502000C0468080302C0000302D0000302DC000302E8
S31502000C14E8000302F0000302F800030204010302DF
S31502000C241001030218010302280103023001030220
S31502000C343801030240010302480103025001030280
S31502000C445C010302640103027401030280010302CC
S31502000C5498010302A0010302B0010302C0010302C8
S31502000C64D0010302DC010302E0F30202E8010302FB
S31502000C74F80103020402030214020302200203021D
S31502000C842802030238020302400203024C02030250
S31502000C945802030260020302680203026C020302A0
S31502000CA478020302800203028C0203029802030200
S31502000CB4A4020302D0F70202AC020302B802030240
S31502000CC4C4020302D4020302DC020302E8020302A0
S31502000CD4F0020302F80203020003030208030302FA
S31502000CE41403030224030302280303023403030244
S31502000CF4440303025003030260030302680303026C
S31502000D04700303027C0303028803030298030302AB
S31502000D14A4030302AC030302B8030302C4030302DB
S31502000D24D0030302DC030302EC030302FC03030203
S31502000D3404040302100403021C040302240403022F
S31502000D44300403023C040302ECF8020244040302E4
S31502000D54B4F80202500403025C04030264040302AC
S31502000D64700403027C040302840403029004030253
S31502000D749C040302A8040302B8040302C004030287
S31502000D84CC040302D4040302DC040302E8040302CF
S31502000D94F404030200050302080503021005030214
S31502000DA41C050302240503022C050302340503026F
S31502000DB43C05030248050302500503025C050302CF
S31502000DC4640503026C050302780503028405030223
S31502000DD48C050302940503029C050302A80503027B
S31502000DE4B0050302BC050302C4050302D4050302CB
S31502000DF4E0050302E8050302F40503020006030202
S31502000E04080603021006030220060302280603024A
S31502000E1434060302400603024C0603025406030286
S31502000E246406030270060302D0F402027C0603027D
S31502000E349CF702028806030294060302A006030232
S31502000E44A8060302B0060302B8060302C00603029A
S31502000E54C8060302D0060302DC060302E406030202
S31502000E64EC060302F8060302040703021007030250
S31502000E7418070302240703023007030274F8020266
S31502000E843C0703024C0703025807030264070302E2
S31502000E9470070302780703027C0703028C07030226
S31502000EA49C070302A807030230F00202B4070302F6
S31502000EB4B8070302C8070302D0070302DC070302CA
S31502000EC4E4070302EC070302F40703020008030221
S31502000ED40C08030214080302200803023008030262
S31502000EE43C080302440803024C080302580803029E
S31502000EF4640803026C0803027408030280080302EE
S31502000F048C08030298080302A0080302A808030235
S31502000F14B8080302C0080302D0080302E008030269
S31502000F24EC080302F8080302040903020C0903028B
S31502000F34040903029CF002021C09030228090302A3
S31502000F44340903023C09030248090302580903024D
S31502000F54640903026C090302740903027809030291
S31502000F64840903028C09030298090302A8090302ED
S31502000F74B4090302B8090302C4090302D409030229
S31502000F84DC090302E8090302F0090302F809030271
S31502000F94000A03020C0A0302180A03021C0A0302C9
S31502000FA4240A0302280A0302300A0302380A030245
S31502000FB4440A03024C0A0302580A0302640A03029D
S31502000FC46C0A0302780A0302800A0302880A0302ED
S31502000FD4940A03029C0A0302A80A0302B40A03023D
S31502000FE4BC0A0302C40A0302CC0A0302D40A030299
S31502000FF4D80A0302E00A0302F00A0302F80A030209
S31502001004040B0302100B03021C0B0302280B03023C
S31502001014300B0302340B0302004C020000000000F2
S3150200102400000000C40F00220000000000000000BF
S315020010340000000008E50F22010000000000000085
S315020010440103000081B802020B00000000800000C8
S3150200105400000000000000000103000081BF02023C
S315020010640A00000000040000000000000000000066
S315020010740103000099BF02020A000000008000007A
S31502001084000000001810002200000000803D122219
S31502001094E83D1222503E1222000000000000000029
S315020010A40000000000000000000000000000000034
S315020010B40000000000000000000000000000000024
S315020010C40000000000000000000000000000000014
S309020010D40000000010
S315020010D80000000000000000000000000000000000
S315020010E800000000000000000000000000000000F0
S315020010F800000000000000000000000000000000E0
S3150200110800000000000000000000000000000000CF
S315020211000348044B834202D0034B03B1184770478C
S31502021110641000226410002200000000064B0749F8
S31502021120C91A891048BF0131491003D0044B0BB1C9
S3150202113001481847704700BF64100022641000225B
S315020211400000000010B5064C237843B9FFF7D8FF1A
S31502021150044B13B10448AFF300800123237010BD80
S3150202116000C109220000000028F1C90208B5054B98
S315020211701BB105490548AFF30080BDE80840FFF7F9
S31502021180CDBF00BF0000000004C1092228F1C90236
S3150202119007F07ABC022800D0704708B54FF47A717C
S315020211A0C82007F063F80449044804F0ADFFBDE81D
S315020211B00840012007F048B924DD02021CC10922B7
S315020211C008B5FFF7E5FF002008BD00BF30B4039D56
S315020211D08446E80625F0300403D5DCF880000002D6
S315020211E01BD5A80603D5DCF88000800215D50D3C76
S315020211F0022C0BD9DCF824400020C4F87031029B81
S31502021200C4E95A12C4E95D3530BC7047DCF8800085
S31502021210C403EFD4C0B20928ECD809238CF8C6312C
S31502021220184630BC704700BF2DE9F04F9A468946F0
S3150202123091B0BDF96C401F9E0894BDF9704026F02C
S31502021240080C0994BDF9744051440A94BDF97840D8
S3150202125090460B94446ABDF868B0D4F86C31056BBB
S31502021260B3F5006FA8BF6646D4E95C239142A2EBAE
S315020212700A02D8BF4A460D92D4F87821074602F0EE
S31502021280100207920BEB08029A42A3EB0B03D8BF9A
S3150202129043460E93E37D25B116F480720C9200F05A
S315020212A003810C930321384600F07EFE0022384663
S315020212B0114602F04DFF079B002B00F05681D4F82F
S315020212C0683106F00F0138460D9303F051FAD4E95C
S315020212D05B23D4F878010D990190D4F87401009039
S315020212E0384603F097F8B30600F1C9804FF07F4300
S315020212F01A46F00606F0400140F1CE80A0680029A7
S3150202130000F06B81E16802430B43C4E9562394F869
S315020213100E3143F0050384F80E31BDF82030102B4E
S3150202132040F24D814FEA0951B1FBF3FE099A4FEAA7
S315020213306E03102A40F34A814FEA0850B0FBF2F0DC
S315020213404210B10544BFC3EB0943CEF1000E71054B
S3150202135048BFC2EB0842A3F5004C48BF4042079978
S3150202136016F0040F18BF634616F0080FA2F5004CDA
S3150202137018BF624619B103EB0A4302EB0B424FF066
S31502021380000CDDF82C90DDF82880CDE9002E4146CE
S315020213904A460490CDE902CC384602F0B1FE0998DB
S315020213A04B4601900898424600902146384600F084
S315020213B03BFD002D00F0D480F30500F1D1802B789D
S315020213C0E375AB7884F80E316B7884F8D5306B68A6
S315020213D0C4F8FC30AB68C4F80031EB68C4F82C31AF
S315020213E095F8293084F8E9302B69C4F838316B69EB
S315020213F0C4F8343195F8283084F8E830AB69C4F879
S31502021400EC30EB69C4F8F0302B6AC4F8F4306B6A3C
S31502021410C4F8F83095F82A3084F8EA3095F82B3079
S3150202142084F8EB30EB6AC4F83C312B6BC4F84031DA
S315020214306B6BC4F82431AB6BC4F85831EB6BC4F84E
S315020214405C31B5F95430A4F8A830B5F95630A4F88F
S31502021450AA30EB6CC4F8A0302B6DC4F8A4306B6CC6
S31502021460C4F89830AB6CC4F89C30EB6DC4F8B0305B
S315020214702B6EC4F8B430002011B0BDE8F08F16F01E
S31502021480800200F0A780F0064FF000034FF07F4281
S3150202149006F040013FF532AF002900F0A080A168B4
S315020214A00A43E1680B4330E72B7094F80E31AB70B6
S315020214B094F8D5306B70D4F8FC306B60D4F80031F6
S315020214C0AB60D4F82C31EB6094F8E93085F8293018
S315020214D0D4F838312B61D4F834316B6194F8E830A0
S315020214E085F82830D4F8EC30AB61D4F8F030EB61F1
S315020214F0D4F8F4302B62D4F8F8306B6294F8EA30FE
S3150202150085F82A3094F8EB3085F82B30D4F83C3142
S31502021510EB62D4F840312B63D4F824316B63D4F8EE
S315020215205831AB63D4F85C31EB63B4F9A830A5F851
S315020215305430B4F9AA30A5F85630D4F8A030EB6488
S31502021540D4F8A4302B65D4F898306B64D4F89C3066
S31502021550AB64D4F8B030EB65D4F8B4302B66A1E6AE
S3150202156038460C9900F020FD85E7D4F8783123F04D
S315020215703003422B36D8DFE803F052616A616148D2
S315020215806A616152525252525252353535353535A9
S3150202159035353535353535353535353535353535F1
S315020215A035353535353535353535353535353535E1
S315020215B0353535353535353535356A616100099A40
S315020215C00023102A4FF4803E3FF7B6AE00224FF4B4
S315020215D08030B6E64FF07F438BE6034395E663F02F
S315020215E07F4392E6384606F00F0103F0C1F8002265
S315020215F0D4F878011146D4F86C2101900E980D9B0D
S315020216000090384602F006FF6DE6D7F880309A025D
S3150202161026D5012384F8E930144BC4F82C31D4F8C8
S315020216206C31D4F8682103FB0BA31A44384606F040
S315020216300F010F9203F09CF80F9AD9E7D4F86C3196
S31502021640D4F8682103FB0BA302EB4302EEE7D4F8BC
S315020216506C31D4F8682103FB0BA302EB8302E5E7A4
S315020216600923184687F8C63106E700BF10000400B0
S315020216702DE9F04F85B0BDF93860BDF93CC056B3CD
S31502021680BCF1000F27DD98460023A2F1100722F0D3
S315020216900F0B91461A463744A8F110066644BFB2AA
S315020216A0B6B207F10F0E2EF00F0E06F10F0C2CF04A
S315020216B00F0C28F00F0A6BF30F036EF30F020D469F
S315020216C06AF31F436CF31F4202A904460293039272
S315020216D003F0D4FA18B9002005B0BDE8F08F20460F
S315020216E0294602F0BFF995F8D5303FB2980736B2CD
S315020216F033D4D90700F14A8100232946204602AA99
S31502021700009301F073FD064600232946204602AAEB
S3150202171001F026FF0023294602AA204603F054F8C6
S315020217200022D4F8B83103F10801C4F8B811C3E9AA
S315020217300026D4F8BC31013B9342C4F8BC3103DC27
S315020217402046D4F8C03198472046002202A902F068
S3150202175047FC012005B0BDE8F08FDA0700F11681D9
S3150202176049EA070348EA06021B0702F00F0200F0E3
S31502021770C982BDF90830D4F8B811A3EB09031B03D9
S3150202178003F5803301F10800C4F8B8014B60042363
S315020217900B60D4F8BC31013BC4F8BC31002A00F01C
S315020217A00582002B03DC2046D4F8C03198470A2171
S315020217B04FF48032D4F8B83103F10800C4F8B80104
S315020217C0C3E90012D4F8BC31013B002BC4F8BC3188
S315020217D003DC2046D4F8C031984700221021D4F8FF
S315020217E0B83103F10800C4F8B801C3E90012D4F80B
S315020217F0BC31013B9342C4F8BC3103DC2046D4F827
S31502021800C03198470521BDF90830D4F8B821FF1A2C
S315020218103B0303F5803302F10800C4F8B801C2E9BA
S315020218200013D4F8BC31013B002BC4F8BC3103DCF3
S315020218302046D4F8C03198470B22D4F8B831DA4997
S3150202184003F10800C4F8B801C3E90021D4F8BC3197
S31502021850013B002BC4F8BC3103DC2046D4F8C0316C
S31502021860984700221121D4F8B83103F10800C4F8CE
S31502021870B801C3E90012D4F8BC31013B9342C4F861
S31502021880BC3103DC2046D4F8C03198470621BDF9A3
S315020218900A30D4F8B821A3EB08031B0303F58033FD
S315020218A002F10800C4F8B801C2E90013D4F8BC3147
S315020218B0013B002BC4F8BC3103DC2046D4F8C0310C
S315020218C09847D4F8B831002103F10802C4F8B821C6
S315020218D00C22C3E90021D4F8BC31013B8B42C4F885
S315020218E0BC3103DC2046D4F8C0319847D4F8B8316B
S315020218F04FF4803103F10802C4F8B8211222C3E977
S315020219000021D4F8BC31013B002BC4F8BC3103DC04
S315020219102046D4F8C03198470721BDF90A30D4F8D7
S31502021920B821F61A330303F5803302F10800C4F82C
S31502021930B801C2E90013D4F8BC31013B002BC4F84A
S31502021940BC3103DC2046D4F8C031984700220D216F
S31502021950D4F8B83103F10800C4F8B801C3E9001299
S31502021960D4F8BC31013B9342C4F8BC3103DC2046B5
S31502021970D4F8C03198471322D4F8B83103F10801DA
S31502021980C4F8B8118849C3E90021F7E00421BDF978
S315020219900830D5F81021A3EB090302FB03F302EB8D
S315020219A01312D4F8B83103F10800C4F8B801C3E936
S315020219B00012D4F8BC31013B002BC4F8BC3140F30F
S315020219C07E810A22D4F8B831D5F8101103F1080043
S315020219D0C4F8B801C3E90021D4F8BC31013B002B9B
S315020219E0C4F8BC3140F3898100221021D4F8B831FF
S315020219F003F10800C4F8B801C3E90012D4F8BC31F5
S31502021A00013B9342C4F8BC3140F372810521BDF910
S31502021A100830D5F81021FB1A02FB03F302EB13126C
S31502021A20D4F8B83103F10800C4F8B801C3E90012C8
S31502021A30D4F8BC31013B002BC4F8BC3140F35381CC
S31502021A400B21D5F810315A42D4F8B83103F1080005
S31502021A50C4F8B801C3E90012D4F8BC31013B002B29
S31502021A60C4F8BC3140F33A8100221121D4F8B831CC
S31502021A7003F10800C4F8B801C3E90012D4F8BC3174
S31502021A80013B9342C4F8BC3140F30F810621BDF9F2
S31502021A900A30D5F81021A3EB080302FB03F302EB8B
S31502021AA01312D4F8B83103F10800C4F8B801C3E935
S31502021AB00012D4F8BC31013B002BC4F8BC3140F30E
S31502021AC0EF80D4F8B831002103F10802C4F8B82134
S31502021AD00C22C3E90021D4F8BC31013B8B42C4F883
S31502021AE0BC3140F3E7801222D4F8B831D5F810118E
S31502021AF003F10800C4F8B801C3E90021D4F8BC31E5
S31502021B00013B002BC4F8BC3140F3C580BDF90A3053
S31502021B10D5F81021F31A02FB03F302EB1312072381
S31502021B20D4F8B81101F10800C4F8B801C1E90032CB
S31502021B30D4F8BC31013B002BC4F8BC3140F3C98056
S31502021B4000220D21D4F8B83103F10800C4F8B80115
S31502021B50C3E90012D4F8BC31013B9342C4F8BC314A
S31502021B6040F3B280D4F8B831D5F8102103F1080156
S31502021B70C4F8B81113215242C3E90012D4F8BC3197
S31502021B80013B002BC4F8BC3103DC2046D4F8C03139
S31502021B9098470F26042300962946204602AA01F0F8
S31502021BA025FB0646B0E500BF0000FFFF002B03DC63
S31502021BB02046D4F8C0319847D4F8B8314FF4803170
S31502021BC003F10802C4F8B8210A22C3E90021D4F8B3
S31502021BD0BC31013B002BC4F8BC3103DC2046D4F8ED
S31502021BE0C0319847D4F8B831002103F10802C4F88B
S31502021BF0B8211022C3E90021D4F8BC31013B8B4241
S31502021C00C4F8BC3103DC2046D4F8C031984705211A
S31502021C10BDF90830D4F8B821FB1A1B0303F5803349
S31502021C2002F10800C4F8B801C2E90013D4F8BC31C3
S31502021C30013B002BC4F8BC3103DC2046D4F8C03188
S31502021C4098470B22D4F8B83103F10801C4F8B81147
S31502021C507449C3E90021D4F8BC31013B002BC4F814
S31502021C60BC3103DC2046D4F8C03198470022112148
S31502021C70D4F8B83103F10800C4F8B801C3E9001276
S31502021C80D4F8BC31013B9342C4F8BC3140F3C48060
S31502021C90032602237FE72046D4F8C031984735E768
S31502021CA02046D4F8C03198470BE72046D4F8C03113
S31502021CB09847EBE62046D4F8C031984713E7204608
S31502021CC0D4F8C03198477CE62046D4F8C03198470A
S31502021CD048E72046D4F8C031984731E72046D4F87F
S31502021CE0C0319847C0E62046D4F8C0319847A7E6E5
S31502021CF02046D4F8C031984788E62046D4F8C03147
S31502021D00984771E6002A3FF4F7AC0421BDF90A307E
S31502021D10D4F8B821A3EB08031B0303F5803302F1BF
S31502021D200800C4F8B801C2E90013D4F8BC31013B79
S31502021D30002BC4F8BC3103DC2046D4F8C0319847E4
S31502021D40D4F8B831002103F10802C4F8B8210A22F4
S31502021D50C3E90021D4F8BC31013B8B42C4F8BC3141
S31502021D6003DC2046D4F8C0319847D4F8B8314FF490
S31502021D70803103F10802C4F8B8211022C3E9002116
S31502021D80D4F8BC31013B002BC4F8BC3103DC20463B
S31502021D90D4F8C03198470521BDF90A30D4F8B821E2
S31502021DA0F31A1B0303F5803302F10800C4F8B801E3
S31502021DB0C2E90013D4F8BC31013B002BC4F8BC3192
S31502021DC003DC2046D4F8C031984700220B21D4F80E
S31502021DD0B83103F10800C4F8B801C3E90012D4F815
S31502021DE0BC31013B9342C4F8BC3103DC2046D4F831
S31502021DF0C03198471122D4F8B83103F10801C4F868
S31502021E00B8110849C3E90021D4F8BC31013B002BC1
S31502021E10C4F8BC313FF73CAF2046D4F8C0319847EC
S31502021E2036E700BF0000FFFF30B4BDF90850BDF926
S31502021E300C40CDE9025430BCFFF71ABC0000000088
S31502021E402DE9F04106464FF4BE7001F007FB044647
S31502021E50002800F096806FF07F424FF07F43466083
S31502021E60C4E902224FF4B05200254FF48031C4E98C
S31502021E705333C4F854314FF0FF3702201023C4F80B
S31502021E801C214FF47032C4F8101184F8D500276170
S31502021E90C4F8285184F80E51A382D6F88030C4F8C9
S31502021EA03421042284F8E9204FF4002213F0006F51
S31502021EB03B4B08BF4FF480039FED356B9FED367B9C
S31502021EC040F2011E4FF0400CC4F82C214FF0AA0832
S31502021ED00122C4E94F55C4F82031C4F84451706D49
S31502021EE084ED317F034343F4012343F4C063C4E91F
S31502021EF04581C4F82431C4F83011C4F8162084F896
S31502021F00D420A4F8D6E0C4F8D8C004F11C0084F8A0
S31502021F100F51C4E93F55A4F80C21C4E94155C4F84E
S31502021F20485101F05BF904F1340001F057F904F16A
S31502021F304C0001F053F904F1640001F04FF904F187
S31502021F407C0001F04BF904F1940001F047F904F127
S31502021F50AC0001F043F90C22124B3046C4F8E430CD
S31502021F602146C4E93757C4F8387184F8E82002F0EA
S31502021F7005F9F36920462360F46186F8C651BDE885
S31502021F80F081012586F8C6512046BDE8F08100BFE0
S31502021F90AA00000004000000000000001000000079
S31502021FA00800402001030303436A024693F80E0126
S31502021FB0022940F00100D97583F80E0116D009D81C
S31502021FC093F8D51021F00C0183F8D510002082F87F
S31502021FD0C60170470329F9D1002093F8D51041F0C2
S31502021FE00C0183F8D51082F8C6017047002093F8D7
S31502021FF0D51021F0080141F0040183F8D51082F8C8
S31502022000C601704700B5436A024693F812C093F8B6
S315020220100E018C4540F0010E18BF40F0070083F80E
S315020220200EE118BF83F80E01987D9974C0074FF02E
S31502022030000044BF0906C3F84C1182F8C6015DF8D6
S3150202204004FB00BF00B5436A024693F816C093F832
S315020220500E018C4540F0010E18BF40F0070099753B
S3150202206083F80EE118BF83F80E01C90758BF4FF075
S315020220707F414FF0000044BF997C0906C3F84C1118
S3150202208082F8C6015DF804FB10B4446A032994F887
S315020220900E31844643F0010384F80E3127D81A4BD7
S315020220A053F82110032A22D8DFE802F02B04022871
S315020220B041F480610022D4F82001D4F82C31C4F80C
S315020220C01C110343DCF854000343D4F83C010343D6
S315020220D0D4F840010343D4F8440103430B43C4F842
S315020220E024318CF8C62110465DF8044B7047102243
S315020220F08CF8C62110465DF8044B704741F4A05194
S31502022100D8E741F48051D5E704E0020230B4426ACC
S31502022110034692F8D50059B1002440F0020100208C
S31502022120C2F8284182F8D51083F8C60130BC70473E
S315020221304FF480354FF0100C4FF4FC4400F0FC01D2
S31502022140C2F81051A2F814C0E9E700BF6FF07F434C
S31502022150D0F84C11027C90F811C0090A01FB023236
S3150202216001FB0C3390F80E1102F07F4203F07F431B
S3150202217021F00201C0E9542380F80E11704700BF14
S31502022180F8B5064614200D46B76901F067F900282C
S3150202219035D000238560C360B36E044605EB850520
S315020221A0D8074FEA850113D5084601F057F9606050
S315020221B010B300232361B36ED90705D4D6F884304F
S315020221C0DA0613D49B0707D4002323602046F8BD00
S315020221D0304601F081F9EAE7A268042102EB8202A3
S315020221E03846920005F024FC2061EDE701463846A6
S315020221F005F034FC2061E7E7204601F031F90024BC
S31502022200E4E700BFF8B5876911B306460C460CE04F
S31502022210304601F083F92A691AB1D6F884309B074F
S315020222200DD4284601F01CF994B12546B36E2468F2
S31502022230DA076968ECD5084601F012F9EBE7384687
S31502022240042105F005FC284601F00AF9002CECD11E
S31502022250F8BD00BF10B583680446186838B100227B
S315020222604368C26023618368A060E36110BD216A8C
S315020222702068FFF785FF10B1A3681860EFE7152201
S31502022280236883F8C72110BD2DE9F041456904464A
S3150202229082B0002D3CD0C169AB69002933D10268F4
S315020222A0012BD2F8188040F2978086682F69B268AD
S315020222B0736802EB820203EB820307EB8207F26880
S315020222C000690AB11760F160834207D91A1A013A04
S315020222D022F00302802104320AF03CFFD6E90123EE
S315020222E0102603EB830329699B004046009605F0FC
S315020222F0B9FBAB692F61013BAB61204602B0BDE877
S31502022300F041FFF7A7BF012B23D002B0BDE8F0814F
S3150202231040F2FF310369774A1A6003695D60066912
S315020223208368321DDA600369996003F10C02C3699C
S315020223300261013BC0E90653FFF78CFF236893F95A
S31502022340C731002B7DD1A3685B68736002B0BDE81A
S31502022350F081E96902680129D2F8188041D9EE684A
S315020223600139A768E9617068002800F0AE80FB684F
S31502022370002B55D018600023FB60A2692369032A49
S315020223800FD8DFE802F05840023340F2FF311A88D2
S31502022390D96042F0004242F400021A6003F11002CE
S315020223A0226100211027E369A268013BE361A16170
S315020223B0D2E9012303EB830329699B004046009776
S315020223C005F050FB7368002B97D0331DEB607268E1
S315020223D06B692A61AB6190E7E9690129BFD88CD1A1
S315020223E0012B04BF152382F8C73186E71A6822F049
S315020223F07F4242F000421A6040F2FF321A612369BA
S3150202240014332361CDE740F2FF311A78996042F024
S31502022410802242F400021A6003F10C022261C0E732
S315020224202369344A1A60236958602369A26804330D
S31502022430D3602369083340F2FF3243F8042B236147
S31502022440AFE72369A269A3F10C012161032A11D81C
S31502022450DFE802F0162D1E0240F2FF3153F80C2C71
S31502022460596022F07F4242F0004243F80C2C236963
S31502022470143323610022E369013BC4E9062344E7DC
S3150202248040F2FF31A3F1080243F80C1C2261F1E784
S31502022490194640F2FF3033F80C2C42F0004242F465
S315020224A0000243F80C2C41F8040B2161E2E740F2E8
S315020224B0FF3113F80C2C43F8041C42F0802242F43A
S315020224C0000243F80C2C2361D4E7AA68042102EB2A
S315020224D082024046920005F0ABFA706000287FF451
S315020224E046AF0122236883F8C721706800283FF4A9
S315020224F044AF3CE73280808083690269032B0CD8A1
S31502022500DFE803F0100220111146137843F080230C
S3150202251043F4000341F8083B01610022C369013B0F
S31502022520C0E90623704711461368002223F07F434F
S3150202253043F0004341F8103BC3690161013BC0E924
S315020225400623EFE711461388002243F0004343F4C1
S31502022550000341F80C3BC3690161013BC0E9062352
S31502022560E0E700BF10B504460068816E11F0200153
S3150202257004D13B2200F5BC700AF0ECFD6368626985
S31502022580C4E9023362B11368D36063691A681268D6
S315020225901A6163695A68DA6163695A699A61636898
S315020225A00022596821619B68E262C4E9062310BDD2
S315020225B02DE9F0474FF000080D4686692C6814F0A3
S315020225C0803F14D0B4F1803F3DD02204E7B23CD51D
S315020225D0322F00F09680394630466A6800F0DAFEFB
S315020225E0202F65D0AC68083514F0803FEAD15FFA35
S315020225F084FA514630466A6800F0CCFEBAF1200FE0
S31502022600C4F30729C4F307474FEA14644CD0494678
S315020226103046AA6800F0BEFEB9F1200F40D0394614
S315020226203046EA6800F0B6FE202F35D02146304603
S315020226302A6900F0AFFE202C2AD01435BEE7002C00
S3150202264042DBFF2F17D00435B8E72302F7D5FF2F57
S31502022650C4F3072430D0394630466A6800F09AFE3F
S31502022660202F55D021463046AA6800F093FE202C30
S315020226704AD00C35A2E7C4F30728B8F1020F02D0FA
S31502022680B8F1040F3DD13046043500F089FE95E7D4
S31502022690304600F085FED0E7304600F081FEC5E7FF
S315020226A0304600F07DFEBAE7304600F079FEAEE72C
S315020226B0304600F075FE95E7022C21D1304600F035
S315020226C06FFEA046043579E7394630466A6800F05D
S315020226D061FE202FC4F30729C4F3074424D04946D6
S315020226E03046AA6800F056FEB9F1200F18D02146EC
S315020226F03046EA6800F04EFE202C0DD010355DE71A
S31502022700A0464046BDE8F087304600F049FEB0E7F3
S31502022710304600F045FEA5E7304600F041FEEDE701
S31502022720304600F03DFEE2E7304600F039FED6E7DB
S315020227302DE9F04F876EC468D0E96D5117F0200774
S31502022740A1EB050881462268A66983B04FEAE8082A
S3150202275051D1A942236945D002F5BC718946DFF8F7
S3150202276090A1083502F18C0B019005E00137B845BC
S3150202277005F1080534D9226892F9C72103EB860EC0
S31502022780701C6ABB55E9022C1AF8021061B119F9DA
S31502022790021019B15BF822106145E7D04FF0010130
S315020227A009F802104BF822C09A55CEF804C0E26A22
S315020227B010F0030602F10102E262D7D1E26923694D
S315020227C0013A1433012A2361E261CFD82046A66177
S315020227D00137FFF759FDB845236905F10805CAD83D
S315020227E0DDF80490A6614023D9F8B421C9E96E2323
S315020227F003B0BDE8F08FE36A4344E36292F9C7315C
S31502022800002BF0D126B32069B8F1000FEBD0424675
S3150202281005F1080301E0083386B153E90217013ACA
S31502022820815500EB860106F101061D464F6006F050
S31502022830030608F1FF38EED1002ED4D10022236915
S3150202284014332361E369013B012BC4E906234BD905
S315020228505FEA98074FF0000605D125E00136BE422F
S3150202286005F1200520D0236893F9C731E3B92A6816
S3150202287023691A70AA685A702A699A70AA69DA7062
S315020228806A685A60EA689A606A69DA60EA691A618B
S31502022890E3692269013B1432012B2261E361DDD82D
S315020228A02046FFF7F1FCD9E718F003089BD008F19E
S315020228B0010805F1080305EBC805AC460EE0A1695D
S315020228C0206953E902574A1C083300EB810602F0DB
S315020228D00302634545547760A26184D0226892F965
S315020228E0C721002AEBD07EE72046FFF7CDFCAFE7F1
S315020228F018E0020238B50446FFF71AFFE068826959
S315020229000369032A0FD8DFE802F03326021940F2DE
S31502022910FF451A8803F1100142F0004242F4000216
S315020229201A60DD6001610022C369013B012BC0E925
S31502022930062323D9002084F8C60138BD40F2FF419E
S315020229401A68196122F07F4242F000421A60036954
S3150202295014330361E7E740F2FF451A7803F10C01EB
S3150202296042F0802242F400021A609D600161DAE7B7
S3150202297040F2FF4243F8042B0361D4E7FFF784FCDB
S31502022980002084F8C60138BD38B50446FFF7D0FEEA
S31502022990E06882690369032A0FD8DFE802F0332668
S315020229A0021940F2FF251A8803F1100142F0004291
S315020229B042F400021A60DD6001610022C369013B32
S315020229C0012BC0E9062323D9002084F8C60138BDAB
S315020229D040F2FF211A68196122F07F4242F0004258
S315020229E01A60036914330361E7E740F2FF251A7896
S315020229F003F10C0142F0802242F400021A609D6049
S31502022A000161DAE740F2FF2243F8042B0361D4E7BD
S31502022A10FFF73AFC002084F8C60138BD2DE9F041E1
S31502022A20036882B09D6E15F0010526D1D0E90274C3
S31502022A30BC4280469E6912D0236830461BB1E268C8
S31502022A400AB11B691360A368626803EB83032169F7
S31502022A509B00009505F006F82468A742ECD10025F2
S31502022A60D8F81C00A36862681B1A03EB8303216968
S31502022A7030469B00009504F0F5FF02B0BDE8F081F6
S31502022A8003689A6ED20720D42DE9F041D0E9026496
S31502022A90B44207469D690BD0A368626803EB8303BF
S31502022AA0042128469B0009F0F3FD2468A642F3D1CD
S31502022AB0FA69A36828469B1A03EB83036268042118
S31502022AC0BDE8F0419B0009F0E3BD704703689A6EC8
S31502022AD0D20726D42DE9F041D0E90264B442074670
S31502022AE09D6911D02368042128461BB1E2680AB106
S31502022AF01B691360A368226903EB83039B0009F037
S31502022B00C7FD2468A642EDD1FA69A36828469B1A34
S31502022B1003EB830322690421BDE8F0419B0009F01D
S31502022B20B7BD70472DE9F0410C46054682B00868EA
S31502022B301746FFF7FDFDA2692369032A0FD8DFE8CC
S31502022B4002F04235022840F2FF311A88D96042F079
S31502022B50004242F400021A6003F1100222610022CC
S31502022B60E369013BC4E90623EB6F002B55D0636987
S31502022B70002B46D06FBB00232046E361FFF784FB9E
S31502022B80A2686369E260002B60D0186902B0BDE8F0
S31502022B90F08140F2FF311A68196122F07F4242F057
S31502022BA000421A60236914332361D8E740F2FF31E7
S31502022BB01A78996042F0802242F400021A6003F106
S31502022BC00C022261CBE740F2FF3243F8042B236167
S31502022BD0C5E70025206800F003FAE169A268D2E996
S31502022BE001235B1A616903EB830309699B00009562
S31502022BF004F038FF2046FFF7B5FC0023184663624D
S31502022C00C4E7D5F8843020469A0730D4DB0629D5A4
S31502022C10FFF75CFF002FAED0ECE7D4F80880D8F8B5
S31502022C20003053B3A36A01333C2BA3629FD1D8F877
S31502022C30006000E0884631463668002EFAD12068E6
S31502022C40FFF7E0FAC8F80060A66290E7D5F884308A
S31502022C5013F0120F02D01069002897D1206902B030
S31502022C60BDE8F081FFF70CFF002F84D0C2E7FFF721
S31502022C70D5FE002F3FF47FAFBCE7A36277E700BF22
S31502022C80B1F934300A6B002B0FDD002310B41C4657
S31502022C90043A42F8044FB1F9340001339842F8DC9F
S31502022CA000235DF8044BCB8670470023CB86704720
S31502022CB0F8B5B1F93400B1F93660431EB3420C4697
S31502022CC01746096B06DD731CB00041F82670E386CF
S31502022CD00844F8BD103000B2A0860122800000F03E
S31502022CE0C1FBB4F9343001469E422063EBDA354623
S31502022CF00022B00001EB860343F8042BB4F934C078
S31502022D000135AC45F8DC731C41F82670E3860844AB
S31502022D10F8BD00BF2DE9F843002708604F61D0F8DD
S31502022D207C8006460C46B8F1000F74D0D8F8003003
S31502022D3020204B6000F092FB05466061002867D0B6
S31502022D40D8F80800800000F089FB81462860002836
S31502022D505ED0D8F808106960D6F88830D8F8042010
S31502022D6003FB02F2AA60D8F804306B6171B1012347
S31502022D7007606A689A4206D92A6842F823706A6824
S31502022D8001339A42F8D8D5F80090AA68C5F80C9091
S31502022D9002EB82020421B069920004F049FEC9F8EC
S31502022DA000002B681B68002B32D069686A692B61A6
S31502022DB0C5E906216068E06050B300231022A060D4
S31502022DC04168216181684020C4E90631C4E90A33B7
S31502022DD0A28600F043FB2063D0B1636903B31B688A
S31502022DE01A68B4F93430002B09DD00231D46011F8F
S31502022DF041F8045FB4F9340001338342F8DB00235D
S31502022E0021463046E386FFF753FF0120BDE8F883E9
S31502022E100020BDE8F8831146FFF7B2F96060CAE7FF
S31502022E20D6F88420636812F0120F02D01A69002AB9
S31502022E30D7D15A68D5E700BFF8B505464FF4EA700E
S31502022E4000F00CFB0446002857D000264FF0000281
S31502022E5002234FF40011A0F8C621C0E90666C0E9B2
S31502022E601236856641650665FEF7EAFFA6EE100B87
S31502022E706A0684ED087F03D4702000F0EFFA064654
S31502022E80002315F0040F0CBF05210421C4E90D33FA
S31502022E90C4E90F33C4E91B3384F8C63184F8C4315A
S31502022EA063646367A4F87830636180EF50602B072E
S31502022EB04FF033004FF000054FF0010748BF21F0F3
S31502022EC00401221D2663676682ED007F40F2271205
S31502022ED0C4F88800E16504F18C0029462566E56797
S31502022EE00AF038F90822064BC4F88050196884F8A9
S31502022EF0C851216084F8C5211C602046F8BD00BF76
S31502022F00C8C1092270B5044600F01EFAA061002863
S31502022F105ED03B22002104F5BC700AF01BF9E56F74
S31502022F207DB1D4F888102046FFF72AF906462E60AC
S31502022F302046D4F88810FFF723F930602B681A6806
S31502022F401360D4F888202046114600F06FFC03462F
S31502022F50D4F8882023611146204600F067FC2269D4
S31502022F6003466061F2B1E8B10025C4E90222636058
S31502022F704FF40070656300F071FA184B4022C4F8F0
S31502022F80C03103460A21C4E96D33A069C4F8BC21E3
S31502022F9084F8C95104F0A6FC48B9002384F8C63164
S31502022FA0184670BD012384F8C631184670BDFF2348
S31502022FB02A460A21A06904F06BFC2A460A21A06964
S31502022FC004F082FCFF2804BF012384F8C931E4E736
S31502022FD0052384F8C631184670BD00BF31270202A6
S31502022FE080697047002843D038B5436E04468B4247
S31502022FF00D4617D0082B1AD0082929D000F02CFD2D
S315020230000021626A92F80E3143F0010382F80E3110
S31502023010626A84F8C611656692F80E3143F00103BC
S3150202302082F80E31002384F8C631184638BD426A48
S31502023030616692F80E3143F0010382F80E3100F016
S31502023040F7FC082D0CD0002384F8C631184638BD89
S31502023050426A616692F80E3143F0010382F80E313A
S31502023060204600F0C1FC002384F8C631184638BD5A
S315020230700220704740B110B5044600F09BF90023C6
S3150202308084F8C631184610BD02207047F8B5B1F968
S3150202309016C00D46ACEB030C8B68069E03FB0CFCBA
S315020230A0B1F9143004469B1A4A6802FB03C20B6842
S315020230B01211511C13F0080F18BF0A4613F0100F13
S315020230C0A2F5803118BF0A46590751BF012740F2BD
S315020230D00127A2F5004202F1FF325B0607FA06F762
S315020230E004D54FF4003371088B401F43D4F8B8312C
S315020230F0C2F1000C079A311D03F10800C4F8B801A7
S3150202310019608ABBC3F804C0D4F8BC31013B002B58
S31502023110C4F8BC315DDDD4F8B8316A6803F108013E
S31502023120C4F8B8115A6006F10A021A60D4F8BC3120
S31502023130013B002BC4F8BC3146DDD4F8B831AA688B
S3150202314003F108011036C4F8B811C3E90062D4F8D3
S31502023150BC31013B002BC4F8BC3103DC2046D4F857
S31502023160C03198473846F8BD4FEA8C125A60D4F8F5
S31502023170BC31013B002BC4F8BC3120DD6A68D4F8AD
S31502023180B831920103F10801C4F8B8115A6006F186
S315020231900A021A60D4F8BC31013B002BC4F8BC31D6
S315020231A004DDAA68D4F8B8319201C9E7D4F8C0316D
S315020231B020469847AA68D4F8B8319201C0E7204659
S315020231C0D4F8C0319847D9E72046D4F8C031984797
S315020231D0B3E72046D4F8C03198479CE7002380EF34
S315020231E05060036080ED017F436170472DE9F04133
S315020231F01D464B7E0C46D9078046174682B011D52C
S31502023200E269D20706D5052D089E6CD9304602B070
S31502023210BDE8F081042D00F28480089A023522F478
S31502023220000208929E0738D4089EA37D990719D5F3
S31502023230627E520716D5E26CD00777D5052DE5D800
S3150202324006F080730193B7F9023000954046B7F94A
S31502023250002004F14C01FFF719FFA37D304301352B
S3150202326020F400065907D1D5637E1A07CED5636EBE
S31502023270DB0762D5052DC9D806F080730193B7F92B
S315020232800230B7F900204046009504F16401FFF7C7
S31502023290FDFE304320F40006B8E7636BD8071BD560
S315020232A0052D089EB2D806F080730193B7F9023053
S315020232B000954046B7F9002004F13401FFF7E6FE15
S315020232C0636B304320F4000613F0400F20F44000F3
S315020232D018BF06460135A8E7042D22D8089B0235F7
S315020232E023F40006A1E706F080730193B7F90230D0
S315020232F00095B7F9002004F11C01FFF7C7FEE36946
S31502023300013513F0400F089B40EA030020F4000245
S3150202331020F4400018BF0246637E08929E0783D5B8
S31502023320BBE7089E304602B0BDE8F081042D3FF6A7
S315020233306DAF26F40006023594E726F40003052D46
S3150202334038BF1E4662E700BF38B50546084604F096
S315020233506DFA0446B8B10122114604F0B5FA4201E9
S3150202336044BF012385F8C8318303C5F880000CD512
S31502023370312201212046EB6D04F08AFA204604F03E
S315020233806BFBC5F88400204638BDAB6E43F00103E1
S31502023390AB66EDE78C4613460121624604F078BA23
S315020233A010B5044600220121204604F08DFAC30715
S315020233B0F8D410BD38B5836E05468469D8070AD596
S315020233C001210022204604F07FFA8107F8D138BD96
S315020233D0AB6E9A0707D500220121204604F074FA41
S315020233E00307F5D4F3E7C8220421204604F0AEFA15
S315020233F0F1E700BF70B54C680B6B816E0546C907D3
S3150202340086690CD41A684AB190F9C91191B130464B
S31502023410BDE870403222012104F03ABA70BD5AB9AF
S31502023420002CFBD028466168FFF7C2F80328F5D0C4
S315020234302468F5E71346EAE71968BDE87040FFF724
S31502023440B7B800BF40EA500040EA900040EA1010C6
S3150202345040EA102040EA1040704700BF04F0D4BA96
S3150202346004F0E2BA2DE9F0410D4668B30646084673
S31502023470904604F0DBFA044648B386422F4602D24D
S315020234803846BDE8F081304604F0BEFA0746F0B18E
S31502023490B8F1000F12D0A40810D0A400A4F1040EB1
S315020234A04FEA9E0E0EF1010E02464EF001E02B1F6E
S315020234B053F8041F42F8041B0FF007C0284604F013
S315020234C0B3FA3846BDE8F081084604F0ADFA0027A1
S315020234D03846BDE8F08100BF38B504460D46FFF70F
S315020234E07FFDD4F88430DA0711D4DB0604D42846E9
S315020234F0BDE8384004F088BA2A460421044604F09C
S3150202350097FA01462046BDE8384004F0A9BA2A468F
S31502023510BDE83840042104F08BBA00BF38B505462F
S315020235200C46FFF75DFDD5F88430DA0711D4DB06C7
S315020235300AD52146054604F091FA04210246284696
S31502023540BDE8384004F084BA2046BDE8384004F0AB
S315020235506BBA2246BDE83840042104F079BA00BFAC
S315020235602DE9F0410D46C97D022901D0BDE8F0815F
S31502023570E96F0446D5E9206701F02000B5F990C04B
S31502023580B5F99210002B4DD1002800F09F8001FB65
S3150202359007F706FB0C77D5F8883003EB27132421AD
S315020235A0D4F8B8215B4202F10800C4F8B801C2E9B4
S315020235B00013D4F8BC31013B002BC4F8BC3103DC46
S315020235C02046D4F8C03198472522D4F8B831D5F826
S315020235D0801003F10800C4F8B801C3E90021D4F847
S315020235E0BC31013B002BC4F8BC3103DC2046D4F8C3
S315020235F0C03198472622D4F8B831D5F8841003F19F
S315020236000800C4F8B801C3E90021D4F8BC31013B71
S31502023610002BC4F8BC31A9DC2046D4F8C031BDE87F
S31502023620F0411847B2F900E0B2F90280B2F9063067
S31502023630002842D006FB0CF6A3EB08035B1A07FB33
S315020236401366D5F8882002EB26132421D4F8B82172
S315020236505B4202F10800C4F8B801C2E90013D4F8C9
S31502023660BC31013B002BC4F8BC3103DC2046D4F842
S31502023670C03198472522D4F8B831D5F8801003F123
S315020236800800C4F8B801C3E90021D4F8BC31013BF1
S31502023690002BC4F8BC3103DC2046D4F8C03198476B
S315020236A02621D5F88420D4F8B831524203F1080013
S315020236B0C4F8B801C3E90012A7E7CB1A07FB03F362
S315020236C0ACEB0E0E06FB0E331B11BEE7B2F902304D
S315020236D0B2F90020CB1A07FB03F3ACEB020C06FB92
S315020236E00C331B115BE700BFF8B5C668D6E90F3289
S315020236F09A4221D0D0F8C0712F4D0446AF423FD034
S31502023700FFF716F8E36FC3B12046FFF711F8F36B22
S31502023710C4F8BC31E26F6AB9E268516C1364C4F848
S31502023720B411936CC4F8B831D36CC4F8BC31136DBE
S31502023730C4F8C031F36B3364F8BDE368D4F8B4213C
S315020237405A64D4F8B8219A64D4F8BC21DA64D4F85B
S31502023750C0211A659A6BC4F8B421D3E90F10091A6B
S3150202376002EBC102C4F8B8211B6C2046C4E96F35CC
S31502023770FEF7DEFFF36BAF42C4F8BC31CAD1D9E71A
S31502023780D0F8BC313364736CC0F8B431B36CC0F890
S31502023790B831F36CC0F8BC31336DC0F8C031FEF7F4
S315020237A0C7FFE36F002BC8D02046FEF7C1FFF36BBB
S315020237B0C4F8BC31BEE700BFBD370202012270B5B2
S315020237C0C5680446D5E90E1630019640FFF74AFE51
S315020237D0C0B1D5E90F32F31A1A44C5E90F62A863DA
S315020237E083B1D4F8BC21E1681344C4F8BC318B6BB3
S315020237F0D4E96D02121A1344C4F8B8318B6BC4F8B9
S31502023800B43170BDE36F33B1E368D4F8B4211B6CF3
S31502023810C4E96E2370BD2046FFF766FFE368D4F85B
S31502023820B4211B6CC4E96E23F4E700BFF8B500B3FA
S31502023830022906460D4619D9022A174616D95820D2
S31502023840FFF70CFE0446B8B1002301462A4630466B
S31502023850A363FFF75FFAE8B1F36F8BB10023C4E902
S315020238600873636586F8C6312046F8BD0D2386F8CD
S31502023870C63100242046F8BD012386F8C631F8E790
S315020238804FF40070FFF7EAFDA06318B14023C4E9C2
S315020238900F33E3E70123204686F8C631FFF7E0FD40
S315020238A0E7E700BFF8B505460C46FEF741FFEB6FA8
S315020238B02BB1EE68A64202D0776D002F35D0002CCE
S315020238C031D000236365EC606B63626ACAB96369CD
S315020238D0F3B11B681E6821462846FFF7D1F9214635
S315020238E032462846FFF7E4F9A96E11F0200104D107
S315020238F03B2205F5BC7009F02DFC002085F8C601B5
S31502023900F8BD63622046FEF72DFE6369002BE0D105
S31502023910D5F88420636812F0120F02D01E69002EB7
S31502023920D9D15E68D7E7AC68CBE73046FEF7E4FD4D
S315020239303369094A31461A60336928465F60336938
S31502023940B2680433D36033693A4608333361B761E6
S31502023950FFF7E8F8B3E700BF328080802DE9F04135
S31502023960D0E90268C660736A044647686BBB0121E6
S31502023970736D716263B9436E082B29D0E36F13B973
S315020239802046FFF7B1FE012231462046FFF7CAF86A
S3150202399001230022736531462046FFF72BFD0023E1
S315020239A0736294F9C751C4F80C80A84684F8C731E9
S315020239B03946204684F8C651FFF774FFC4E9016707
S315020239C084F8C6514046BDE8F0811225A846EFE7C3
S315020239D0FFF708FBD2E700BF10B50446FFF74AFB22
S315020239E0002084F8C60110BDC36F03B17047C368D5
S315020239F0D0F8B41130B45964D0F8B8119A6B9964FC
S31502023A00D0F8BC11094CD964D0F8C0111965C0F8B6
S31502023A10B4211D6CD96B491B02EBC102C0F8B82155
S31502023A201B6CC0E96F3430BC704700BFBD3702025F
S31502023A30C36F7BB9C368D0F8BC115A6C1964C0F85B
S31502023A40B4219A6CC0F8B821DA6CC0F8BC211B6D9D
S31502023A50C0F8C031704700BFC36F03B17047FFF7AA
S31502023A6043BE00BF2DE9F041436B04468B420D462D
S31502023A7017D0656395F80E312A7E23F00103012AD7
S31502023A8085F80E3100F00A82D5F82461EB7D46F004
S31502023A908077032B09D8DFE813F027015E01A7011D
S31502023AA00A0091F80E31DE07E3D4BDE8F08195F8FB
S31502023AB00E31590700F11F821922D4F8B831D5F80E
S31502023AC0601103F10800C4F8B801C3E90021D4F871
S31502023AD0BC31013B002BC4F8BC3103DC2046D4F8CE
S31502023AE0C0319847287ED4F8B8310128D5F8642126
S31502023AF003F1080104D1E87C22F07F4242EA006225
S31502023B001A20C4F8B811C3E90002D4F8BC31013B49
S31502023B10002BC4F8BC3103DC2046D4F8C0319847E6
S31502023B20D5F83C3113F0807302D194F9C42132B133
S31502023B302046FEF729FFD5F83C3103F08073003B9D
S31502023B4018BF01232F21D4F8B82184F8C431D5F83D
S31502023B50F83002F10800C4F8B801C2E90013D4F839
S31502023B60BC31013B002BC4F8BC3103DC2046D4F83D
S31502023B70C03198472D22D4F8B831D5F8EC1003F1AA
S31502023B800800C4F8B801C3E90021D4F8BC31013BEC
S31502023B90002BC4F8BC3103DC2046D4F8C031984766
S31502023BA02E22D4F8B831D5F8381103F10800C4F838
S31502023BB0B801C3E90021D4F8BC31013B002BC4F899
S31502023BC0BC3103DC2046D4F8C03198473922D4F8F6
S31502023BD0B83195F80D1103F10800C4F8B801C3E92A
S31502023BE00021D4F8BC31013B002BC4F8BC3103DC02
S31502023BF02046D4F8C0319847D4F880309A024BD581
S31502023C00D5F8082113F0807F0CBF10274FF4807776
S31502023C10002A00F07E81A16B8A4200F074810123A0
S31502023C2085F80C3100223721D4F8B83103F10800A5
S31502023C30C4F8B801C3E90012D4F8BC31013B93427D
S31502023C40C4F8BC3103DC2046D4F8C03198470026BA
S31502023C504FF03808BF00D5F80821D4F8B831925986
S31502023C6003F10801C4F8B811C3E90082D4F8BC31E1
S31502023C70013B002BC4F8BC3103DC2046D4F8C03128
S31502023C8098470436BE42E6D10023D5F8082185F8C4
S31502023C900C31D4F88030A2639B01D5F8442103D5B6
S31502023CA0B2F1806F00F07B81D5F83411D5F8243158
S31502023CB0D5F83C010B43D5F8401143EA0205054308
S31502023CC0A26D0D43C54B45F002056A401340002B17
S31502023CD040F01581D4F8B831A56503F10801C4F89C
S31502023CE0B81101225D6027E0D5F84C11AA68D4F812
S31502023CF0B8310A43192103F10800C4F8B801C3E92D
S31502023D000012D4F8BC31013B002BC4F8BC3103DCEF
S31502023D102046D4F8C0319847A26DB04B7A40134080
S31502023D20002B40F0B7800122D4F8B831A76503F11F
S31502023D300801C4F8B8115F601A60D4F8BC31013BBD
S31502023D40002BC4F8BC313FF7B0AE2046D4F8C031DE
S31502023D50BDE8F0411847D5F84C11AA68D4F8B83133
S31502023D600A43192103F10800C4F8B801C3E9001293
S31502023D70D4F8BC31013B002BC4F8BC3103DC20462B
S31502023D80D4F8C0319847287ED4F8B8310128EA68B7
S31502023D9003F1080100F0A080D5F84C01C4F8B8116D
S31502023DA01A210243C3E90012D4F8BC31013B002BAB
S31502023DB0C4F8BC3103DC2046D4F8C0319847A26D60
S31502023DC046F08076854B46F4005672401340002B2D
S31502023DD040F08D80D4F8B831A66503F10801C4F823
S31502023DE0B81101225E60A7E795F80E3198077AD4D8
S31502023DF0A968D5F85021D4F8B8310A43192103F13A
S31502023E000800C4F8B801C3E90012D4F8BC31013B78
S31502023E10002BC4F8BC3103DC2046D4F8C0319847E3
S31502023E20E968D5F85421D4F8B8310A431A2103F1C4
S31502023E300800C4F8B801C3E90012D4F8BC31013B48
S31502023E40002BC4F8BC3103DC2046D4F8C0319847B3
S31502023E501D22D4F8B831D5F8141103F10800C4F8BA
S31502023E60B801C3E90021D4F8BC31013B002BC4F8E6
S31502023E70BC3103DC2046D4F8C0319847D5F830313C
S31502023E80A26D1F4347F00107544B7A401340002BA1
S31502023E903FF449AF2046FEF72DFD44E71A21D5F835
S31502023EA02431EA7C23F44003C5F82431D4F8B8312C
S31502023EB0120603F10800C4F8B801C3E90012D4F8E5
S31502023EC0BC31013B002BC4F8BC313FF7DDAD2046C5
S31502023ED0D4F8C0319847D7E5E87CC4F8B81142EA6B
S31502023EE000621A215EE72846FEF730F980E720468D
S31502023EF0FEF700FD6EE7284600F03AFADCE52046B8
S31502023F00FEF7F8FCE6E695F90C21002A7FF48AAE62
S31502023F10C2E6D5F80421002A3FF4BEAEA16B8A425C
S31502023F2056D0012385F80C3100223721D4F8B83154
S31502023F3003F10800C4F8B801C3E90012D4F8BC318F
S31502023F40013B9342C4F8BC3103DC2046D4F8C031AB
S31502023F50984700264FF03808BF00D5F80421D4F856
S31502023F60B831925903F10801C4F8B811C3E90082C3
S31502023F70D4F8BC31013B002BC4F8BC3103DC204629
S31502023F80D4F8C03198470436B742E6D10023D5F8B1
S31502023F90042185F80C31D4F88030A2637CE63A22F9
S31502023FA0D4F8B831D5F8481103F10800C4F8B801BB
S31502023FB0C3E90021D4F8BC31013B002BC4F8BC3161
S31502023FC003DC2046D4F8C0319847D5F844216BE683
S31502023FD095F90C21002AA7D15EE600BFC801F0308E
S31502023FE02DE9F0410F464FF01F0CB1F90450B0F81B
S31502023FF04010D0F8B83101EB0241B7F9002003F1C3
S31502024000080EB7F90660AD1AB7F90220C0F8B8E190
S31502024010C3E900C1D0F8BC31B61A013B2D113611E3
S31502024020002B044605F1010506F10106C0F8BC3172
S3150202403002DCD0F8C03198471E22D4F8B83105EB1B
S31502024040064503F10801C4F8B811C3E90025D4F8FC
S31502024050BC31013B002BC4F8BC3103DC2046D4F848
S31502024060C0319847636C022B38D0042B1ED0012B29
S315020240701AD12020B7F90220B7F90030216C1211A9
S315020240801B1101FB0233D4F8B821E16B02F10805D8
S315020240901944C4F8B851C2E90001D4F8BC31013B53
S315020240A0002BC4F8BC3113DDBDE8F081B7F902205A
S315020240B0B7F90030216C12111B1101FB0233D4F83D
S315020240C0B821E16B202002F1080501EB8301E0E74A
S315020240D02046D4F8C031BDE8F0411847B7F90220AC
S315020240E0B7F90030216C12111B1101FB0233D4F80D
S315020240F0B821E16B202002F1080501EB4301C8E772
S31502024100844610B54FF0000EDCF8244084B0A4F8C1
S31502024110A8100799A4F8AA2094F80E2100910899EA
S315020241207046CDE90113069B42F0110203939DEDFF
S31502024130007F099B84ED267FC4F8B0300A9B84F87F
S315020241400E21C4F8B4308CF8C6E104B010BD00BF2B
S3150202415003464FF0000C10B45C6A12030903C4E969
S315020241603F1294F80E21604642F0010284F80E21B3
S3150202417083F8C6C15DF8044B704700BF91F8E4307C
S3150202418010B5013B062B00F2ED80DFE803F00415C1
S315020241901B22282F35004FF07F434FF0FF0C1A46A1
S315020241A0604691F8E5E0BEF1070F77D8DFE80EF038
S315020241B02C837BB4AEA8A17291F8DC0003061A46E0
S315020241C08446EEE700234FF07F424FF0FF0C18467B
S315020241D0E7E700224FF07F43FF209446E1E7002300
S315020241E091F8DCC018464FEA0C62DAE7002291F82F
S315020241F0DC0094460306D4E791F8DC0091F8E0C0AD
S3150202420003064FEA0C62CCE74FF0000C604691F8C7
S31502024210E6E0BEF1070F5AD8DFE80EF00498908A5C
S3150202422084655E554FF0000C604691F8E7E0BEF1F8
S31502024230070F00F29380DFE80EF0072823201D19EC
S31502024240041291F8DF00034391F80E01C1F85831C6
S3150202425040F00403C1F85C2181F80E3110BD91F8D9
S31502024260DF4091F8E30023430243EDE791F8DF00D2
S315020242700243E9E743F0FF03E6E742F0FF02E3E720
S3150202428091F8DF0003430243DEE743F0FF0342F005
S31502024290FF02D9E791F8DD0091F8E1C043EA004353
S315020242A042EA0C42B3E791F8DD00844643EA004350
S315020242B042EA0042ABE74FF0FF0C43F47F0360464B
S315020242C042F47F02A3E791F8DE0091F8E2C043EAE4
S315020242D0002342EA0C22A8E791F8DE004FF0000C16
S315020242E043EA0023A1E791F8DEC0002042EA0C224B
S315020242F09BE791F8DD004FF0000C43EA004386E7A4
S3150202430091F8DDC0002042EA0C4280E74FF0000C31
S31502024310FF2043F47F037AE74FF0FF0C002042F4BA
S315020243207F0274E74FF0000CFF2043F47F437CE7E1
S315020243304FF0FF0C002042F47F4276E791F8DE004E
S31502024340844643EA002342EA00226EE74FF0FF0C5C
S3150202435043F47F43604642F47F4266E7034342EAFE
S315020243600C0271E700231A469C46184619E700BF5B
S315020243706FF07F43D0F84C1130B4D0E95654090A93
S315020243802A0E01FB023265F31702250E01FB0533E3
S3150202439090F80E1164F31703C0F8602121F00402AB
S315020243A0C0F8643180F80E2130BC704738B590F8F7
S315020243B0E8300546DA07D0F8F04011D49B07D5F863
S315020243C0F40004F1FF3415D4D5F8EC30013803FBBE
S315020243D000F0C4F30A0444EAC024C5F8384138BDE1
S315020243E0601EFFF72FF895F8E83004469B07D5F8CA
S315020243F0F400E9D50138FFF725F8D5F8EC30C4F315
S315020244000A0403FB00F0FFF71DF844EAC024C5F8CC
S31502024410384138BD70B500260546406A059CC0E99A
S315020244203B23049B24F0300CC0E93D3190F80E3157
S3150202443080F8EA6043F0010280F80E2114F01002BD
S3150202444003D0D5F880100E0259D514F0200403D0F9
S31502024450D5F88010890252D5ACF10D01022906D88F
S31502024460D5F88010CE0302D4C9B2092947D9BCF1C4
S31502024470420F49D8DFE81CF0D3001B018A006F0005
S31502024480A100B000A30041013F012F01280107014B
S31502024490F500E4001901C50048004800480048003A
S315020244A048004800480048004800480048004800C2
S315020244B048004800480048004800480048004800B2
S315020244C048004800480048004800480048004800A2
S315020244D04800480048004800480048004800480092
S315020244E04800480048004800480048004800480082
S315020244F048004800480048008A006F00A1000923CC
S3150202450085F8C631184670BD002A40F00481D0F8FB
S315020245102C61C0F83C21A4BB2246D0F8401121F0FE
S315020245200071C0F8401143F0110CD0E9473423431D
S315020245306C6D80F80EC12343D0F8444123430B43EA
S3150202454033431343C0F82431FFF730FF002385F8C3
S31502024550C631184670BD4FF440260221C0F82C61BE
S3150202456080F8E91080F8EB10002A75D04FF0010CA2
S315020245704FEA8C7C4CF08072C0F83C21002C00F091
S31502024580C880D0F8401141F00071CAE704214FF405
S315020245900026BCF1400F80F8E91080F8EB10C0F853
S315020245A02C6100F0C480A2B9C0F83C21002C00F0B4
S315020245B0C98000224FF40026E3E71026CDE7042144
S315020245C0624E80F8E910C0F82C6180F8EB10002ADE
S315020245D042D04FF0030CCBE7D5F8801089028ED574
S315020245E001215B4E80F8E910C0F82C6180F8EB10CD
S315020245F0002A00F099804FF080710A46C0F83C11F9
S31502024600BFE7012180F8E9104FF48471514EA0F8F8
S31502024610EA10C0F82C61FAB14FF0000CA8E70121AA
S31502024620002680F8E910C0F82C6180F8EB10002A07
S3150202463078D1C0F83C21002C40F0828026466BE7F6
S31502024640454E012180F8E9104FF48171C0F82C61C0
S31502024650A0F8EA10002ADFD1C0F83C21002C90D142
S315020246605AE7D5F8801089027FF549AF0121302633
S3150202467080F8E9104FF48471C0F82C61A0F8EA10B0
S31502024680002AC9D1E8E7D5F880108E027FF537AF46
S31502024690324E012180F8E9104FF48271C0F82C6182
S315020246A0A0F8EA10002AB7D1D6E72D4EF1E7022189
S315020246B04FF4802680F8E91080F8EB10C0F82C61DE
S315020246C0002A7FF455AFC7E7D5F8801089027FF535
S315020246D016AF244EB5E7D5F880108E027FF50FAFDE
S315020246E00121214E80F8E910C0F82C6180F8EB1006
S315020246F0002A91D1B0E720262FE702211B4E80F82D
S31502024700E910C0F82C6180F8EB10002A7FF42EAF74
S31502024710A2E7144600E790F8EBC0D0F82C610CF140
S31502024720FF3C25E7664623E7C0F83C2129E7032139
S3150202473080F8EB10002A3FF437AF4FF0020C17E76E
S3150202474016461EE700244FF40026E5E6100008008E
S315020247501000040030000C003000040020000C009F
S3150202476030000800200008002000040010000C009F
S3150202477010B50446406AC1F3800390F80E211B0469
S3150202478042F0010280F80E210A0748BF43F40033C1
S31502024790CA07C0F8343105D4D0F8343143F4804321
S315020247A0C0F834318B0705D4D0F8343143F40043D0
S315020247B0C0F8343101F00F0180F8E810FFF7F6FD78
S315020247C0002084F8C60110BD2DE9F04FCD7D81B0DF
S315020247D0032D02D001B0BDE8F08F0E46B2F90050A9
S315020247E0B1F9A810D6F8FC70491BD6F898500446BF
S315020247F005FB01FCD6F8B050B6F9AAB005FB01F1E9
S31502024800D6F8A050D6F89C8007EB050ED6F8A4700F
S31502024810D6F80051D6F8B4A005EB0709D0F8B8715C
S3150202482007F10805002B40F0C780B2F90230C0F842
S31502024830B851ABEB030308FB03CC0AFB0311242397
S31502024840AEEB2C157D603B60D0F8BC31A9EB21158D
S31502024850013B002BC0F8BC3102DCD0F8C0319847CC
S315020248602522D4F8B831D6F8981003F10800C4F814
S31502024870B801C3E90021D4F8BC31013B002BC4F8CC
S31502024880BC3103DC2046D4F8C03198472622D4F83C
S31502024890B831D6F89C1003F10800C4F8B801C3E98E
S315020248A00021D4F8BC31013B002BC4F8BC3103DC35
S315020248B02046D4F8C0319847D6F8EC102B1401FBE7
S315020248C003F32721D4F8B821D6F8B07002F1080012
S315020248D0D6F8B480C4F8B801C2E90013D4F8BC31E0
S315020248E0013B002BC4F8BC3103DC2046D4F8C031AC
S315020248F098472822D4F8B831ADB203F10801C4F8B8
S31502024900B811C3E90025D4F8BC31013B002BC4F827
S31502024910BC3103DC2046D4F8C03198472921D6F8A7
S31502024920EC303A1403FB02F2D4F8B83103F1080070
S31502024930C4F8B801C3E90012D4F8BC31013B002B1A
S31502024940C4F8BC3103DC2046D4F8C0319847D6F805
S31502024950EC304FEA284203FB02F2D4F8B83103F1F3
S315020249600801C4F8B8112A21C3E90012D4F8BC31ED
S31502024970013B002BC4F8BC3103DC2046D4F8C0311B
S3150202498098472B21D4F8B821BBB202F1080043EAB8
S315020249900843C4F8B801C2E90013D4F8BC31013B9A
S315020249A0002BC4F8BC313FF715AF2046D4F8C0310C
S315020249B001B0BDE8F04F1847B2F90630C0F8B85157
S315020249C0ABEB030508FB05C8AEEB28137B60242379
S315020249D03B60D0F8BC310AFB0515013B002BA9EB63
S315020249E02515C0F8BC3102DCD0F8C0319847252221
S315020249F0D4F8B831D6F8981003F10800C4F8B80111
S31502024A00C3E90021D4F8BC31013B002BC4F8BC3106
S31502024A1003DC2046D4F8C0319847D4F8B831D6F828
S31502024A209C2003F10801C4F8B81126215242C3E9B7
S31502024A300012D4F8BC31013B002BC4F8BC3103DCB2
S31502024A402046D4F8C0319847D6F8EC102B1401FB55
S31502024A5003F3D6E92C71C1F100082721D4F8B82153
S31502024A6002F10800C4F8B801C2E90013D4F8BC3155
S31502024A70013B002BC4F8BC3103DC2046D4F8C0311A
S31502024A8098472822D4F8B831ADB203F10801C4F826
S31502024A90B811C3E90025D4F8BC31013B002BC4F896
S31502024AA0BC3103DC2046D4F8C03198472921D6F816
S31502024AB0EC303A1403FB02F2D4F8B83103F10800DF
S31502024AC0C4F8B801C3E90012D4F8BC31013B002B89
S31502024AD0C4F8BC3103DC2046D4F8C0319847D6F874
S31502024AE0EC304FEA284203FB02F2D4F8B83103F162
S31502024AF00801C4F8B8112A21C3E90012D4F8BC315C
S31502024B00013B002BC4F8BC3103DC2046D4F8C03189
S31502024B1098472B22D4F8B831BFB203F1080147EA0B
S31502024B200847C4F8B811C3E9002736E7F0B5C66CE0
S31502024B30054637B2006DBDF914C09F42D8BF06F1D1
S31502024B40FF330FFA80FED8BF1BB2E645DCBF00F187
S31502024B50FF3C0FFA8CFC2CEAEC744FF0000C21EAB3
S31502024B60E1718F4222EAE272DCBF06F1FF3631B20E
S31502024B709645E646D8BF00F1FF3023EAE373D8BF73
S31502024B8002B209011B0160461201240185F8C6C15F
S31502024B9063F30F0E61F30F0C62F31F4C64F31F4EA5
S31502024BA0C5F872C0C5F876E0F0BD00BFF0B583B0B5
S31502024BB0DDE90856072E0446C0E91335C163866449
S31502024BC0026409DC002E10DB072E0ED8DFE806F09F
S31502024BD03C4136080D0D474C402E2FD0412E04D1B2
S31502024BE04FF44011022261656264E669BEB1D6F8EB
S31502024BF02C71D6F81C21606DD6F820113A43024375
S31502024C00D6F83C71D6F840010A433A43D6F8441123
S31502024C1002430A43C6F824213668002EE7D100224F
S31502024C20013D2DB2013B2046114600951BB2FFF70C
S31502024C307DFF002084F8C60103B0F0BD4FF40011D7
S31502024C40042261656264D0E7002101224165426461
S31502024C50CBE74FF48011022241654264C5E7042282
S31502024C60044942644165C0E702220349426441653E
S31502024C70BBE700BF0001200000013000B0F9762038
S31502024C80B1F900309A4227DBB1F90220B0F978C0B5
S31502024C90944521DB30B5B1F904E0B0F972C0E645BC
S31502024CA01CDBB1F90650B0F97440A54216DB634526
S31502024CB0BCBFA1F800C0B0F97440A242B8BF4C8092
S31502024CC0B0F976309E45C8BF8B80B0F978309D42E6
S31502024CD000DDCB80012030BD00207047002030BDB0
S31502024CE0704700BF2DE9F843089E082E42DC0024D5
S31502024CF08146154608464FF0FF32214698464FF046
S31502024D00FF37FFF7EDFF874274EB01012CD3D9F887
S31502024D100030002E1861D9F800301D6214DDA8F1A8
S31502024D200805A046F5E902012246FFF7D9FF8742A6
S31502024D3078EB010112D304F11002D9F800300134E2
S31502024D40A64243F83200EDD1D9F80020936803F067
S31502024D500C0343F001039360BDE8F883A421084BD8
S31502024D60084A094803F078FA9821084B054A064888
S31502024D7003F072FA9421064B024A034803F06CFAD4
S31502024D80D0E00202781503027CE00202B8E00202D7
S31502024D9054E00202704700BF0268936803F00C03F4
S31502024DA043F00203936003685A685107C2F3800014
S31502024DB012D45A68C2F30011D2060CD45A68C2F34C
S31502024DC0C010120606D45A68D20504D45868C0F333
S31502024DD040107047084670470020704710B40024FE
S31502024DE0D0E90112121BB1FA81F118BF01228446DF
S31502024DF0490942EA4102006862F30704C4601F4B92
S31502024E00DCF8001001E0013B02D04A681207FAD42C
S31502024E104B68C3F3C0001B0709D4DCF804304A6AA4
S31502024E20B3FA83F3C2F340025B09934204D04FF012
S31502024E30FF305DF8044B7047DCF808204B6A003AF3
S31502024E4018BF012203F001039A42F0D1022245F26F
S31502024E505354CA61DCF80020094BD463DCF8002003
S31502024E601364DCF800205364DCF800209364DCF857
S31502024E700020D3645DF8044B704700BFA086010090
S31502024E8000001F0F08B5C0E9001283608B6A1B0F70
S31502024E9001D0002008BDFFF7A1FFB0FA80F0400959
S31502024EA008BD00BF0068022A836803F00C0306D01D
S31502024EB0A2F10102B2FA82F2520962F3C303022991
S31502024EC006D0A1F10101B1FA81F1490961F3820326
S31502024ED083600020704700BF10B50068836A0468C9
S31502024EE08B422AD04FEA136C4B405FFA83FE1B07B2
S31502024EF04FEA11611DD18CEA01000F288CBF0020F6
S31502024F000120BEF1100F28BF00201CF0080F03D1AA
S31502024F1011F0080F18BF002082EA0403B3F1805F82
S31502024F2009D2C2F30752C4F30754A24288BF002031
S31502024F3010BD0020E5E7002010BD0120ECE700BF0E
S31502024F4000487047CCC109220020704700207047F2
S31502024F5008B5012008F006F808B10023037008BD5F
S31502024F6000E020BF0378002BFBD0013B0370002038
S31502024F70704700BF03780133037040BF00207047B9
S31502024F80704700BF704700BF437C012B0FD002233C
S31502024F9010B503740446FFF7FFFE034683F00103CE
S31502024FA05B00DBB2E06A6374FFF7E4FF10BD704791
S31502024FB02DE9F843234E0446376889461546984634
S31502024FC0002F38D0204F3B686BB3DDE908234FF040
S31502024FD0020C2563002549462046C4F8388084F827
S31502024FE041C084F842C06563E563FFF74BFFF8B13F
S31502024FF0FFF7AEFFE062D8B1306825616561A5614F
S31502025000E56125626562A562FFF79EFF0F4B306876
S315020250101A681C60E260FFF799FF3868FFF7AAFF79
S315020250202846BDE8F883FFF793FF38600028CCD103
S315020250304FF0FF30F5E7FFF783FF30600028C1D15A
S31502025040F6E700BFD4C10922D0C10922D8C109227A
S3150202505038B5037C0446012BD8B20ED002280ED0F4
S31502025060002853D000234FF0FF3023616361A3610E
S31502025070E36123626362A36238BD0029FCD0626ADD
S31502025080002A15DD002502E00135954210DA94F870
S3150202509042302B41DB07F7D5D4E9073252F8251005
S315020250A053F8350000F0D0F9626A01359542EEDB1B
S315020250B04FF0FF324FF0FF33E06AFFF751FF00284D
S315020250C027DB2046A16AFFF75DFFE36B3BB1013B9B
S315020250D0E36323B9012220461146FFF7E3FE637C0E
S315020250E003F0FF0083B1637C022B20D02046FFF738
S315020250F075FE38B9E26B2046B2FA82F252091146BD
S31502025100FFF7D0FE4FF0FF300023AEE76FF001004B
S3150202511038BD01216174237C022BD2D14FF0FF32BA
S315020251204FF0FF33E06A6174FFF71AFFC9E72046C0
S31502025130FFF730FEDAE700BF2DE9F04782B0DDE97C
S315020251400A7C002900F0A980002B00F0B480002F0F
S3150202515000F0AA800446007C01EB020800F0FF057B
S3150202516000284BD10C98C4E90512C4E90737257405
S31502025170C4F824C0A062534D0868A84236D112F080
S31502025180030633D10D1DD4E90C1251EA020069D18C
S31502025190A8450FD92B78022B10D0052B34D0012B20
S315020251A024D1D5E901122046FFF796FEF0B10C355D
S315020251B0A845EFD8304602B0BDE8F0876B786F8813
S315020251C005F1040947EA034719F00F0A4FEA87076E
S315020251D00CD1606A002830DDE2690346083A01E032
S315020251E0013B20D052F8081F0907F9D00023236198
S315020251F06361A361E36123626362A3624FF0FF36D6
S31502025200304602B0BDE8F0870435C1E7236A53F897
S315020252102A10E36953F83A0000F014F9606A0AF1B7
S31502025220010A824509DA94F8413043FA0AF3DB07A6
S31502025230ECD40AF1010A8245F5DBE36B5A1CE263FE
S31502025240D3B101232046A16A2374FFF799FE636A4A
S315020252503A46009349462046E3690437FFF742FD80
S315020252603D4495E7BCF1020F92DDBF68A06B87420F
S31502025270BCD8C3E904128BE72046FFF7AFFD40B95B
S31502025280E26B2046B2FA82F252091146FFF70AFE91
S31502025290D7E7E36B013BE363A8E740F282210A4BBD
S315020252A00A4A0B4802F0D8FF4FF42171094B074A0A
S315020252B0074802F0D1FF40F28321074B034A044812
S315020252C002F0CAFF434F503128E102029815030247
S315020252D0F4E0020254E1020240E1020210B584B095
S315020252E0069C0094079C0194089C02940446FFF7CC
S315020252F023FF002806DB0121204604B0BDE8104048
S31502025300FFF7A6BE4FF0FF3004B010BD70B50546DA
S3150202531082B00C46EFF31086012181F310882C4BE2
S315020253201A6822F480321A601B681E2002F09EFF5F
S3150202533086F310880023AA68A17B1068627BCDE9F6
S3150202534000211A462349FFF733FE00283CD1A368FF
S3150202535094F90C201B01002ADBB22FDB02F1604119
S3150202536001F5614181F800331B491C4B41F8225079
S3150202537002F5C65153F8210020F4803043F8210089
S3150202538053F82130BFF35F8F012153099B0002F0CC
S315020253901F0203F1604303F5614301FA02F2C3F805
S315020253A080211A60002318466C6022680C49EA6062
S315020253B0626829606A612B6102B070BD094902F016
S315020253C00F0001440B76CFE7032002B070BD00BF87
S315020253D0003020400000144058C2092200600040FA
S315020253E054454D52FCEC00E030B583B0EFF3038333
S315020253F0124A103B5CB252F82450AB681868FFF7A7
S31502025400C3FDEB685BB12869B0B1036801936B69AE
S315020254100360EB6898472B690BB1019A1A60084A36
S3150202542004F5C65352F8231021F4803142F82310B0
S3150202543052F8233003B030BD01A8E8E758C2092268
S3150202544000600040704700BF704700BF43685A6958
S3150202545092F828301BB11B4B196359639963194B96
S31502025460196841F4800119601968C1F380511968FB
S31502025470C1F380511968C1F380511968C1F3805191
S315020254801968C1F380511968C1F380511968C1F3D1
S3150202549080511968C1F380511968C1F380511968A4
S315020254A0C1F38051916CC3F88410196841F001016D
S315020254B01960996841F00201996013689A6818683E
S315020254C09368184700743440F0B58BB0EFF3038249
S315020254D000242A492A4B103A52B24E6853F82250F5
