S016000074726F6E5F6D6970695F746573742E737265631E
S31502000000008500229D6D0002756B0002996D00024B
S31502000010996D0002996D0002996D0002996D0002B8
S31502000020000000000000000000000000996D0002C0
S31502000030996D000200000000996D0002996D0002A0
S31502000040554E0002E94F00020D510002F151000225
S315020000503560000229620002314000023940000286
S31502000060D54500022D460002C9460002214700027C
S3090200007079470002C2
S3150200007401010100000000000103000005990002CD
S315020000840A00000000040000000000000000000056
S31502000094010300001D9900020A000000008000000E
S315020000A4000000003800002200000000300C0A2282
S315020000B4980C0A22000D0A2200000000000000002B
S315020000C40000000000000000000000000000000024
S315020000D40000000000000000000000000000000014
S315020000E40000000000000000000000000000000004
S309020000F40000000000
S315020000F80348044B834202D0034B03B118477047A7
S31502000108840000228400002200000000064B0749F2
S31502000118C91A891048BF0131491003D0044B0BB1E3
S3150200012801481847704700BF840000228400002255
S315020001380000000010B5064C237843B9FFF7D8FF34
S31502000148044B13B10448AFF300800123237010BD9A
S3150200015858B107220000000028F1C90208B5054B6C
S315020001681BB105490548AFF30080BDE80840FFF713
S31502000178CDBF00BF000000005CB1072228F1C9020A
S3150200018807F0BEB8022800D0704708B54FF47A7156
S31502000198C82006F0A7FC0449044804F0F7FBBDE8AA
S315020001A80840012006F08CBD84A5000274B107221E
S315020001B808B5FFF7E5FF002008BD00BF30B4039D70
S315020001C88446E80625F0300403D5DCF880000002F0
S315020001D81BD5A80603D5DCF88000800215D50D3C90
S315020001E8022C0BD9DCF824400020C4F87031029B9B
S315020001F8C4E95A12C4E95D3530BC7047DCF88000A0
S31502000208C403EFD4C0B20928ECD809238CF8C63146
S31502000218184630BC704700BF2DE9F04F9A4689460A
S3150200022891B0BDF96C401F9E0894BDF9704026F046
S31502000238080C0994BDF9744051440A94BDF97840F2
S3150200024890460B94446ABDF868B0D4F86C31056BD5
S31502000258B3F5006FA8BF6646D4E95C239142A2EBC8
S315020002680A02D8BF4A460D92D4F87821074602F008
S31502000278100207920BEB08029A42A3EB0B03D8BFB4
S3150200028843460E93E37D25B116F480720C9200F074
S3150200029803810C930321384600F07EFE002238467D
S315020002A8114602F04DFF079B002B00F05681D4F849
S315020002B8683106F00F0138460D9303F051FAD4E976
S315020002C85B23D4F878010D990190D4F87401009053
S315020002D8384603F097F8B30600F1C9804FF07F431A
S315020002E81A46F00606F0400140F1CE80A0680029C1
S315020002F800F06B81E16802430B43C4E9562394F884
S315020003080E3143F0050384F80E31BDF82030102B68
S3150200031840F24D814FEA0951B1FBF3FE099A4FEAC1
S315020003286E03102A40F34A814FEA0850B0FBF2F0F6
S315020003384210B10544BFC3EB0943CEF1000E710565
S3150200034848BFC2EB0842A3F5004C48BF4042079992
S3150200035816F0040F18BF634616F0080FA2F5004CF4
S3150200036818BF624619B103EB0A4302EB0B424FF080
S31502000378000CDDF82C90DDF82880CDE9002E4146E8
S315020003884A460490CDE902CC384602F0B1FE0998F5
S315020003984B4601900898424600902146384600F09E
S315020003A83BFD002D00F0D480F30500F1D1802B78B7
S315020003B8E375AB7884F80E316B7884F8D5306B68C0
S315020003C8C4F8FC30AB68C4F80031EB68C4F82C31C9
S315020003D895F8293084F8E9302B69C4F838316B6905
S315020003E8C4F8343195F8283084F8E830AB69C4F893
S315020003F8EC30EB69C4F8F0302B6AC4F8F4306B6A57
S31502000408C4F8F83095F82A3084F8EA3095F82B3093
S3150200041884F8EB30EB6AC4F83C312B6BC4F84031F4
S315020004286B6BC4F82431AB6BC4F85831EB6BC4F868
S315020004385C31B5F95430A4F8A830B5F95630A4F8A9
S31502000448AA30EB6CC4F8A0302B6DC4F8A4306B6CE0
S31502000458C4F89830AB6CC4F89C30EB6DC4F8B03075
S315020004682B6EC4F8B430002011B0BDE8F08F16F038
S31502000478800200F0A780F0064FF000034FF07F429B
S3150200048806F040013FF532AF002900F0A080A168CE
S315020004980A43E1680B4330E72B7094F80E31AB70D0
S315020004A894F8D5306B70D4F8FC306B60D4F8003110
S315020004B8AB60D4F82C31EB6094F8E93085F8293032
S315020004C8D4F838312B61D4F834316B6194F8E830BA
S315020004D885F82830D4F8EC30AB61D4F8F030EB610B
S315020004E8D4F8F4302B62D4F8F8306B6294F8EA3018
S315020004F885F82A3094F8EB3085F82B30D4F83C315D
S31502000508EB62D4F840312B63D4F824316B63D4F808
S315020005185831AB63D4F85C31EB63B4F9A830A5F86B
S315020005285430B4F9AA30A5F85630D4F8A030EB64A2
S31502000538D4F8A4302B65D4F898306B64D4F89C3080
S31502000548AB64D4F8B030EB65D4F8B4302B66A1E6C8
S3150200055838460C9900F020FD85E7D4F8783123F067
S315020005683003422B36D8DFE803F052616A616148EC
S315020005786A616152525252525252353535353535C3
S31502000588353535353535353535353535353535350B
S3150200059835353535353535353535353535353535FB
S315020005A8353535353535353535356A616100099A5A
S315020005B80023102A4FF4803E3FF7B6AE00224FF4CE
S315020005C88030B6E64FF07F438BE6034395E663F049
S315020005D87F4392E6384606F00F0103F0C1F800227F
S315020005E8D4F878011146D4F86C2101900E980D9B27
S315020005F80090384602F006FF6DE6D7F880309A0278
S3150200060826D5012384F8E930144BC4F82C31D4F8E2
S315020006186C31D4F8682103FB0BA31A44384606F05A
S315020006280F010F9203F09CF80F9AD9E7D4F86C31B0
S31502000638D4F8682103FB0BA302EB4302EEE7D4F8D6
S315020006486C31D4F8682103FB0BA302EB8302E5E7BE
S315020006580923184687F8C63106E700BF10000400CA
S315020006682DE9F04F85B0BDF93860BDF93CC056B3E7
S31502000678BCF1000F27DD98460023A2F1100722F0ED
S315020006880F0B91461A463744A8F110066644BFB2C4
S31502000698B6B207F10F0E2EF00F0E06F10F0C2CF064
S315020006A80F0C28F00F0A6BF30F036EF30F020D46B9
S315020006B86AF31F436CF31F4202A90446029303928C
S315020006C803F0D4FA18B9002005B0BDE8F08F204629
S315020006D8294602F0BFF995F8D5303FB2980736B2E7
S315020006E833D4D90700F14A8100232946204602AAB3
S315020006F8009301F073FD064600232946204602AA06
S3150200070801F026FF0023294602AA204603F054F8E0
S315020007180022D4F8B83103F10801C4F8B811C3E9C4
S315020007280026D4F8BC31013B9342C4F8BC3103DC41
S315020007382046D4F8C03198472046002202A902F082
S3150200074847FC012005B0BDE8F08FDA0700F11681F3
S3150200075849EA070348EA06021B0702F00F0200F0FD
S31502000768C982BDF90830D4F8B811A3EB09031B03F3
S3150200077803F5803301F10800C4F8B8014B6004237D
S315020007880B60D4F8BC31013BC4F8BC31002A00F036
S315020007980582002B03DC2046D4F8C03198470A218B
S315020007A84FF48032D4F8B83103F10800C4F8B8011E
S315020007B8C3E90012D4F8BC31013B002BC4F8BC31A2
S315020007C803DC2046D4F8C031984700221021D4F819
S315020007D8B83103F10800C4F8B801C3E90012D4F825
S315020007E8BC31013B9342C4F8BC3103DC2046D4F841
S315020007F8C03198470521BDF90830D4F8B821FF1A47
S315020008083B0303F5803302F10800C4F8B801C2E9D4
S315020008180013D4F8BC31013B002BC4F8BC3103DC0D
S315020008282046D4F8C03198470B22D4F8B831DA49B1
S3150200083803F10800C4F8B801C3E90021D4F8BC31B1
S31502000848013B002BC4F8BC3103DC2046D4F8C03186
S31502000858984700221121D4F8B83103F10800C4F8E8
S31502000868B801C3E90012D4F8BC31013B9342C4F87B
S31502000878BC3103DC2046D4F8C03198470621BDF9BD
S315020008880A30D4F8B821A3EB08031B0303F5803317
S3150200089802F10800C4F8B801C2E90013D4F8BC3161
S315020008A8013B002BC4F8BC3103DC2046D4F8C03126
S315020008B89847D4F8B831002103F10802C4F8B821E0
S315020008C80C22C3E90021D4F8BC31013B8B42C4F89F
S315020008D8BC3103DC2046D4F8C0319847D4F8B83185
S315020008E84FF4803103F10802C4F8B8211222C3E991
S315020008F80021D4F8BC31013B002BC4F8BC3103DC1F
S315020009082046D4F8C03198470721BDF90A30D4F8F1
S31502000918B821F61A330303F5803302F10800C4F846
S31502000928B801C2E90013D4F8BC31013B002BC4F864
S31502000938BC3103DC2046D4F8C031984700220D2189
S31502000948D4F8B83103F10800C4F8B801C3E90012B3
S31502000958D4F8BC31013B9342C4F8BC3103DC2046CF
S31502000968D4F8C03198471322D4F8B83103F10801F4
S31502000978C4F8B8118849C3E90021F7E00421BDF992
S315020009880830D5F81021A3EB090302FB03F302EBA7
S315020009981312D4F8B83103F10800C4F8B801C3E950
S315020009A80012D4F8BC31013B002BC4F8BC3140F329
S315020009B87E810A22D4F8B831D5F8101103F108005D
S315020009C8C4F8B801C3E90021D4F8BC31013B002BB5
S315020009D8C4F8BC3140F3898100221021D4F8B83119
S315020009E803F10800C4F8B801C3E90012D4F8BC310F
S315020009F8013B9342C4F8BC3140F372810521BDF92B
S31502000A080830D5F81021FB1A02FB03F302EB131286
S31502000A18D4F8B83103F10800C4F8B801C3E90012E2
S31502000A28D4F8BC31013B002BC4F8BC3140F35381E6
S31502000A380B21D5F810315A42D4F8B83103F108001F
S31502000A48C4F8B801C3E90012D4F8BC31013B002B43
S31502000A58C4F8BC3140F33A8100221121D4F8B831E6
S31502000A6803F10800C4F8B801C3E90012D4F8BC318E
S31502000A78013B9342C4F8BC3140F30F810621BDF90C
S31502000A880A30D5F81021A3EB080302FB03F302EBA5
S31502000A981312D4F8B83103F10800C4F8B801C3E94F
S31502000AA80012D4F8BC31013B002BC4F8BC3140F328
S31502000AB8EF80D4F8B831002103F10802C4F8B8214E
S31502000AC80C22C3E90021D4F8BC31013B8B42C4F89D
S31502000AD8BC3140F3E7801222D4F8B831D5F81011A8
S31502000AE803F10800C4F8B801C3E90021D4F8BC31FF
S31502000AF8013B002BC4F8BC3140F3C580BDF90A306E
S31502000B08D5F81021F31A02FB03F302EB131207239B
S31502000B18D4F8B81101F10800C4F8B801C1E90032E5
S31502000B28D4F8BC31013B002BC4F8BC3140F3C98070
S31502000B3800220D21D4F8B83103F10800C4F8B8012F
S31502000B48C3E90012D4F8BC31013B9342C4F8BC3164
S31502000B5840F3B280D4F8B831D5F8102103F1080170
S31502000B68C4F8B81113215242C3E90012D4F8BC31B1
S31502000B78013B002BC4F8BC3103DC2046D4F8C03153
S31502000B8898470F26042300962946204602AA01F012
S31502000B9825FB0646B0E500BF0000FFFF002B03DC7D
S31502000BA82046D4F8C0319847D4F8B8314FF480318A
S31502000BB803F10802C4F8B8210A22C3E90021D4F8CD
S31502000BC8BC31013B002BC4F8BC3103DC2046D4F807
S31502000BD8C0319847D4F8B831002103F10802C4F8A5
S31502000BE8B8211022C3E90021D4F8BC31013B8B425B
S31502000BF8C4F8BC3103DC2046D4F8C0319847052135
S31502000C08BDF90830D4F8B821FB1A1B0303F5803363
S31502000C1802F10800C4F8B801C2E90013D4F8BC31DD
S31502000C28013B002BC4F8BC3103DC2046D4F8C031A2
S31502000C3898470B22D4F8B83103F10801C4F8B81161
S31502000C487449C3E90021D4F8BC31013B002BC4F82E
S31502000C58BC3103DC2046D4F8C03198470022112162
S31502000C68D4F8B83103F10800C4F8B801C3E9001290
S31502000C78D4F8BC31013B9342C4F8BC3140F3C4807A
S31502000C88032602237FE72046D4F8C031984735E782
S31502000C982046D4F8C03198470BE72046D4F8C0312D
S31502000CA89847EBE62046D4F8C031984713E7204622
S31502000CB8D4F8C03198477CE62046D4F8C031984724
S31502000CC848E72046D4F8C031984731E72046D4F899
S31502000CD8C0319847C0E62046D4F8C0319847A7E6FF
S31502000CE82046D4F8C031984788E62046D4F8C03161
S31502000CF8984771E6002A3FF4F7AC0421BDF90A3099
S31502000D08D4F8B821A3EB08031B0303F5803302F1D9
S31502000D180800C4F8B801C2E90013D4F8BC31013B93
S31502000D28002BC4F8BC3103DC2046D4F8C0319847FE
S31502000D38D4F8B831002103F10802C4F8B8210A220E
S31502000D48C3E90021D4F8BC31013B8B42C4F8BC315B
S31502000D5803DC2046D4F8C0319847D4F8B8314FF4AA
S31502000D68803103F10802C4F8B8211022C3E9002130
S31502000D78D4F8BC31013B002BC4F8BC3103DC204655
S31502000D88D4F8C03198470521BDF90A30D4F8B821FC
S31502000D98F31A1B0303F5803302F10800C4F8B801FD
S31502000DA8C2E90013D4F8BC31013B002BC4F8BC31AC
S31502000DB803DC2046D4F8C031984700220B21D4F828
S31502000DC8B83103F10800C4F8B801C3E90012D4F82F
S31502000DD8BC31013B9342C4F8BC3103DC2046D4F84B
S31502000DE8C03198471122D4F8B83103F10801C4F882
S31502000DF8B8110849C3E90021D4F8BC31013B002BDC
S31502000E08C4F8BC313FF73CAF2046D4F8C031984706
S31502000E1836E700BF0000FFFF30B4BDF90850BDF940
S31502000E280C40CDE9025430BCFFF71ABC00000000A2
S31502000E382DE9F04106464FF4BE7001F007FB044661
S31502000E48002800F096806FF07F424FF07F4346609D
S31502000E58C4E902224FF4B05200254FF48031C4E9A6
S31502000E685333C4F854314FF0FF3702201023C4F825
S31502000E781C214FF47032C4F8101184F8D50027618A
S31502000E88C4F8285184F80E51A382D6F88030C4F8E3
S31502000E983421042284F8E9204FF4002213F0006F6B
S31502000EA83B4B08BF4FF480039FED356B9FED367BB6
S31502000EB840F2011E4FF0400CC4F82C214FF0AA084C
S31502000EC80122C4E94F55C4F82031C4F84451706D63
S31502000ED884ED317F034343F4012343F4C063C4E939
S31502000EE84581C4F82431C4F83011C4F8162084F8B0
S31502000EF8D420A4F8D6E0C4F8D8C004F11C0084F8BB
S31502000F080F51C4E93F55A4F80C21C4E94155C4F868
S31502000F18485101F05BF904F1340001F057F904F184
S31502000F284C0001F053F904F1640001F04FF904F1A1
S31502000F387C0001F04BF904F1940001F047F904F141
S31502000F48AC0001F043F90C22124B3046C4F8E430E7
S31502000F582146C4E93757C4F8387184F8E82002F004
S31502000F6805F9F36920462360F46186F8C651BDE89F
S31502000F78F081012586F8C6512046BDE8F08100BFFA
S31502000F88AA00000004000000000000001000000093
S31502000F980800402001030303436A024693F80E0140
S31502000FA8022940F00100D97583F80E0116D009D836
S31502000FB893F8D51021F00C0183F8D510002082F899
S31502000FC8C60170470329F9D1002093F8D51041F0DC
S31502000FD80C0183F8D51082F8C6017047002093F8F1
S31502000FE8D51021F0080141F0040183F8D51082F8E2
S31502000FF8C601704700B5436A024693F812C093F8D1
S315020010080E018C4540F0010E18BF40F0070083F828
S315020010180EE118BF83F80E01987D9974C0074FF048
S31502001028000044BF0906C3F84C1182F8C6015DF8F0
S3150200103804FB00BF00B5436A024693F816C093F84C
S315020010480E018C4540F0010E18BF40F00700997555
S3150200105883F80EE118BF83F80E01C90758BF4FF08F
S315020010687F414FF0000044BF997C0906C3F84C1132
S3150200107882F8C6015DF804FB10B4446A032994F8A1
S315020010880E31844643F0010384F80E3127D81A4BF1
S3150200109853F82110032A22D8DFE802F02B0402288B
S315020010A841F480610022D4F82001D4F82C31C4F826
S315020010B81C110343DCF854000343D4F83C010343F0
S315020010C8D4F840010343D4F8440103430B43C4F85C
S315020010D824318CF8C62110465DF8044B704710225D
S315020010E88CF8C62110465DF8044B704741F4A051AE
S315020010F8D8E741F48051D5E764A8000230B4426AC1
S31502001108034692F8D50059B1002440F002010020A6
S31502001118C2F8284182F8D51083F8C60130BC704758
S315020011284FF480354FF0100C4FF4FC4400F0FC01EC
S31502001138C2F81051A2F814C0E9E700BF6FF07F4366
S31502001148D0F84C11027C90F811C0090A01FB023250
S3150200115801FB0C3390F80E1102F07F4203F07F4335
S3150200116821F00201C0E9542380F80E11704700BF2E
S31502001178F8B5064614200D46B76901F067F9002846
S3150200118835D000238560C360B36E044605EB85053A
S31502001198D8074FEA850113D5084601F057F960606A
S315020011A810B300232361B36ED90705D4D6F8843069
S315020011B8DA0613D49B0707D4002323602046F8BD1A
S315020011C8304601F081F9EAE7A268042102EB8202BD
S315020011D83846920005F06EF82061EDE7014638467A
S315020011E805F07EF82061E7E7204601F031F9002490
S315020011F8E4E700BFF8B5876911B306460C460CE06A
S31502001208304601F083F92A691AB1D6F884309B0769
S315020012180DD4284601F01CF994B12546B36E24680C
S31502001228DA076968ECD5084601F012F9EBE73846A1
S31502001238042105F04FF8284601F00AF9002CECD1F2
S31502001248F8BD00BF10B583680446186838B1002295
S315020012584368C26023618368A060E36110BD216AA6
S315020012682068FFF785FF10B1A3681860EFE715221B
S31502001278236883F8C72110BD2DE9F0414569044664
S3150200128882B0002D3CD0C169AB69002933D102680E
S31502001298012BD2F8188040F2978086682F69B268C7
S315020012A8736802EB820203EB820307EB8207F2689A
S315020012B800690AB11760F160834207D91A1A013A1E
S315020012C822F003028021043208F0FAFED6E901234D
S315020012D8102603EB830329699B004046009605F016
S315020012E803F8AB692F61013BAB61204602B0BDE84A
S315020012F8F041FFF7A7BF012B23D002B0BDE8F0816A
S3150200130840F2FF310369774A1A6003695D6006692C
S315020013188368321DDA600369996003F10C02C369B6
S315020013280261013BC0E90653FFF78CFF236893F974
S31502001338C731002B7DD1A3685B68736002B0BDE834
S31502001348F081E96902680129D2F8188041D9EE6864
S315020013580139A768E9617068002800F0AE80FB6869
S31502001368002B55D018600023FB60A2692369032A63
S315020013780FD8DFE802F05840023340F2FF311A88EC
S31502001388D96042F0004242F400021A6003F11002E8
S31502001398226100211027E369A268013BE361A1618A
S315020013A8D2E9012303EB830329699B004046009790
S315020013B804F09AFF7368002B97D0331DEB607268AE
S315020013C86B692A61AB6190E7E9690129BFD88CD1BB
S315020013D8012B04BF152382F8C73186E71A6822F063
S315020013E87F4242F000421A6040F2FF321A612369D4
S315020013F814332361CDE740F2FF311A78996042F03F
S31502001408802242F400021A6003F10C022261C0E74C
S315020014182369344A1A60236958602369A268043327
S31502001428D3602369083340F2FF3243F8042B236161
S31502001438AFE72369A269A3F10C012161032A11D836
S31502001448DFE802F0162D1E0240F2FF3153F80C2C8B
S31502001458596022F07F4242F0004243F80C2C23697D
S31502001468143323610022E369013BC4E9062344E7F6
S3150200147840F2FF31A3F1080243F80C1C2261F1E79E
S31502001488194640F2FF3033F80C2C42F0004242F47F
S31502001498000243F80C2C41F8040B2161E2E740F202
S315020014A8FF3113F80C2C43F8041C42F0802242F454
S315020014B8000243F80C2C2361D4E7AA68042102EB44
S315020014C882024046920004F0F5FE706000287FF41E
S315020014D846AF0122236883F8C721706800283FF4C3
S315020014E844AF3CE73280808083690269032B0CD8BB
S315020014F8DFE803F0100220111146137843F0802327
S3150200150843F4000341F8083B01610022C369013B29
S31502001518C0E90623704711461368002223F07F4369
S3150200152843F0004341F8103BC3690161013BC0E93E
S315020015380623EFE711461388002243F0004343F4DB
S31502001548000341F80C3BC3690161013BC0E906236C
S31502001558E0E700BF10B504460068816E11F020016D
S3150200156804D13B2200F5BC7008F0AAFD63686269E3
S31502001578C4E9023362B11368D36063691A681268F0
S315020015881A6163695A68DA6163695A699A616368B2
S315020015980022596821619B68E262C4E9062310BDEC
S315020015A82DE9F0474FF000080D4686692C6814F0BD
S315020015B8803F14D0B4F1803F3DD02204E7B23CD537
S315020015C8322F00F09680394630466A6800F0DAFE15
S315020015D8202F65D0AC68083514F0803FEAD15FFA4F
S315020015E884FA514630466A6800F0CCFEBAF1200FFA
S315020015F8C4F30729C4F307474FEA14644CD0494693
S315020016083046AA6800F0BEFEB9F1200F40D039462E
S315020016183046EA6800F0B6FE202F35D0214630461D
S315020016282A6900F0AFFE202C2AD01435BEE7002C1A
S3150200163842DBFF2F17D00435B8E72302F7D5FF2F71
S31502001648C4F3072430D0394630466A6800F09AFE59
S31502001658202F55D021463046AA6800F093FE202C4A
S315020016684AD00C35A2E7C4F30728B8F1020F02D014
S31502001678B8F1040F3DD13046043500F089FE95E7EE
S31502001688304600F085FED0E7304600F081FEC5E719
S31502001698304600F07DFEBAE7304600F079FEAEE746
S315020016A8304600F075FE95E7022C21D1304600F04F
S315020016B86FFEA046043579E7394630466A6800F077
S315020016C861FE202FC4F30729C4F3074424D04946F0
S315020016D83046AA6800F056FEB9F1200F18D0214606
S315020016E83046EA6800F04EFE202C0DD010355DE734
S315020016F8A0464046BDE8F087304600F049FEB0E70E
S31502001708304600F045FEA5E7304600F041FEEDE71B
S31502001718304600F03DFEE2E7304600F039FED6E7F5
S315020017282DE9F04F876EC468D0E96D5117F020078E
S31502001738A1EB050881462268A66983B04FEAE80844
S3150200174851D1A942236945D002F5BC718946DFF811
S3150200175890A1083502F18C0B019005E00137B845D6
S3150200176805F1080534D9226892F9C72103EB860EDA
S31502001778701C6ABB55E9022C1AF8021061B119F9F4
S31502001788021019B15BF822106145E7D04FF001014A
S3150200179809F802104BF822C09A55CEF804C0E26A3C
S315020017A810F0030602F10102E262D7D1E269236967
S315020017B8013A1433012A2361E261CFD82046A66191
S315020017C80137FFF759FDB845236905F10805CAD857
S315020017D8DDF80490A6614023D9F8B421C9E96E233D
S315020017E803B0BDE8F08FE36A4344E36292F9C73176
S315020017F8002BF0D126B32069B8F1000FEBD0424690
S3150200180805F1080301E0083386B153E90217013AE4
S31502001818815500EB860106F101061D464F6006F06A
S31502001828030608F1FF38EED1002ED4D1002223692F
S3150200183814332361E369013B012BC4E906234BD91F
S315020018485FEA98074FF0000605D125E00136BE4249
S3150200185805F1200520D0236893F9C731E3B92A6830
S3150200186823691A70AA685A702A699A70AA69DA707C
S315020018786A685A60EA689A606A69DA60EA691A61A5
S31502001888E3692269013B1432012B2261E361DDD847
S315020018982046FFF7F1FCD9E718F003089BD008F1B8
S315020018A8010805F1080305EBC805AC460EE0A16977
S315020018B8206953E902574A1C083300EB810602F0F5
S315020018C80302634545547760A26184D0226892F97F
S315020018D8C721002AEBD07EE72046FFF7CDFCAFE70B
S315020018E878A8000238B50446FFF71AFFE06882694D
S315020018F80369032A0FD8DFE802F03326021940F2F9
S31502001908FF451A8803F1100142F0004242F4000230
S315020019181A60DD6001610022C369013B012BC0E93F
S31502001928062323D9002084F8C60138BD40F2FF41B8
S315020019381A68196122F07F4242F000421A6003696E
S3150200194814330361E7E740F2FF451A7803F10C0105
S3150200195842F0802242F400021A609D600161DAE7D1
S3150200196840F2FF4243F8042B0361D4E7FFF784FCF5
S31502001978002084F8C60138BD38B50446FFF7D0FE04
S31502001988E06882690369032A0FD8DFE802F0332682
S31502001998021940F2FF251A8803F1100142F00042AB
S315020019A842F400021A60DD6001610022C369013B4C
S315020019B8012BC0E9062323D9002084F8C60138BDC5
S315020019C840F2FF211A68196122F07F4242F0004272
S315020019D81A60036914330361E7E740F2FF251A78B0
S315020019E803F10C0142F0802242F400021A609D6063
S315020019F80161DAE740F2FF2243F8042B0361D4E7D8
S31502001A08FFF73AFC002084F8C60138BD2DE9F041FB
S31502001A18036882B09D6E15F0010526D1D0E90274DD
S31502001A28BC4280469E6912D0236830461BB1E268E2
S31502001A380AB11B691360A368626803EB8303216911
S31502001A489B00009504F050FC2468A742ECD10025BF
S31502001A58D8F81C00A36862681B1A03EB8303216982
S31502001A6830469B00009504F03FFC02B0BDE8F081C9
S31502001A7803689A6ED20720D42DE9F041D0E90264B0
S31502001A88B44207469D690BD0A368626803EB8303D9
S31502001A98042128469B0008F0F5F92468A642F3D1EA
S31502001AA8FA69A36828469B1A03EB83036268042132
S31502001AB8BDE8F0419B0008F0E5B9704703689A6EE5
S31502001AC8D20726D42DE9F041D0E90264B44207468A
S31502001AD89D6911D02368042128461BB1E2680AB120
S31502001AE81B691360A368226903EB83039B0008F052
S31502001AF8C9F92468A642EDD1FA69A36828469B1A51
S31502001B0803EB830322690421BDE8F0419B0008F038
S31502001B18B9B970472DE9F0410C46054682B0086806
S31502001B281746FFF7FDFDA2692369032A0FD8DFE8E6
S31502001B3802F04235022840F2FF311A88D96042F093
S31502001B48004242F400021A6003F1100222610022E6
S31502001B58E369013BC4E90623EB6F002B55D06369A1
S31502001B68002B46D06FBB00232046E361FFF784FBB8
S31502001B78A2686369E260002B60D0186902B0BDE80A
S31502001B88F08140F2FF311A68196122F07F4242F071
S31502001B9800421A60236914332361D8E740F2FF3101
S31502001BA81A78996042F0802242F400021A6003F120
S31502001BB80C022261CBE740F2FF3243F8042B236181
S31502001BC8C5E70025206800F003FAE169A268D2E9B0
S31502001BD801235B1A616903EB830309699B0000957C
S31502001BE804F082FB2046FFF7B5FC00231846636221
S31502001BF8C4E7D5F8843020469A0730D4DB0629D5BF
S31502001C08FFF75CFF002FAED0ECE7D4F80880D8F8CF
S31502001C18003053B3A36A01333C2BA3629FD1D8F891
S31502001C28006000E0884631463668002EFAD1206800
S31502001C38FFF7E0FAC8F80060A66290E7D5F88430A4
S31502001C4813F0120F02D01069002897D1206902B04A
S31502001C58BDE8F081FFF70CFF002F84D0C2E7FFF73B
S31502001C68D5FE002F3FF47FAFBCE7A36277E700BF3C
S31502001C78B1F934300A6B002B0FDD002310B41C4671
S31502001C88043A42F8044FB1F9340001339842F8DCB9
S31502001C9800235DF8044BCB8670470023CB8670473A
S31502001CA8F8B5B1F93400B1F93660431EB3420C46B1
S31502001CB81746096B06DD731CB00041F82670E386E9
S31502001CC80844F8BD103000B2A0860122800000F058
S31502001CD8C1FBB4F9343001469E422063EBDA35463D
S31502001CE80022B00001EB860343F8042BB4F934C092
S31502001CF80135AC45F8DC731C41F82670E3860844C6
S31502001D08F8BD00BF2DE9F843002708604F61D0F8F7
S31502001D187C8006460C46B8F1000F74D0D8F800301D
S31502001D2820204B6000F092FB05466061002867D0D0
S31502001D38D8F80800800000F089FB81462860002850
S31502001D485ED0D8F808106960D6F88830D8F804202A
S31502001D5803FB02F2AA60D8F804306B6171B1012361
S31502001D6807606A689A4206D92A6842F823706A683E
S31502001D7801339A42F8D8D5F80090AA68C5F80C90AB
S31502001D8802EB82020421B069920004F093FAC9F8C0
S31502001D9800002B681B68002B32D069686A692B61C0
S31502001DA8C5E906216068E06050B300231022A060EE
S31502001DB84168216181684020C4E90631C4E90A33D1
S31502001DC8A28600F043FB2063D0B1636903B31B68A4
S31502001DD81A68B4F93430002B09DD00231D46011FA9
S31502001DE841F8045FB4F9340001338342F8DB002377
S31502001DF821463046E386FFF753FF0120BDE8F88304
S31502001E080020BDE8F8831146FFF7B2F96060CAE719
S31502001E18D6F88420636812F0120F02D01A69002AD3
S31502001E28D7D15A68D5E700BFF8B505464FF4EA7028
S31502001E3800F00CFB0446002857D000264FF000029B
S31502001E4802234FF40011A0F8C621C0E90666C0E9CC
S31502001E581236856641650665FEF7EAFFA6EE100BA1
S31502001E686A0684ED087F03D4702000F0EFFA06466E
S31502001E78002315F0040F0CBF05210421C4E90D3314
S31502001E88C4E90F33C4E91B3384F8C63184F8C43174
S31502001E9863646367A4F87830636180EF50602B0748
S31502001EA84FF033004FF000054FF0010748BF21F00D
S31502001EB80401221D2663676682ED007F40F227121F
S31502001EC8C4F88800E16504F18C0029462566E567B1
S31502001ED808F0F6F80822064BC4F88050196884F808
S31502001EE8C851216084F8C5211C602046F8BD00BF90
S31502001EF820B2072270B5044600F01EFAA061002837
S31502001F085ED03B22002104F5BC7008F0D9F8E56FD3
S31502001F187DB1D4F888102046FFF72AF906462E60C6
S31502001F282046D4F88810FFF723F930602B681A6820
S31502001F381360D4F888202046114600F06FFC034649
S31502001F48D4F8882023611146204600F067FC2269EE
S31502001F5803466061F2B1E8B10025C4E90222636072
S31502001F684FF40070656300F071FA184B4022C4F80A
S31502001F78C03103460A21C4E96D33A069C4F8BC21FD
S31502001F8884F8C95104F0F0F848B9002384F8C63138
S31502001F98184670BD012384F8C631184670BDFF2362
S31502001FA82A460A21A06904F0B5F82A460A21A06938
S31502001FB804F0CCF8FF2804BF012384F8C931E4E70A
S31502001FC8052384F8C631184670BD00BF29170002DA
S31502001FD880697047002843D038B5436E04468B4261
S31502001FE80D4617D0082B1AD0082929D000F02CFD47
S31502001FF80021626A92F80E3143F0010382F80E312B
S31502002008626A84F8C611656692F80E3143F00103D6
S3150200201882F80E31002384F8C631184638BD426A62
S31502002028616692F80E3143F0010382F80E3100F030
S31502002038F7FC082D0CD0002384F8C631184638BDA3
S31502002048426A616692F80E3143F0010382F80E3154
S31502002058204600F0C1FC002384F8C631184638BD74
S315020020680220704740B110B5044600F09BF90023E0
S3150200207884F8C631184610BD02207047F8B5B1F982
S3150200208816C00D46ACEB030C8B68069E03FB0CFCD4
S31502002098B1F9143004469B1A4A6802FB03C20B685C
S315020020A81211511C13F0080F18BF0A4613F0100F2D
S315020020B8A2F5803118BF0A46590751BF012740F2D7
S315020020C80127A2F5004202F1FF325B0607FA06F77C
S315020020D804D54FF4003371088B401F43D4F8B83146
S315020020E8C2F1000C079A311D03F10800C4F8B801C1
S315020020F819608ABBC3F804C0D4F8BC31013B002B73
S31502002108C4F8BC315DDDD4F8B8316A6803F1080158
S31502002118C4F8B8115A6006F10A021A60D4F8BC313A
S31502002128013B002BC4F8BC3146DDD4F8B831AA68A5
S3150200213803F108011036C4F8B811C3E90062D4F8ED
S31502002148BC31013B002BC4F8BC3103DC2046D4F871
S31502002158C03198473846F8BD4FEA8C125A60D4F80F
S31502002168BC31013B002BC4F8BC3120DD6A68D4F8C7
S31502002178B831920103F10801C4F8B8115A6006F1A0
S315020021880A021A60D4F8BC31013B002BC4F8BC31F0
S3150200219804DDAA68D4F8B8319201C9E7D4F8C03187
S315020021A820469847AA68D4F8B8319201C0E7204673
S315020021B8D4F8C0319847D9E72046D4F8C0319847B1
S315020021C8B3E72046D4F8C03198479CE7002380EF4E
S315020021D85060036080ED017F436170472DE9F0414D
S315020021E81D464B7E0C46D9078046174682B011D546
S315020021F8E269D20706D5052D089E6CD9304602B08B
S31502002208BDE8F081042D00F28480089A023522F492
S31502002218000208929E0738D4089EA37D990719D50D
S31502002228627E520716D5E26CD00777D5052DE5D81A
S3150200223806F080730193B7F9023000954046B7F964
S31502002248002004F14C01FFF719FFA37D3043013545
S3150200225820F400065907D1D5637E1A07CED5636ED8
S31502002268DB0762D5052DC9D806F080730193B7F945
S315020022780230B7F900204046009504F16401FFF7E1
S31502002288FDFE304320F40006B8E7636BD8071BD57A
S31502002298052D089EB2D806F080730193B7F902306D
S315020022A800954046B7F9002004F13401FFF7E6FE2F
S315020022B8636B304320F4000613F0400F20F440000D
S315020022C818BF06460135A8E7042D22D8089B023511
S315020022D823F40006A1E706F080730193B7F90230EA
S315020022E80095B7F9002004F11C01FFF7C7FEE36960
S315020022F8013513F0400F089B40EA030020F4000260
S3150200230820F4400018BF0246637E08929E0783D5D2
S31502002318BBE7089E304602B0BDE8F081042D3FF6C1
S315020023286DAF26F40006023594E726F40003052D60
S3150200233838BF1E4662E700BF38B50546084603F0B1
S31502002348B7FE0446B8B10122114603F0FFFE420168
S3150200235844BF012385F8C8318303C5F880000CD52C
S31502002368312201212046EB6D03F0D4FE204603F00C
S31502002378B5FFC5F88400204638BDAB6E43F00103AD
S31502002388AB66EDE78C4613460121624603F0C2BEF0
S3150200239810B5044600220121204603F0D7FEC307E2
S315020023A8F8D410BD38B5836E05468469D8070AD5B0
S315020023B801210022204603F0C9FE8107F8D138BD63
S315020023C8AB6E9A0707D500220121204603F0BEFE0E
S315020023D80307F5D4F3E7C8220421204603F0F8FEE2
S315020023E8F1E700BF70B54C680B6B816E0546C907ED
S315020023F886690CD41A684AB190F9C91191B1304666
S31502002408BDE870403222012103F084BE70BD5AB97C
S31502002418002CFBD028466168FFF7C2F80328F5D0DE
S315020024282468F5E71346EAE71968BDE87040FFF73E
S31502002438B7B800BF40EA500040EA900040EA1010E0
S3150200244840EA102040EA1040704700BF03F01EBF62
S3150200245803F02CBF2DE9F0410D4668B3064608463F
S31502002468904603F025FF044648B386422F4602D219
S315020024783846BDE8F081304603F008FF0746F0B15A
S31502002488B8F1000F12D0A40810D0A400A4F1040ECB
S315020024984FEA9E0E0EF1010E02464EF001E02B1F88
S315020024A853F8041F42F8041B0FF007C0284603F02E
S315020024B8FDFE3846BDE8F081084603F0F7FE002720
S315020024C83846BDE8F08100BF38B504460D46FFF729
S315020024D87FFDD4F88430DA0711D4DB0604D4284603
S315020024E8BDE8384003F0D2BE2A460421044603F06A
S315020024F8E1FE01462046BDE8384003F0F3BE2A460F
S31502002508BDE83840042103F0D5BE00BF38B50546FC
S315020025180C46FFF75DFDD5F88430DA0711D4DB06E1
S315020025280AD52146054603F0DBFE04210246284663
S31502002538BDE8384003F0CEBE2046BDE8384003F079
S31502002548B5BE2246BDE83840042103F0C3BE00BF2B
S315020025582DE9F0410D46C97D022901D0BDE8F08179
S31502002568E96F0446D5E9206701F02000B5F990C065
S31502002578B5F99210002B4DD1002800F09F8001FB7F
S3150200258807F706FB0C77D5F8883003EB27132421C7
S31502002598D4F8B8215B4202F10800C4F8B801C2E9CE
S315020025A80013D4F8BC31013B002BC4F8BC3103DC60
S315020025B82046D4F8C03198472522D4F8B831D5F840
S315020025C8801003F10800C4F8B801C3E90021D4F861
S315020025D8BC31013B002BC4F8BC3103DC2046D4F8DD
S315020025E8C03198472622D4F8B831D5F8841003F1B9
S315020025F80800C4F8B801C3E90021D4F8BC31013B8C
S31502002608002BC4F8BC31A9DC2046D4F8C031BDE899
S31502002618F0411847B2F900E0B2F90280B2F9063081
S31502002628002842D006FB0CF6A3EB08035B1A07FB4D
S315020026381366D5F8882002EB26132421D4F8B8218C
S315020026485B4202F10800C4F8B801C2E90013D4F8E3
S31502002658BC31013B002BC4F8BC3103DC2046D4F85C
S31502002668C03198472522D4F8B831D5F8801003F13D
S315020026780800C4F8B801C3E90021D4F8BC31013B0B
S31502002688002BC4F8BC3103DC2046D4F8C031984785
S315020026982621D5F88420D4F8B831524203F108002D
S315020026A8C4F8B801C3E90012A7E7CB1A07FB03F37C
S315020026B8ACEB0E0E06FB0E331B11BEE7B2F9023067
S315020026C8B2F90020CB1A07FB03F3ACEB020C06FBAC
S315020026D80C331B115BE700BFF8B5C668D6E90F32A3
S315020026E89A4221D0D0F8C0712F4D0446AF423FD04E
S315020026F8FFF716F8E36FC3B12046FFF711F8F36B3D
S31502002708C4F8BC31E26F6AB9E268516C1364C4F862
S31502002718B411936CC4F8B831D36CC4F8BC31136DD8
S31502002728C4F8C031F36B3364F8BDE368D4F8B42156
S315020027385A64D4F8B8219A64D4F8BC21DA64D4F875
S31502002748C0211A659A6BC4F8B421D3E90F10091A85
S3150200275802EBC102C4F8B8211B6C2046C4E96F35E6
S31502002768FEF7DEFFF36BAF42C4F8BC31CAD1D9E734
S31502002778D0F8BC313364736CC0F8B431B36CC0F8AA
S31502002788B831F36CC0F8BC31336DC0F8C031FEF70E
S31502002798C7FFE36F002BC8D02046FEF7C1FFF36BD5
S315020027A8C4F8BC31BEE700BFB5270002012270B5E6
S315020027B8C5680446D5E90E1630019640FFF74AFE6B
S315020027C8C0B1D5E90F32F31A1A44C5E90F62A863F4
S315020027D883B1D4F8BC21E1681344C4F8BC318B6BCD
S315020027E8D4E96D02121A1344C4F8B8318B6BC4F8D3
S315020027F8B43170BDE36F33B1E368D4F8B4211B6C0E
S31502002808C4E96E2370BD2046FFF766FFE368D4F875
S31502002818B4211B6CC4E96E23F4E700BFF8B500B314
S31502002828022906460D4619D9022A174616D95820EC
S31502002838FFF70CFE0446B8B1002301462A46304685
S31502002848A363FFF75FFAE8B1F36F8BB10023C4E91C
S315020028580873636586F8C6312046F8BD0D2386F8E7
S31502002868C63100242046F8BD012386F8C631F8E7AA
S315020028784FF40070FFF7EAFDA06318B14023C4E9DC
S315020028880F33E3E70123204686F8C631FFF7E0FD5A
S31502002898E7E700BFF8B505460C46FEF741FFEB6FC2
S315020028A82BB1EE68A64202D0776D002F35D0002CE8
S315020028B831D000236365EC606B63626ACAB96369E7
S315020028C8F3B11B681E6821462846FFF7D1F921464F
S315020028D832462846FFF7E4F9A96E11F0200104D121
S315020028E83B2205F5BC7007F0EBFB002085F8C60114
S315020028F8F8BD63622046FEF72DFE6369002BE0D120
S31502002908D5F88420636812F0120F02D01E69002ED1
S31502002918D9D15E68D7E7AC68CBE73046FEF7E4FD67
S315020029283369094A31461A60336928465F60336952
S31502002938B2680433D36033693A4608333361B76100
S31502002948FFF7E8F8B3E700BF328080802DE9F0414F
S31502002958D0E90268C660736A044647686BBB012100
S31502002968736D716263B9436E082B29D0E36F13B98D
S315020029782046FFF7B1FE012231462046FFF7CAF884
S3150200298801230022736531462046FFF72BFD0023FB
S31502002998736294F9C751C4F80C80A84684F8C73103
S315020029A83946204684F8C651FFF774FFC4E9016721
S315020029B884F8C6514046BDE8F0811225A846EFE7DD
S315020029C8FFF708FBD2E700BF10B50446FFF74AFB3C
S315020029D8002084F8C60110BDC36F03B17047C368EF
S315020029E8D0F8B41130B45964D0F8B8119A6B996416
S315020029F8D0F8BC11094CD964D0F8C0111965C0F8D1
S31502002A08B4211D6CD96B491B02EBC102C0F8B8216F
S31502002A181B6CC0E96F3430BC704700BFB527000293
S31502002A28C36F7BB9C368D0F8BC115A6C1964C0F875
S31502002A38B4219A6CC0F8B821DA6CC0F8BC211B6DB7
S31502002A48C0F8C031704700BFC36F03B17047FFF7C4
S31502002A5843BE00BF2DE9F041436B04468B420D4647
S31502002A6817D0656395F80E312A7E23F00103012AF1
S31502002A7885F80E3100F00A82D5F82461EB7D46F01E
S31502002A888077032B09D8DFE813F027015E01A70137
S31502002A980A0091F80E31DE07E3D4BDE8F08195F815
S31502002AA80E31590700F11F821922D4F8B831D5F828
S31502002AB8601103F10800C4F8B801C3E90021D4F88B
S31502002AC8BC31013B002BC4F8BC3103DC2046D4F8E8
S31502002AD8C0319847287ED4F8B8310128D5F8642140
S31502002AE803F1080104D1E87C22F07F4242EA00623F
S31502002AF81A20C4F8B811C3E90002D4F8BC31013B64
S31502002B08002BC4F8BC3103DC2046D4F8C031984700
S31502002B18D5F83C3113F0807302D194F9C42132B14D
S31502002B282046FEF729FFD5F83C3103F08073003BB7
S31502002B3818BF01232F21D4F8B82184F8C431D5F857
S31502002B48F83002F10800C4F8B801C2E90013D4F853
S31502002B58BC31013B002BC4F8BC3103DC2046D4F857
S31502002B68C03198472D22D4F8B831D5F8EC1003F1C4
S31502002B780800C4F8B801C3E90021D4F8BC31013B06
S31502002B88002BC4F8BC3103DC2046D4F8C031984780
S31502002B982E22D4F8B831D5F8381103F10800C4F852
S31502002BA8B801C3E90021D4F8BC31013B002BC4F8B3
S31502002BB8BC3103DC2046D4F8C03198473922D4F810
S31502002BC8B83195F80D1103F10800C4F8B801C3E944
S31502002BD80021D4F8BC31013B002BC4F8BC3103DC1C
S31502002BE82046D4F8C0319847D4F880309A024BD59B
S31502002BF8D5F8082113F0807F0CBF10274FF4807791
S31502002C08002A00F07E81A16B8A4200F074810123BA
S31502002C1885F80C3100223721D4F8B83103F10800BF
S31502002C28C4F8B801C3E90012D4F8BC31013B934297
S31502002C38C4F8BC3103DC2046D4F8C03198470026D4
S31502002C484FF03808BF00D5F80821D4F8B8319259A0
S31502002C5803F10801C4F8B811C3E90082D4F8BC31FB
S31502002C68013B002BC4F8BC3103DC2046D4F8C03142
S31502002C7898470436BE42E6D10023D5F8082185F8DE
S31502002C880C31D4F88030A2639B01D5F8442103D5D0
S31502002C98B2F1806F00F07B81D5F83411D5F8243172
S31502002CA8D5F83C010B43D5F8401143EA0205054322
S31502002CB8A26D0D43C54B45F002056A401340002B31
S31502002CC840F01581D4F8B831A56503F10801C4F8B6
S31502002CD8B81101225D6027E0D5F84C11AA68D4F82C
S31502002CE8B8310A43192103F10800C4F8B801C3E947
S31502002CF80012D4F8BC31013B002BC4F8BC3103DC0A
S31502002D082046D4F8C0319847A26DB04B7A4013409A
S31502002D18002B40F0B7800122D4F8B831A76503F139
S31502002D280801C4F8B8115F601A60D4F8BC31013BD7
S31502002D38002BC4F8BC313FF7B0AE2046D4F8C031F8
S31502002D48BDE8F0411847D5F84C11AA68D4F8B8314D
S31502002D580A43192103F10800C4F8B801C3E90012AD
S31502002D68D4F8BC31013B002BC4F8BC3103DC204645
S31502002D78D4F8C0319847287ED4F8B8310128EA68D1
S31502002D8803F1080100F0A080D5F84C01C4F8B81187
S31502002D981A210243C3E90012D4F8BC31013B002BC5
S31502002DA8C4F8BC3103DC2046D4F8C0319847A26D7A
S31502002DB846F08076854B46F4005672401340002B47
S31502002DC840F08D80D4F8B831A66503F10801C4F83D
S31502002DD8B81101225E60A7E795F80E3198077AD4F2
S31502002DE8A968D5F85021D4F8B8310A43192103F154
S31502002DF80800C4F8B801C3E90012D4F8BC31013B93
S31502002E08002BC4F8BC3103DC2046D4F8C0319847FD
S31502002E18E968D5F85421D4F8B8310A431A2103F1DE
S31502002E280800C4F8B801C3E90012D4F8BC31013B62
S31502002E38002BC4F8BC3103DC2046D4F8C0319847CD
S31502002E481D22D4F8B831D5F8141103F10800C4F8D4
S31502002E58B801C3E90021D4F8BC31013B002BC4F800
S31502002E68BC3103DC2046D4F8C0319847D5F8303156
S31502002E78A26D1F4347F00107544B7A401340002BBB
S31502002E883FF449AF2046FEF72DFD44E71A21D5F84F
S31502002E982431EA7C23F44003C5F82431D4F8B83146
S31502002EA8120603F10800C4F8B801C3E90012D4F8FF
S31502002EB8BC31013B002BC4F8BC313FF7DDAD2046DF
S31502002EC8D4F8C0319847D7E5E87CC4F8B81142EA85
S31502002ED800621A215EE72846FEF730F980E72046A7
S31502002EE8FEF700FD6EE7284600F03AFADCE52046D2
S31502002EF8FEF7F8FCE6E695F90C21002A7FF48AAE7D
S31502002F08C2E6D5F80421002A3FF4BEAEA16B8A4276
S31502002F1856D0012385F80C3100223721D4F8B8316E
S31502002F2803F10800C4F8B801C3E90012D4F8BC31A9
S31502002F38013B9342C4F8BC3103DC2046D4F8C031C5
S31502002F48984700264FF03808BF00D5F80421D4F870
S31502002F58B831925903F10801C4F8B811C3E90082DD
S31502002F68D4F8BC31013B002BC4F8BC3103DC204643
S31502002F78D4F8C03198470436B742E6D10023D5F8CB
S31502002F88042185F80C31D4F88030A2637CE63A2213
S31502002F98D4F8B831D5F8481103F10800C4F8B801D5
S31502002FA8C3E90021D4F8BC31013B002BC4F8BC317B
S31502002FB803DC2046D4F8C0319847D5F844216BE69D
S31502002FC895F90C21002AA7D15EE600BFC801F030A8
S31502002FD82DE9F0410F464FF01F0CB1F90450B0F835
S31502002FE84010D0F8B83101EB0241B7F9002003F1DD
S31502002FF8080EB7F90660AD1AB7F90220C0F8B8E1AB
S31502003008C3E900C1D0F8BC31B61A013B2D113611FD
S31502003018002B044605F1010506F10106C0F8BC318C
S3150200302802DCD0F8C03198471E22D4F8B83105EB35
S31502003038064503F10801C4F8B811C3E90025D4F816
S31502003048BC31013B002BC4F8BC3103DC2046D4F862
S31502003058C0319847636C022B38D0042B1ED0012B43
S315020030681AD12020B7F90220B7F90030216C1211C3
S315020030781B1101FB0233D4F8B821E16B02F10805F2
S315020030881944C4F8B851C2E90001D4F8BC31013B6D
S31502003098002BC4F8BC3113DDBDE8F081B7F9022074
S315020030A8B7F90030216C12111B1101FB0233D4F857
S315020030B8B821E16B202002F1080501EB8301E0E764
S315020030C82046D4F8C031BDE8F0411847B7F90220C6
S315020030D8B7F90030216C12111B1101FB0233D4F827
S315020030E8B821E16B202002F1080501EB4301C8E78C
S315020030F8844610B54FF0000EDCF8244084B0A4F8DC
S31502003108A8100799A4F8AA2094F80E210091089904
S315020031187046CDE90113069B42F0110203939DED19
S31502003128007F099B84ED267FC4F8B0300A9B84F899
S315020031380E21C4F8B4308CF8C6E104B010BD00BF45
S3150200314803464FF0000C10B45C6A12030903C4E983
S315020031583F1294F80E21604642F0010284F80E21CD
S3150200316883F8C6C15DF8044B704700BF91F8E43096
S3150200317810B5013B062B00F2ED80DFE803F00415DB
S315020031881B22282F35004FF07F434FF0FF0C1A46BB
S31502003198604691F8E5E0BEF1070F77D8DFE80EF052
S315020031A82C837BB4AEA8A17291F8DC0003061A46FA
S315020031B88446EEE700234FF07F424FF0FF0C184695
S315020031C8E7E700224FF07F43FF209446E1E700231A
S315020031D891F8DCC018464FEA0C62DAE7002291F849
S315020031E8DC0094460306D4E791F8DC0091F8E0C0C7
S315020031F803064FEA0C62CCE74FF0000C604691F8E2
S31502003208E6E0BEF1070F5AD8DFE80EF00498908A76
S3150200321884655E554FF0000C604691F8E7E0BEF112
S31502003228070F00F29380DFE80EF0072823201D1906
S31502003238041291F8DF00034391F80E01C1F85831E0
S3150200324840F00403C1F85C2181F80E3110BD91F8F3
S31502003258DF4091F8E30023430243EDE791F8DF00EC
S315020032680243E9E743F0FF03E6E742F0FF02E3E73A
S3150200327891F8DF0003430243DEE743F0FF0342F01F
S31502003288FF02D9E791F8DD0091F8E1C043EA00436D
S3150200329842EA0C42B3E791F8DD00844643EA00436A
S315020032A842EA0042ABE74FF0FF0C43F47F03604665
S315020032B842F47F02A3E791F8DE0091F8E2C043EAFE
S315020032C8002342EA0C22A8E791F8DE004FF0000C30
S315020032D843EA0023A1E791F8DEC0002042EA0C2265
S315020032E89BE791F8DD004FF0000C43EA004386E7BE
S315020032F891F8DDC0002042EA0C4280E74FF0000C4C
S31502003308FF2043F47F037AE74FF0FF0C002042F4D4
S315020033187F0274E74FF0000CFF2043F47F437CE7FB
S315020033284FF0FF0C002042F47F4276E791F8DE0068
S31502003338844643EA002342EA00226EE74FF0FF0C76
S3150200334843F47F43604642F47F4266E7034342EA18
S315020033580C0271E700231A469C46184619E700BF75
S315020033686FF07F43D0F84C1130B4D0E95654090AAD
S315020033782A0E01FB023265F31702250E01FB0533FD
S3150200338890F80E1164F31703C0F8602121F00402C5
S31502003398C0F8643180F80E2130BC704738B590F811
S315020033A8E8300546DA07D0F8F04011D49B07D5F87D
S315020033B8F40004F1FF3415D4D5F8EC30013803FBD8
S315020033C800F0C4F30A0444EAC024C5F8384138BDFB
S315020033D8601EFFF72FF895F8E83004469B07D5F8E4
S315020033E8F400E9D50138FFF725F8D5F8EC30C4F32F
S315020033F80A0403FB00F0FFF71DF844EAC024C5F8E7
S31502003408384138BD70B500260546406A059CC0E9B4
S315020034183B23049B24F0300CC0E93D3190F80E3171
S3150200342880F8EA6043F0010280F80E2114F01002D7
S3150200343803D0D5F880100E0259D514F0200403D013
S31502003448D5F88010890252D5ACF10D01022906D8A9
S31502003458D5F88010CE0302D4C9B2092947D9BCF1DE
S31502003468420F49D8DFE81CF0D3001B018A006F001F
S31502003478A100B000A30041013F012F012801070165
S31502003488F500E4001901C500480048004800480054
S3150200349848004800480048004800480048004800DC
S315020034A848004800480048004800480048004800CC
S315020034B848004800480048004800480048004800BC
S315020034C848004800480048004800480048004800AC
S315020034D8480048004800480048004800480048009C
S315020034E848004800480048008A006F00A1000923E6
S315020034F885F8C631184670BD002A40F00481D0F816
S315020035082C61C0F83C21A4BB2246D0F8401121F018
S315020035180071C0F8401143F0110CD0E94734234337
S315020035286C6D80F80EC12343D0F8444123430B4304
S3150200353833431343C0F82431FFF730FF002385F8DD
S31502003548C631184670BD4FF440260221C0F82C61D8
S3150200355880F8E91080F8EB10002A75D04FF0010CBC
S315020035684FEA8C7C4CF08072C0F83C21002C00F0AB
S31502003578C880D0F8401141F00071CAE704214FF41F
S315020035880026BCF1400F80F8E91080F8EB10C0F86D
S315020035982C6100F0C480A2B9C0F83C21002C00F0CE
S315020035A8C98000224FF40026E3E71026CDE704215E
S315020035B8624E80F8E910C0F82C6180F8EB10002AF8
S315020035C842D04FF0030CCBE7D5F8801089028ED58E
S315020035D801215B4E80F8E910C0F82C6180F8EB10E7
S315020035E8002A00F099804FF080710A46C0F83C1113
S315020035F8BFE7012180F8E9104FF48471514EA0F813
S31502003608EA10C0F82C61FAB14FF0000CA8E70121C4
S31502003618002680F8E910C0F82C6180F8EB10002A21
S3150200362878D1C0F83C21002C40F0828026466BE710
S31502003638454E012180F8E9104FF48171C0F82C61DA
S31502003648A0F8EA10002ADFD1C0F83C21002C90D15C
S315020036585AE7D5F8801089027FF549AF012130264D
S3150200366880F8E9104FF48471C0F82C61A0F8EA10CA
S31502003678002AC9D1E8E7D5F880108E027FF537AF60
S31502003688324E012180F8E9104FF48271C0F82C619C
S31502003698A0F8EA10002AB7D1D6E72D4EF1E70221A3
S315020036A84FF4802680F8E91080F8EB10C0F82C61F8
S315020036B8002A7FF455AFC7E7D5F8801089027FF54F
S315020036C816AF244EB5E7D5F880108E027FF50FAFF8
S315020036D80121214E80F8E910C0F82C6180F8EB1020
S315020036E8002A91D1B0E720262FE702211B4E80F847
S315020036F8E910C0F82C6180F8EB10002A7FF42EAF8F
S31502003708A2E7144600E790F8EBC0D0F82C610CF15A
S31502003718FF3C25E7664623E7C0F83C2129E7032153
S3150200372880F8EB10002A3FF437AF4FF0020C17E788
S3150200373816461EE700244FF40026E5E610000800A8
S315020037481000040030000C003000040020000C00B9
S3150200375830000800200008002000040010000C00B9
S3150200376810B50446406AC1F3800390F80E211B0483
S3150200377842F0010280F80E210A0748BF43F40033DB
S31502003788CA07C0F8343105D4D0F8343143F480433B
S31502003798C0F834318B0705D4D0F8343143F40043EA
S315020037A8C0F8343101F00F0180F8E810FFF7F6FD92
S315020037B8002084F8C60110BD2DE9F04FCD7D81B0F9
S315020037C8032D02D001B0BDE8F08F0E46B2F90050C3
S315020037D8B1F9A810D6F8FC70491BD6F898500446D9
S315020037E805FB01FCD6F8B050B6F9AAB005FB01F103
S315020037F8D6F8A050D6F89C8007EB050ED6F8A4702A
S31502003808D6F80051D6F8B4A005EB0709D0F8B87176
S3150200381807F10805002B40F0C780B2F90230C0F85C
S31502003828B851ABEB030308FB03CC0AFB03112423B1
S31502003838AEEB2C157D603B60D0F8BC31A9EB2115A7
S31502003848013B002BC0F8BC3102DCD0F8C0319847E6
S315020038582522D4F8B831D6F8981003F10800C4F82E
S31502003868B801C3E90021D4F8BC31013B002BC4F8E6
S31502003878BC3103DC2046D4F8C03198472622D4F856
S31502003888B831D6F89C1003F10800C4F8B801C3E9A8
S315020038980021D4F8BC31013B002BC4F8BC3103DC4F
S315020038A82046D4F8C0319847D6F8EC102B1401FB01
S315020038B803F32721D4F8B821D6F8B07002F108002C
S315020038C8D6F8B480C4F8B801C2E90013D4F8BC31FA
S315020038D8013B002BC4F8BC3103DC2046D4F8C031C6
S315020038E898472822D4F8B831ADB203F10801C4F8D2
S315020038F8B811C3E90025D4F8BC31013B002BC4F842
S31502003908BC3103DC2046D4F8C03198472921D6F8C1
S31502003918EC303A1403FB02F2D4F8B83103F108008A
S31502003928C4F8B801C3E90012D4F8BC31013B002B34
S31502003938C4F8BC3103DC2046D4F8C0319847D6F81F
S31502003948EC304FEA284203FB02F2D4F8B83103F10D
S315020039580801C4F8B8112A21C3E90012D4F8BC3107
S31502003968013B002BC4F8BC3103DC2046D4F8C03135
S3150200397898472B21D4F8B821BBB202F1080043EAD2
S315020039880843C4F8B801C2E90013D4F8BC31013BB4
S31502003998002BC4F8BC313FF715AF2046D4F8C03126
S315020039A801B0BDE8F04F1847B2F90630C0F8B85171
S315020039B8ABEB030508FB05C8AEEB28137B60242393
S315020039C83B60D0F8BC310AFB0515013B002BA9EB7D
S315020039D82515C0F8BC3102DCD0F8C031984725223B
S315020039E8D4F8B831D6F8981003F10800C4F8B8012B
S315020039F8C3E90021D4F8BC31013B002BC4F8BC3121
S31502003A0803DC2046D4F8C0319847D4F8B831D6F842
S31502003A189C2003F10801C4F8B81126215242C3E9D1
S31502003A280012D4F8BC31013B002BC4F8BC3103DCCC
S31502003A382046D4F8C0319847D6F8EC102B1401FB6F
S31502003A4803F3D6E92C71C1F100082721D4F8B8216D
S31502003A5802F10800C4F8B801C2E90013D4F8BC316F
S31502003A68013B002BC4F8BC3103DC2046D4F8C03134
S31502003A7898472822D4F8B831ADB203F10801C4F840
S31502003A88B811C3E90025D4F8BC31013B002BC4F8B0
S31502003A98BC3103DC2046D4F8C03198472921D6F830
S31502003AA8EC303A1403FB02F2D4F8B83103F10800F9
S31502003AB8C4F8B801C3E90012D4F8BC31013B002BA3
S31502003AC8C4F8BC3103DC2046D4F8C0319847D6F88E
S31502003AD8EC304FEA284203FB02F2D4F8B83103F17C
S31502003AE80801C4F8B8112A21C3E90012D4F8BC3176
S31502003AF8013B002BC4F8BC3103DC2046D4F8C031A4
S31502003B0898472B22D4F8B831BFB203F1080147EA25
S31502003B180847C4F8B811C3E9002736E7F0B5C66CFA
S31502003B28054637B2006DBDF914C09F42D8BF06F1EB
S31502003B38FF330FFA80FED8BF1BB2E645DCBF00F1A1
S31502003B48FF3C0FFA8CFC2CEAEC744FF0000C21EACD
S31502003B58E1718F4222EAE272DCBF06F1FF3631B228
S31502003B689645E646D8BF00F1FF3023EAE373D8BF8D
S31502003B7802B209011B0160461201240185F8C6C179
S31502003B8863F30F0E61F30F0C62F31F4C64F31F4EBF
S31502003B98C5F872C0C5F876E0F0BD00BFF0B583B0CF
S31502003BA8DDE90856072E0446C0E91335C163866463
S31502003BB8026409DC002E10DB072E0ED8DFE806F0B9
S31502003BC83C4136080D0D474C402E2FD0412E04D1CC
S31502003BD84FF44011022261656264E669BEB1D6F805
S31502003BE82C71D6F81C21606DD6F820113A4302438F
S31502003BF8D6F83C71D6F840010A433A43D6F844113E
S31502003C0802430A43C6F824213668002EE7D1002269
S31502003C18013D2DB2013B2046114600951BB2FFF726
S31502003C287DFF002084F8C60103B0F0BD4FF40011F1
S31502003C38042261656264D0E700210122416542647B
S31502003C48CBE74FF48011022241654264C5E704229C
S31502003C58044942644165C0E7022203494264416558
S31502003C68BBE700BF0001200000013000B0F9762052
S31502003C78B1F900309A4227DBB1F90220B0F978C0CF
S31502003C88944521DB30B5B1F904E0B0F972C0E645D6
S31502003C981CDBB1F90650B0F97440A54216DB634540
S31502003CA8BCBFA1F800C0B0F97440A242B8BF4C80AC
S31502003CB8B0F976309E45C8BF8B80B0F978309D4200
S31502003CC800DDCB80012030BD00207047002030BDCA
S31502003CD843685A6992F828301BB11B4B196359631A
S31502003CE89963194B196841F4800119601968C1F37F
S31502003CF880511968C1F380511968C1F38051196856
S31502003D08C1F380511968C1F380511968C1F3805112
S31502003D181968C1F380511968C1F380511968C1F352
S31502003D2880511968C1F38051916CC3F884101968DF
S31502003D3841F001011960996841F00201996013681E
S31502003D489A6818689368184700743440F0B58BB0BF
S31502003D58EFF3038200242A492A4B103A52B24E68DC
S31502003D6853F822504B6CCDE900069806CDE9023489
S31502003D780BD54868C0F3C100032805D04968224814
S31502003D88C1F3C14150F821400394EC681C4843F042
S31502003D9880231E4943F00103049402F5C652436484
S31502003DA851F8223023F4803341F8223051F8223078
S31502003DB82F6917B3BC463E46BCE80F00EE4605AC73
S31502003DC80FC4DCF800302360BEE80F000FC6DEF829
S31502003DD80030CCF80030AB68384698472B6953B1A7
S31502003DE89C460DF1140EBEE80F00ACE80F00DEF893
S31502003DF80040CCF800400BB0F0BD6F46EBE700BFC1
S31502003E0800743440A0B20722307434400060004087
S31502003E18F8B5416005460E464C69EFF31087012155
S31502003E2881F31088794B9A6822F400329A609B686B
S31502003E381E2002F057FE87F31088754B9A6822F007
S31502003E4802029A60626822F4800222F001021A6073
S31502003E5822691A6262695A62E26A9A652289DA6094
S31502003E6862891A61A2895A61E2899A61228BDA62A7
S31502003E78E2691A63226A5A63626A9A63226B1A664B
S31502003E8822791968C2F3400262F341011960626B32
S31502003E98C3F80023A26BC3F80423E26BC3F8082312
S31502003EA8226CC3F80C23626DC3F82822A26DC3F8EC
S31502003EB82C22E26DC3F83022226EC3F83422626ED7
S31502003EC8C3F83822A26EC3F83C22E26EC3F8402237
S31502003ED8226FC3F84422626FC3F84822E27919684E
S31502003EE8C2F3400262F3596119606279196892094C
S31502003EF862F38F311960E26CC3F89020226DC3F821
S31502003F08A420E2791968C2F3800262F39A61002258
S31502003F181960616CC3F88010E16F1964B4F88010F7
S31502003F2899642A61F368AB603369EB6094F9792086
S31502003F3894F87830002A5ADB1B0102F16041DBB2A1
S31502003F4801F5614181F800333249334B41F8225079
S31502003F5802F5C65053F8206026F4803643F82060EE
S31502003F6853F82030BFF35F8F012053099B0002F0FC
S31502003F781F0203F1604303F5614300FA02F2C3F834
S31502003F8880211A6094F97B2094F87A30002A36DB6D
S31502003F981B0102F16040DBB200F5614080F8003394
S31502003FA81D4B41F8225002F5C65153F8210020F460
S31502003FB8803043F8210053F82130BFF35F8F012187
S31502003FC853099B0002F01F0203F1604303F56143A4
S31502003FD801FA02F2C3F880211A602368D3E90112B2
S31502003FE818681268904708B90C4B2B60F8BD0C4943
S31502003FF802F00F001B01DBB201440B76A4E7094865
S315020040081B0102F00F06DBB28355C9E700302040D8
S3150200401800743440A0B20722006000404E4956524E
S31502004028FCEC00E014ED00E00120FFF78FBE00BFB4
S315020040380220FFF78BBE00BF084B00211A6A22F046
S3150200404801021A629A6842F001029A601A6922F01B
S3150200405801021A610346084619607047006C34402B
S3150200406830B53A4A91F80CC0946C394B6CF300049B
S3150200407894641C6A9A8C374D4FEA143E02F00F0C70
S31502004088C4F303342B6844EA0C052D0712D592B201
S3150200409815074ED401221EF0080F02FA0CF251D06F
S315020040A803240EF0070E04FA0EF402FB03F3B3FB25
S315020040B8F4F302E003FA0CF3E340274C234AA4FB89
S315020040C803439B0C1468013BDBB263F307041460D9
S315020040D8136943F001031361D369DC07FCD50B7B33
S315020040E873B10B68194C5360D3680D7965F30403F1
S315020040F8D360936823F001039360E369DB05FCD57B
S315020041088A68124B1468154DC4F312045C6254682B
S315020041189C629468DC62D4681C6314695C63127DD1
S315020041289A631A6A42F001021A62C0E90051002033
S3150200413830BD4FF0030C02F007021EF0080F0CFA0E
S3150200414802F2ADD1012505FA04F4AEE7006C34405B
S3150200415800E00140E4B2072283DE1B435049504D7A
S31502004168034A0020D36943F00103D361704700BFB5
S3150200417800703440074B5A6F920309D5DA6900205A
S3150200418822F00102DA619A6A42F001029A627047E3
S315020041980120704700703440054A0020136FC3F3AC
S315020041A8404301330B70536F43F400335367704730
S315020041B800703440094BD3F8842212F47F4F0AD098
S315020041C8D3F89422002042F00102C3F89422D3F8CD
S315020041D890320B6070470D20704700BF0070344064
S315020041E830B5046905468C4685B0ACB194E80F0033
S315020041F80DF1100E0EE90F009CE80F0084E80F007F
S315020042082046AB6898472C6924B104AB13E90F0022
S3150200421884E80F0005B030BD0C46F1E7F8B506464E
S315020042280D464160EFF31084012181F31088A54BF6
S315020042389A6822F400329A609B681E2002F052FCA9
S3150200424884F310882B68D3E901121868126890471C
S31502004258002840F016819C49CB6960F30003CB61C4
S31502004268CB6ADB07FCD44FF0100E6B684EF001E008
S315020042780B61AB688B612B690B646B694B64D5E97F
S315020042880623C1E918232B46EA68C1F88022EA6A9E
S315020042988A672A6BC1F8882053F8344F8B4AC1F8CB
S315020042A8984053F8044F42F8104B0FF007C000220B
S315020042B8A96F854BC3F80812E96FC3F88C123261ED
S315020042C8D5F88030B360D5F88430F36095F921309B
S315020042D895F82020002BC0F2D580120103F1604127
S315020042E8D2B201F5614181F80023794A794942F847
S315020042F8236003F5C65451F8247027F4803741F831
S31502004308247051F82410BFF35F8F012103F01F04B4
S315020043185B099B0003F1604303F56143A140C3F8BF
S315020043288011196095F9233095F82210002B4FEA6F
S315020043380111C9B2C0F2C08003F1604404F56144B8
S3150200434884F80013634942F8236003F5C65451F80A
S31502004358247027F4803741F8247051F82410BFF3EB
S315020043685F8F012103F01F045B099B0003F1604381
S3150200437803F56143A140C3F88011196095F9253008
S3150200438895F82410002B4FEA0111C9B2C0F28E80AB
S3150200439803F1604404F5614484F800134D4942F878
S315020043A8236003F5C65451F8247027F4803741F880
S315020043B8247051F82410BFF35F8F012103F01F0404
S315020043C85B099B0003F1604303F56143A140C3F80F
S315020043D88011196095F9273095F82610002B4FEAB7
S315020043E80111C9B25CDB03F1604404F5614484F847
S315020043F80013384942F8236003F5C65451F824706D
S3150200440827F4803741F8247051F82410BFF35F8FE0
S31502004418012103F01F045B099B0003F1604303F5C6
S315020044286143A140C3F88011196095F9291095F8DE
S31502004438283000292DDB1B0101F16044DBB204F5AB
S31502004448614484F80033234B42F8216001F5C652D1
S3150200445853F8224024F4803443F8224053F8223099
S31502004468BFF35F8F01224B099B0001F01F0103F185
S31502004478604303F561438A40C3F880211A60164BEC
S315020044883360F8BD1549120103F00F04D2B20A557A
S315020044982BE7124C1B0101F00F05DBB26355D2E77D
S315020044A80F4C03F00F073C442176A2E70C4C03F0AD
S315020044B80F073C44217671E7094C03F00F073C4489
S315020044C821763FE7003020400070344008713440BE
S315020044D8A0B20722006000404349504D14ED00E0A7
S315020044E8FCEC00E0012270B54368044693F92110FA
S315020044F8344E480901F01F0102FA01F1203046F84C
S315020045082010BFF34F8FBFF36F8F002593F9211049
S315020045182D4840F8215093F923104FEA511C01F017
S315020045281F0102FA01F10CF1200C46F82C10BFF318
S315020045384F8FBFF36F8F93F9231040F8215093F9E9
S3150200454825104FEA511C01F01F0102FA01F10CF184
S31502004558200C46F82C10BFF34F8FBFF36F8F93F9D9
S31502004568251040F8215093F927104FEA511C01F003
S315020045781F0102FA01F10CF1200C46F82C10BFF3C8
S315020045884F8FBFF36F8F93F9271040F8215093F995
S3150200459829104FEA511C01F01F018A400CF1200133
S315020045A846F82120BFF34F8FBFF36F8F93F9292067
S315020045B840F822501B689A6818685368984700B9E9
S315020045C8206070BD00E100E0A0B2072230B585B0D8
S315020045D8EFF303834FF47F440F4A103B5BB252F862
S315020045E823000E49ADF800400C6FC5680C4A0395C6
S315020045F804F40035019403F5C6534D6752F82310A7
S3150200460821F4803142F8231052F823306946FFF725
S31502004618E7FD05B030BD00BFA0B2072200703440E6
S31502004628006000402DE9F04184B0EFF30383214A8C
S315020046382149146DD2F88070103BD2F8906027F0A9
S3150200464880705BB251F82350C2F884001B4926F0E9
S315020046588070C2F8940003F5C65351F8232022F459
S31502004668803241F8232051F823300123EA688DF875
S315020046780030E30703925FFA84F805D418F0020FB4
S315020046880DD104B0BDE8F08100232846694601979A
S315020046988DF80130FFF7A4FD18F0020FF1D00123BF
S315020046A82846694601968DF80130FFF799FD04B050
S315020046B8BDE8F08100703440A0B2072200600040D5
S315020046C810B584B0EFF303830221104A103B5BB2A4
S315020046D852F823000E4C0F4A246DC4688DF8001058
S315020046E8039403F5C65352F8231021F4803142F895
S315020046F8231052F82330FF22002369468DF8012041
S315020047080193FFF76DFD04B010BD00BFA0B20722EA
S31502004718007034400060004030B585B0EFF3038383
S315020047284FF603740F4A103B5BB252F823000E4948
S31502004738ADF80040D1F80042C5680C4A0395E5B2C7
S31502004748019403F5C653C1F8045252F8231021F412
S31502004758803142F8231052F823306946FFF740FDAC
S3150200476805B030BDA0B20722007034400060004098
S3150200477830B585B0EFF303834FF60474104A103B45
S315020047885BB252F823000F49ADF80040D1F88442D3
S31502004798C5680D4A039504F01005019403F5C6533E
S315020047A8C1F8885252F8231021F4803142F82310B6
S315020047B852F823306946FFF713FD05B030BD00BF36
S315020047C8A0B2072200703440006000400020012396
S315020047D88242CAB203FA02F39AB24FEA034308BF05
S315020047E81A460B0A5B0103F1804303F580039A60BC
S315020047F8704700BF2DE9F84F0388DBB14FF0000A76
S3150200480880464FF00109DFF8D4B00024314D4FEA53
S31502004818CA07D8F8043035F8022BD9198988914283
S315020048280AD00134032CF4D1B8F800300AF1010A8F
S315020048385345EAD8BDE8F88FDB5909FA04F603F0BE
S31502004848B853B3F1807F244BF6B293F84C2C12D0AE
S31502004858324230D104F120021BF81230DB09E0D0D3
S315020048681BF81230012123F08003C8200BF81230FE
S3150200487802F038F9D5E7324210D004F120021BF8CB
S315020048881230DB09CDD11BF81230012143F0800327
S31502004898C8200BF8123002F025F9C2E7012002F00F
S315020048A8CDF90D4B012093F84C2C324383F84C2C4E
S315020048B802F094F9E1E7012002F0C0F9064B012063
S315020048C893F84C2C22EA060283F84C2C02F086F95D
S315020048D8C0E700BFD4A8000200E001400020204043
S315020048E8F8B50646FFF786FFEFF31082012383F336
S315020048F81088234F3B681BB9402022490B7508755F
S315020049083B6801333B6082F31088338800211BB36E
S315020049181D4D08E01B01134445F823403288013136
S315020049288BB29A4218D9736853F8314003EBC10225
S315020049389288E0034FEA1223D2B2EBD502EB0310B8
S3150200494855F820E024F4803C2EF4803E45F820E019
S315020049581B0145F820C0DEE7EFF31082012383F33B
S3150200496810883B6813B13B68013B3B603B681BB947
S31502004978802004490B75087582F31088F8BD00BFBC
S315020049889CB20722000D40400008404008B5034B80
S3150200499803600846FFF7A4FF002008BD54524F5093
S315020049A808B50846FFF79CFF002008BD034600200D
S315020049B859601A72704700BF0346044ADB68002032
S315020049C89B1AB3FA83F35B090B7070474349495242
S315020049D830B5836B83B004460A466D46A3B193E8A5
S315020049E8030085E80300E16B1A7119601846636BC8
S315020049F89847A36B1BB195E8030083E803000023DD
S31502004A0884F82B3003B030BD2B46ECE730B5454B66
S31502004A1883B01B6A01690193019B03F00F2301937B
S31502004A28019A019D0B7C90F82C409CB9C2F3032293
S31502004A38DBB2A2EB156293409B0804D1082003B0AF
S31502004A4830BD013BFAD04A78C2F3C014D209F8D174
S31502004A58CC710169002390F826408569026880F8BE
S31502004A682B30C56180F82D3080F8274080F82E302B
S31502004A7880F8283080F82F30036280F83030546A84
S31502004A88227894F801E0012A14BF4FF0040C4FF083
S31502004A98050C6279120142EA4E0294F806E042EAED
S31502004AA8CE124CEA0202D2B2CA7001690A7942F0FF
S31502004AB810020A7101690A7963F3C3020A7101696C
S31502004AC80A7963F304120A710269E179137961F3C7
S31502004AD8C71313710269537943F0010353710368CB
S31502004AE893F90F30002B07DB012203F01F040E494E
S31502004AF85B09A24041F82320BF210269537A03F0D9
S31502004B08F30353720369D97190F82C302BB1002341
S31502004B1880F82C30002003B030BD022203695A7097
S31502004B28F8E700BF00E0014000E100E090F808C0A5
S31502004B38C0E90512BCF1010F80F82A3008D100221B
S31502004B48436880F826C05B0080F8243080F8252068
S31502004B58002380F82930FFF759BF00BF90F808C034
S31502004B68C0E90512BCF1010F80F82A300AD10022E9
S31502004B78436880F826C05B0043F0010380F82430BE
S31502004B8880F82520012380F82930FFF73FBF00BFB0
S31502004B9870B40024402203691C7003691A70026902
S31502004BA813785B06FCD5C0231370036802695B6A37
S31502004BB8804D1B794FF0000C43F0E0031374036831
S31502004BC802695B6AB324DB7843F0E0035374036833
S31502004BD802695B6A9B781B0103F0700343F00803C2
S31502004BE89370036802695B6A1E78012E5E7814BFA9
S31502004BF80423052343EA4603DBB2D37003685B68E2
S31502004C08AB4214BF7722F72203695A71036983F804
S31502004C1806C00369DC7191F911204B7B6245C0F22B
S31502004C28AA801B0102F16044DBB204F5614484F8F0
S31502004C380033614C614B44F8220002F5C65553F81D
S31502004C48256026F4803643F8256053F82530BFF3ED
S31502004C585F8F012553099B0002F01F0203F160438F
S31502004C6803F5614305FA02F2C3F880211A6091F945
S31502004C780F204B7B002AC0F295801B0102F160458A
S31502004C88DBB205F5614585F800334C4B44F8220042
S31502004C9802F5C65553F8256026F4803643F8256092
S31502004CA853F82530BFF35F8F012553099B0002F0A5
S31502004CB81F0203F1604303F5614305FA02F2C3F8E2
S31502004CC880211A6091F910204B7B002A63DB1B01B5
S31502004CD802F16045DBB205F5614585F80033374BCD
S31502004CE844F8220002F5C65553F8256026F48036A4
S31502004CF843F8256053F82530BFF35F8F0125530922
S31502004D089B0002F01F0203F1604303F5614305FAB3
S31502004D1802F2C3F880211A6091F90E204B7B002A11
S31502004D2831DB1B0102F16041DBB201F5614181F819
S31502004D380033224B44F8220002F5C65153F82140AB
S31502004D4824F4803443F8214053F82130BFF35F8FAF
S31502004D58012153099B0002F01F0203F1604303F588
S31502004D68614301FA02F2C3F880211A609F2203699D
S31502004D781A7070BC7047124C02F00F051B01DBB2A9
S31502004D882C44237655E70E4902F00F051B01DBB2C8
S31502004D9829440B76CDE70B4D1B0102F00F06DBB259
S31502004DA8AB559CE7074D1B0102F00F06DBB2AB556C
S31502004DB86BE700BF40420F00A0B207220060004026
S31502004DC8FCEC00E014ED00E0F8B500250A781C4B6F
S31502004DD8016013441B0203618B680E4643600B7B1A
S31502004DE804460372CB6943630B6A80F82950C3638E
S31502004DF880F82A50856380F82B50C0E90555C0E92A
S31502004E08075580F82C50EFF31087012181F310889B
S31502004E180C4A33785068C3F1090301FA03F320EA0E
S31502004E280303536053681E2001F05CFE87F3108863
S31502004E3820463146FFF7ACFE034B2846E360F8BD31
S31502004E48E0254000003020404349495210B582B05F
S31502004E58EFF30383103B5F4A5BB203F5C65352F87E
S31502004E68231021F4803142F8231052F82330EFF34D
S31502004E780383594A103B5BB252F8234094F82D300B
S31502004E885BBBA369022B22D9E369012B0ED12269E6
S31502004E98137943F0100313712269137943F0080357
S31502004EA813712269137923F01003137123685B6A5D
S31502004EB8DB79002B3ED101222369DB7CDBB28DF83C
S31502004EC807309DF8073084F82D2002B010BD2269FC
S31502004ED8137943F040031371D6E7E369002BF4D044
S31502004EE82268526AD279FAB9032B17D0022B26D036
S31502004EF8012B34D02269236AD17C6269D154D4E960
S31502004F0807320132013BC4E90732002BDDD12169A0
S31502004F180A7963F386120A7102B010BD22691379FF
S31502004F2843F040031371E5E705212046FFF750FDDC
S31502004F38E369D9E705212046FFF74AFDBBE722695F
S31502004F48137943F0100313712269137943F00803A6
S31502004F5813712269137923F010031371CAE794F8BF
S31502004F682A2072B322681D4892F90F20510902F0CD
S31502004F781F0203FA02F2203140F82120BFF34F8FB5
S31502004F88BFF36F8F04202169CA7942F08002CA7181
S31502004F9821690A7942F010020A7121690A7922F016
S31502004FA808020A7121690A7922F010020A71226935
S31502004FB8507021694A7922F001024A7184F82C302C
S31502004FC898E708212269537A03F0F7035372236993
S31502004FD859708FE700600040A0B2072200E100E0A6
S31502004FE810B5EFF30383103B434A5BB203F5C6538E
S31502004FF852F8231021F4803142F8231052F8233054
S31502005008EFF303833D4A103B5BB252F8234094F810
S315020050182730002B40D194F82930002B3BD1236846
S315020050285B6ADB792BB194F82B3013B9236A002B10
S315020050385CD1E3692169002B41D1CB79C02223F0E7
S315020050488003CB71216901E0013A02D0CB79DB09F1
S31502005058FAD12368284A93F9103003F5C65352F851
S31502005068231021F4803142F8231052F823302368A2
S3150200507893F91030002B09DB01215A09204803F065
S315020050881F03603201FA03F340F822302269D3790A
S3150200509843F04003D37110BD94F82630032B1CD07D
S315020050A894F8242023699A7494F8282094F82730CF
S315020050B80132013B84F8282084F8273010BD236A80
S315020050C86269D35C8B74D4E907320132013BC4E9C5
S315020050D80732002BDFD12169AFE794F82830022B7B
S315020050E8DED194F83030002BDAD110BD05212046E6
S315020050F8FFF76EFC9DE700BF00600040A0B20722E2
S3150200510800E100E038B5EFF30383344A103B5BB2A3
S3150200511852F8234023685B6ADB79002B4BD194F85B
S3150200512829301BB194F82730012B52D0E369E3B139
S315020051382169C023CA7922F04002CA71216901E0B5
S31502005148013B02D0CA795206FAD4EFF30383103B25
S31502005158234A5BB203F5C65352F8231021F4803171
S3150200516842F8231052F8233038BD94F82A203AB36D
S31502005178012022681B4D92F90F20510902F01F02E5
S31502005188203100FA02F245F82120BFF34F8FBFF310
S315020051986F8F4FF0040C2169CA7942F08002CA71F6
S315020051A8226982F801C021694A7963F300024A71C9
S315020051B884F82C00BCE705212046FFF709FCAEE778
S315020051C808212269537A03F0F70353722369597047
S315020051D8AEE794F83030002BAAD0A7E7A0B2072290
S315020051E80060004000E100E038B5EFF303834F4A60
S315020051F8103B5BB252F823000269537A517ADC06F5
S3150200520801F0E00151725FFA83FC03F003022CD528
S315020052180369597849064ED40024012580F82B5093
S31502005228DC710168FFF7B4FCB32290F82630816975
S3150200523880F82830036980F82C400162C46180F83E
S315020052482A402946DA71FFF7C3FBEFF30383103BC3
S31502005258374A5BB203F5C65352F8231021F480315C
S3150200526842F8231052F8233038BD002A5CD11CF0CC
S31502005278080F11D0C369002B45D190F82B30002BAB
S3150200528841D1B32290F829100369C1F10301C9B2C9
S31502005298DA71FFF79DFBD8E790F82C200CF004038F
S315020052A842B3002BD1D0C369002B3BD190F82B30E7
S315020052B8002B37D1E5E7002AAED15A78C2F380111E
S315020052C85206D4D5082280F82B105A700368016951
S315020052D85A6A94791378527943EAC41343EA021351
S315020052E843F00203DBB2CB700269537943F0010340
S315020052F85371AAE7002BA8D003685B6ADB79002BF7
S31502005308A3D00421C5E70023B32190F82650846967
S31502005318026980F82C3080F828500462C36180F84C
S315020053282A30D1710121B4E7036975E7A0B20722D1
S315020053380060004003460020D3E902235360704709
S3150200534830B48C6E01342AB1944203D930BC013A86
S315020053581A607047029D496B0078ED0754BF01F049
S315020053681F01C1F30441032808D9090981F0010183
S315020053786AB9A1B930BC02225A60704701F00C0121
S31502005388A1F10401B1FA81F14909002AF1D0944246
S3150200539801D80029EED130BC03225A607047002C8E
S315020053A8E8D0F8E74FF0010C2DE9F0430B7C002515
S315020053B80CFA03F3C360C3F30D03B3FA83F35B0971
S315020053C8416003740B7CAD4A0E461A44120282608F
S315020053D84B69044643618B6985B0C0E90653CD69BA
S315020053E8EFF310878CF31088097CA54B0A1F052A50
S315020053F883BF4FF00042CA40D2436FF000621B6976
S3150200540813409F4A1361136901211E2001F06AFBAA
S3150200541887F31088E36819070DD0EFF3108101238B
S3150200542883F31088974AE06853889BB223EA0003FD
S31502005438538081F310884FF425400022A3684FF069
S3150200544800411860A368DA62A368DA63A3689A64FB
S31502005458337A3078DB05032843F4803008BF0346E5
S31502005468A7687068FB62A36801381961A368596165
S31502005478A3689961A1684A62A1688A62A168AB6950
S31502005488CB61A168EB690B62A1688866A168486668
S315020054984FF0FF300021CDE9020130782F6D002848
S315020054A840F0F08101204FF0030E7368D4F80880AB
S315020054B85B08013B0293C8F85430A26893653278B8
S315020054C8032A03D9A268D365A26813662B6DD3B9DA
S315020054D82B78A3B133786A78022B4FEA821C4FEAFB
S315020054E8021100F00282032B03D0002A0CBF062306
