S01F000074726F6E5F656467655F666F6D6F5F6370755F747970652E7372656376
S31502000000008502225D9F0202359D0202599F02026D
S31502000010599F0202599F0202599F0202599F0202E8
S31502000020000000000000000000000000599F0202CC
S31502000030599F020200000000599F0202599F0202C4
S3150200004015800202A9810202CD820202B183020256
S31502000050F5910202E9930202F1710202F9710202BA
S3150200006095770202ED77020289780202E1780202AE
S3090200007039790202CE
S3150200007401010000006C0000010000000000000005
S31502000084010300005D1003020B0000000080000063
S31502000094000000000000000001030000151803021E
S315020000A40A00000000040000000000000000000036
S315020000B4010300002D1803020A000000008000005C
S315020000C400000000580000220000000000860E22F4
S315020000D468860E22D0860E22000000000000000070
S315020000E40000000000000000000000000000000004
S315020000F400000000000000000000000000000000F4
S3150200010400000000000000000000000000000000E3
S3090200011400000000DF
S3150200011800000000000000000000000000000000CF
S3150200012800000000000000000000000000000000BF
S3150200013800000000000000000000000000000000AF
S31502000148000000000000000000000000000000009F
S315020201800348044B834202D0034B03B1184770471C
S31502020190A4000022A400002200000000064B074928
S315020201A0C91A891048BF0131491003D0044B0BB159
S315020201B001481847704700BFA4000022A40000228B
S315020201C00000000010B5064C237843B9FFF7D8FFAA
S315020201D0044B13B10448AFF300800123237010BD10
S315020201E060B109220000000028F1C90208B5054BD8
S315020201F01BB105490548AFF30080BDE80840FFF789
S31502020200CDBF00BF0000000064B1092228F1C90275
S315020202100DF068BA022800D0704708B54FF47A7119
S31502020220C82009F043FD0449044807F093FCBDE8DF
S315020202300840012009F028BE743303027CB1092268
S3150202024008B5FFF7E5FF002008BD00BF30B4039DE5
S315020202508446E80625F0300403D5DCF88000000265
S315020202601BD5A80603D5DCF88000800215D50D3C05
S31502020270022C0BD9DCF824400020C4F87031029B10
S31502020280C4E95A12C4E95D3530BC7047DCF8800015
S31502020290C403EFD4C0B20928ECD809238CF8C631BC
S315020202A0184630BC704700BF2DE9F04F9A46894680
S315020202B091B0BDF96C401F9E0894BDF9704026F0BC
S315020202C0080C0994BDF9744051440A94BDF9784068
S315020202D090460B94446ABDF868B0D4F86C31056B4B
S315020202E0B3F5006FA8BF6646D4E95C239142A2EB3E
S315020202F00A02D8BF4A460D92D4F87821074602F07E
S31502020300100207920BEB08029A42A3EB0B03D8BF29
S3150202031043460E93E37D25B116F480720C9200F0E9
S3150202032003810C930321384600F07EFF00223846F1
S31502020330114605F0E9FF079B002B00F05681D4F81F
S31502020340683106F00F0138460D9306F0EDFAD4E94C
S315020203505B23D4F878010D990190D4F874010090C8
S31502020360384606F033F9B30600F1C9804FF07F43EF
S315020203701A46F00606F0400140F1CE80A068002936
S3150202038000F06B81E16802430B43C4E9562394F8F9
S315020203900E3143F0050384F80E31BDF82030102BDE
S315020203A040F24D814FEA0951B1FBF3FE099A4FEA37
S315020203B06E03102A40F34A814FEA0850B0FBF2F06C
S315020203C04210B10544BFC3EB0943CEF1000E7105DB
S315020203D048BFC2EB0842A3F5004C48BF4042079908
S315020203E016F0040F18BF634616F0080FA2F5004C6A
S315020203F018BF624619B103EB0A4302EB0B424FF0F6
S31502020400000CDDF82C90DDF82880CDE9002E41465D
S315020204104A460490CDE902CC384605F04DFF0998CA
S315020204204B4601900898424600902146384600F013
S315020204303BFD002D00F0D480F30500F1D1802B782C
S31502020440E375AB7884F80E316B7884F8D5306B6835
S31502020450C4F8FC30AB68C4F80031EB68C4F82C313E
S3150202046095F8293084F8E9302B69C4F838316B697A
S31502020470C4F8343195F8283084F8E830AB69C4F808
S31502020480EC30EB69C4F8F0302B6AC4F8F4306B6ACC
S31502020490C4F8F83095F82A3084F8EA3095F82B3009
S315020204A084F8EB30EB6AC4F83C312B6BC4F840316A
S315020204B06B6BC4F82431AB6BC4F85831EB6BC4F8DE
S315020204C05C31B5F95430A4F8A830B5F95630A4F81F
S315020204D0AA30EB6CC4F8A0302B6DC4F8A4306B6C56
S315020204E0C4F89830AB6CC4F89C30EB6DC4F8B030EB
S315020204F02B6EC4F8B430002011B0BDE8F08F16F0AE
S31502020500800200F0A780F0064FF000034FF07F4210
S3150202051006F040013FF532AF002900F0A080A16843
S315020205200A43E1680B4330E72B7094F80E31AB7045
S3150202053094F8D5306B70D4F8FC306B60D4F8003185
S31502020540AB60D4F82C31EB6094F8E93085F82930A7
S31502020550D4F838312B61D4F834316B6194F8E8302F
S3150202056085F82830D4F8EC30AB61D4F8F030EB6180
S31502020570D4F8F4302B62D4F8F8306B6294F8EA308D
S3150202058085F82A3094F8EB3085F82B30D4F83C31D2
S31502020590EB62D4F840312B63D4F824316B63D4F87E
S315020205A05831AB63D4F85C31EB63B4F9A830A5F8E1
S315020205B05430B4F9AA30A5F85630D4F8A030EB6418
S315020205C0D4F8A4302B65D4F898306B64D4F89C30F6
S315020205D0AB64D4F8B030EB65D4F8B4302B66A1E63E
S315020205E038460C9900F020FE85E7D4F8783123F0DC
S315020205F03003422B36D8DFE803F052616A61614862
S315020206006A61615252525252525235353535353538
S315020206103535353535353535353535353535353580
S315020206203535353535353535353535353535353570
S31502020630353535353535353535356A616100099ACF
S315020206400023102A4FF4803E3FF7B6AE00224FF443
S315020206508030B6E64FF07F438BE6034395E663F0BE
S315020206607F4392E6384606F00F0106F05DF9002254
S31502020670D4F878011146D4F86C2101900E980D9B9C
S315020206800090384605F0A2FF6DE6D7F880309A024E
S3150202069026D5012384F8E930144BC4F82C31D4F858
S315020206A06C31D4F8682103FB0BA31A44384606F0D0
S315020206B00F010F9206F038F90F9AD9E7D4F86C3186
S315020206C0D4F8682103FB0BA302EB4302EEE7D4F84C
S315020206D06C31D4F8682103FB0BA302EB8302E5E734
S315020206E00923184687F8C63106E700BF1000040040
S315020206F02DE9F04F85B0BDF93860BDF93CC056B35D
S31502020700BCF1000F27DD98460023A2F1100722F062
S315020207100F0B91461A463744A8F110066644BFB239
S31502020720B6B207F10F0E2EF00F0E06F10F0C2CF0D9
S315020207300F0C28F00F0A6BF30F036EF30F020D462E
S315020207406AF31F436CF31F4202A904460293039201
S3150202075006F070FB18B9002005B0BDE8F08F2046FE
S31502020760294605F033F995F8D5303FB2980736B2E5
S3150202077033D4D90700F14A8100232946204602AA28
S31502020780009302F0B7FB064600232946204602AA38
S3150202079004F0ECFC0023294602AA204606F0F0F8F1
S315020207A00022D4F8B83103F10801C4F8B811C3E93A
S315020207B00026D4F8BC31013B9342C4F8BC3103DCB7
S315020207C02046D4F8C03198472046002202A905F0F5
S315020207D0BBFB012005B0BDE8F08FDA0700F11681F6
S315020207E049EA070348EA06021B0702F00F0200F073
S315020207F0C982BDF90830D4F8B811A3EB09031B0369
S3150202080003F5803301F10800C4F8B8014B600423F2
S315020208100B60D4F8BC31013BC4F8BC31002A00F0AB
S315020208200582002B03DC2046D4F8C03198470A2100
S315020208304FF48032D4F8B83103F10800C4F8B80193
S31502020840C3E90012D4F8BC31013B002BC4F8BC3117
S3150202085003DC2046D4F8C031984700221021D4F88E
S31502020860B83103F10800C4F8B801C3E90012D4F89A
S31502020870BC31013B9342C4F8BC3103DC2046D4F8B6
S31502020880C03198470521BDF90830D4F8B821FF1ABC
S315020208903B0303F5803302F10800C4F8B801C2E94A
S315020208A00013D4F8BC31013B002BC4F8BC3103DC83
S315020208B02046D4F8C03198470B22D4F8B831DA4927
S315020208C003F10800C4F8B801C3E90021D4F8BC3127
S315020208D0013B002BC4F8BC3103DC2046D4F8C031FC
S315020208E0984700221121D4F8B83103F10800C4F85E
S315020208F0B801C3E90012D4F8BC31013B9342C4F8F1
S31502020900BC3103DC2046D4F8C03198470621BDF932
S315020209100A30D4F8B821A3EB08031B0303F580338C
S3150202092002F10800C4F8B801C2E90013D4F8BC31D6
S31502020930013B002BC4F8BC3103DC2046D4F8C0319B
S315020209409847D4F8B831002103F10802C4F8B82155
S315020209500C22C3E90021D4F8BC31013B8B42C4F814
S31502020960BC3103DC2046D4F8C0319847D4F8B831FA
S315020209704FF4803103F10802C4F8B8211222C3E906
S315020209800021D4F8BC31013B002BC4F8BC3103DC94
S315020209902046D4F8C03198470721BDF90A30D4F867
S315020209A0B821F61A330303F5803302F10800C4F8BC
S315020209B0B801C2E90013D4F8BC31013B002BC4F8DA
S315020209C0BC3103DC2046D4F8C031984700220D21FF
S315020209D0D4F8B83103F10800C4F8B801C3E9001229
S315020209E0D4F8BC31013B9342C4F8BC3103DC204645
S315020209F0D4F8C03198471322D4F8B83103F108016A
S31502020A00C4F8B8118849C3E90021F7E00421BDF907
S31502020A100830D5F81021A3EB090302FB03F302EB1C
S31502020A201312D4F8B83103F10800C4F8B801C3E9C5
S31502020A300012D4F8BC31013B002BC4F8BC3140F39E
S31502020A407E810A22D4F8B831D5F8101103F10800D2
S31502020A50C4F8B801C3E90021D4F8BC31013B002B2A
S31502020A60C4F8BC3140F3898100221021D4F8B8318E
S31502020A7003F10800C4F8B801C3E90012D4F8BC3184
S31502020A80013B9342C4F8BC3140F372810521BDF9A0
S31502020A900830D5F81021FB1A02FB03F302EB1312FC
S31502020AA0D4F8B83103F10800C4F8B801C3E9001258
S31502020AB0D4F8BC31013B002BC4F8BC3140F353815C
S31502020AC00B21D5F810315A42D4F8B83103F1080095
S31502020AD0C4F8B801C3E90012D4F8BC31013B002BB9
S31502020AE0C4F8BC3140F33A8100221121D4F8B8315C
S31502020AF003F10800C4F8B801C3E90012D4F8BC3104
S31502020B00013B9342C4F8BC3140F30F810621BDF981
S31502020B100A30D5F81021A3EB080302FB03F302EB1A
S31502020B201312D4F8B83103F10800C4F8B801C3E9C4
S31502020B300012D4F8BC31013B002BC4F8BC3140F39D
S31502020B40EF80D4F8B831002103F10802C4F8B821C3
S31502020B500C22C3E90021D4F8BC31013B8B42C4F812
S31502020B60BC3140F3E7801222D4F8B831D5F810111D
S31502020B7003F10800C4F8B801C3E90021D4F8BC3174
S31502020B80013B002BC4F8BC3140F3C580BDF90A30E3
S31502020B90D5F81021F31A02FB03F302EB1312072311
S31502020BA0D4F8B81101F10800C4F8B801C1E900325B
S31502020BB0D4F8BC31013B002BC4F8BC3140F3C980E6
S31502020BC000220D21D4F8B83103F10800C4F8B801A5
S31502020BD0C3E90012D4F8BC31013B9342C4F8BC31DA
S31502020BE040F3B280D4F8B831D5F8102103F10801E6
S31502020BF0C4F8B81113215242C3E90012D4F8BC3127
S31502020C00013B002BC4F8BC3103DC2046D4F8C031C8
S31502020C1098470F26042300962946204602AA02F086
S31502020C2069F90646B0E500BF0000FFFF002B03DCB0
S31502020C302046D4F8C0319847D4F8B8314FF48031FF
S31502020C4003F10802C4F8B8210A22C3E90021D4F842
S31502020C50BC31013B002BC4F8BC3103DC2046D4F87C
S31502020C60C0319847D4F8B831002103F10802C4F81A
S31502020C70B8211022C3E90021D4F8BC31013B8B42D0
S31502020C80C4F8BC3103DC2046D4F8C03198470521AA
S31502020C90BDF90830D4F8B821FB1A1B0303F58033D9
S31502020CA002F10800C4F8B801C2E90013D4F8BC3153
S31502020CB0013B002BC4F8BC3103DC2046D4F8C03118
S31502020CC098470B22D4F8B83103F10801C4F8B811D7
S31502020CD07449C3E90021D4F8BC31013B002BC4F8A4
S31502020CE0BC3103DC2046D4F8C031984700221121D8
S31502020CF0D4F8B83103F10800C4F8B801C3E9001206
S31502020D00D4F8BC31013B9342C4F8BC3140F3C480EF
S31502020D10032602237FE72046D4F8C031984735E7F7
S31502020D202046D4F8C03198470BE72046D4F8C031A2
S31502020D309847EBE62046D4F8C031984713E7204697
S31502020D40D4F8C03198477CE62046D4F8C031984799
S31502020D5048E72046D4F8C031984731E72046D4F80E
S31502020D60C0319847C0E62046D4F8C0319847A7E674
S31502020D702046D4F8C031984788E62046D4F8C031D6
S31502020D80984771E6002A3FF4F7AC0421BDF90A300E
S31502020D90D4F8B821A3EB08031B0303F5803302F14F
S31502020DA00800C4F8B801C2E90013D4F8BC31013B09
S31502020DB0002BC4F8BC3103DC2046D4F8C031984774
S31502020DC0D4F8B831002103F10802C4F8B8210A2284
S31502020DD0C3E90021D4F8BC31013B8B42C4F8BC31D1
S31502020DE003DC2046D4F8C0319847D4F8B8314FF420
S31502020DF0803103F10802C4F8B8211022C3E90021A6
S31502020E00D4F8BC31013B002BC4F8BC3103DC2046CA
S31502020E10D4F8C03198470521BDF90A30D4F8B82171
S31502020E20F31A1B0303F5803302F10800C4F8B80172
S31502020E30C2E90013D4F8BC31013B002BC4F8BC3121
S31502020E4003DC2046D4F8C031984700220B21D4F89D
S31502020E50B83103F10800C4F8B801C3E90012D4F8A4
S31502020E60BC31013B9342C4F8BC3103DC2046D4F8C0
S31502020E70C03198471122D4F8B83103F10801C4F8F7
S31502020E80B8110849C3E90021D4F8BC31013B002B51
S31502020E90C4F8BC313FF73CAF2046D4F8C03198477C
S31502020EA036E700BF0000FFFF30B4BDF90850BDF9B6
S31502020EB00C40CDE9025430BCFFF71ABC30B5944659
S31502020EC08E461C4683B0BDF91850816A7246634645
S31502020ED0CDE90045FFF70CFC002003B030BD00BF90
S31502020EE010B582B0BDF9104000930194B0F86EE0DD
S31502020EF0B0F87030134401EB0E021BB2C16A12B291
S31502020F00FFF7F6FB002002B010BD00BF2DE9F04F3D
S31502020F10B0F96C4091B0002CBDF968C044DD102CCA
S31502020F200F4606469846C16A0BD091F8D730012B76
S31502020F303ED1B1F9D830A3423ADD91F8D530DB077A
S31502020F4036D41FFA8CFA95B2A2B2AB1AB8B20AEB2F
S31502020F50420B0FFA83F90FFA8BFB821A4B46079062
S31502020F6012B230460094CDF804B0FFF7C1FBCDE9C8
S31502020F7000844B463A46F16A3046FFF7B9FB0798B8
S31502020F80CDF804B000EB080200944B46F16A12B2A5
S31502020F9030465544FFF7ACFBF16A3A463046CDE994
S31502020FA000842BB2FFF7A4FB002011B0BDE8F08F3C
S31502020FB0BFB292B2A8F10808ACF1080C94440194AB
S31502020FC0B844C4F34F04083F083A3F1B121BA0441D
S31502020FD0644492B2BFB21FFA88F8A4B2ADF82220D4
S31502020FE0ADF82620ADF82070ADF82C70ADF824804D
S31502020FF0ADF82880ADF82A40ADF82E40002304252C
S315020210009DED907E0CAA82ED807E3046CDE90333B9
S315020210100295009504F06EF9002011B0BDE8F08F3A
S315020210202DE9F04105461C460F46904682B0BDF9AF
S31502021030206020340096FFF769FF2036284604F026
S3150202104087FC36B2A8F11003A7F1100224B2A96AEC
S315020210501BB212B22846CDE90046FFF749FB2846E3
S3150202106004F09AFC002002B0BDE8F0812DE9F041BD
S3150202107004460E4617461D4682B0BDF920800093ED
S31502021080CDF80480B0F870301344B0F86E201BB26B
S315020210900A4412B2C16AFFF72BFB204604F058FC3F
S315020210A0A16A3B4632462046CDE90058FFF720FBAD
S315020210B0204604F071FC002002B0BDE8F08100BFB8
S315020210C02DE9F04106464FF4BE7003F0CDFF044609
S315020210D0002800F096806FF07F424FF07F43466011
S315020210E0C4E902224FF4B05200254FF48031C4E91A
S315020210F05333C4F854314FF0FF3702201023C4F899
S315020211001C214FF47032C4F8101184F8D5002761FD
S31502021110C4F8285184F80E51A382D6F88030C4F856
S315020211203421042284F8E9204FF4002213F0006FDE
S315020211303B4B08BF4FF480039FED356B9FED367B29
S3150202114040F2011E4FF0400CC4F82C214FF0AA08BF
S315020211500122C4E94F55C4F82031C4F84451706DD6
S3150202116084ED317F034343F4012343F4C063C4E9AC
S315020211704581C4F82431C4F83011C4F8162084F823
S31502021180D420A4F8D6E0C4F8D8C004F11C0084F82E
S315020211900F51C4E93F55A4F80C21C4E94155C4F8DC
S315020211A0485101F09FFE04F1340001F09BFE04F166
S315020211B04C0001F097FE04F1640001F093FE04F183
S315020211C07C0001F08FFE04F1940001F08BFE04F123
S315020211D0AC0001F087FE0C22124B3046C4F8E43012
S315020211E02146C4E93757C4F8387184F8E82005F075
S315020211F0A1F8F36920462360F46186F8C651BDE878
S31502021200F081012586F8C6512046BDE8F08100BF6D
S31502021210AA00000004000000000000001000000006
S315020212200800402001030303436A024693F80E01B3
S31502021230022940F00100D97583F80E0116D009D8A9
S3150202124093F8D51021F00C0183F8D510002082F80C
S31502021250C60170470329F9D1002093F8D51041F04F
S315020212600C0183F8D51082F8C6017047002093F864
S31502021270D51021F0080141F0040183F8D51082F855
S31502021280C601704703464FF0000C10B45C6A023185
S3150202129022F07F4244F82120596A604691F80E21D3
S315020212A042F0010281F80E2183F8C6C15DF8044BB1
S315020212B0704700BF00B5436A024693F812C093F81C
S315020212C00E018C4540F0010E18BF40F0070083F86C
S315020212D00EE118BF83F80E01987D9974C0074FF08C
S315020212E0000044BF0906C3F84C1182F8C6015DF834
S315020212F004FB00BF00B5436A024693F816C093F890
S315020213000E018C4540F0010E18BF40F00700997598
S3150202131083F80EE118BF83F80E01C90758BF4FF0D2
S315020213207F414FF0000044BF997C0906C3F84C1175
S3150202133082F8C6015DF804FB10B4446A032994F8E4
S315020213400E31844643F0010384F80E3127D81A4B34
S3150202135053F82110032A22D8DFE802F02B040228CE
S3150202136041F480610022D4F82001D4F82C31C4F869
S315020213701C110343DCF854000343D4F83C01034333
S31502021380D4F840010343D4F8440103430B43C4F89F
S3150202139024318CF8C62110465DF8044B70471022A0
S315020213A08CF8C62110465DF8044B704741F4A051F1
S315020213B0D8E741F48051D5E75436030230B4426A83
S315020213C0034692F8D50059B1002440F002010020EA
S315020213D0C2F8284182F8D51083F8C60130BC70479C
S315020213E04FF480354FF0100C4FF4FC4400F0FC0130
S315020213F0C2F81051A2F814C0E9E700BF6FF07F43AA
S31502021400D0F84C11027C90F811C0090A01FB023293
S3150202141001FB0C3390F80E1102F07F4203F07F4378
S3150202142021F00201C0E9542380F80E11704700BF71
S315020214302DE9F04F87B0BDF944E0BDF9407091F84D
S31502021440D5B01FFA8EFCA7EB0C061BF0010FA3EB1D
S315020214500C0C1546DDE9128904461FFA86FA1FFAB2
S315020214608CF0149A36B20FFA8CFC00F0C680C3F1E5
S3150202147008030393C7F10803049306FB06F30CFB66
S315020214800C3303F1FF00002BB8BF0346B1F914A0D7
S31502021490D1F8100166440EEBDE7106EB6106F11716
S315020214A0A6FB00764FEAE37B059700FB01661F1255
S315020214B0002A40F0528172464FF07840D3174FF01D
S315020214C0FF3110F04DFE524650EA0F21D31710F0AB
S315020214D047FE0BFB00FB07FB01BBA0FB07371BEB1F
S315020214E0070702D50F3347F100079A46BB46059B0B
S315020214F0019600935AEA2F1BDDE9006756EA0F1797
S31502021500BAEB06026BEB07061346321E02DAFF330A
S3150202151042F100021E46174600290B4656EA2F27BB
S3150202152005DA40F6FF73C318184641F100039B46DB
S3150202153082465AEA2F3B039B2A1D03FB0AF77F00C8
S31502021540002F07F10F03B8BF1F46049B3F1103FB8F
S315020215500AFB4FEA4B0B0BF10F03BBF1000FB8BFAD
S315020215609B46D4F8B8314FEA2B1B03F10801B9F1B5
S31502021570000F7CD07642A6EB0806C4F8B8111A60B0
S315020215805E60D4F8BC31013B002BC4F8BC3103DCEB
S315020215902046D4F8C0319847D4F8B8317F4203F1D5
S315020215A00802C4F8B8216A1D5F601A60D4F8BC3119
S315020215B0013B002BC4F8BC3103DC2046D4F8C0310F
S315020215C09847D4F8B831CBF1000703F10802C4F800
S315020215D0B82105F11002C3E90027D4F8BC31013B58
S315020215E0002BC4F8BC3103DC2046D4F8C03198473C
S315020215F0D4F8B831CAEBCA7A74E050EA0A0000F0AB
S315020216009980C3F10801724BC7F1080793FBFEFAF0
S3150202161006FB06F366440CFB0C3C8CFB0A2C634667
S315020216204FEAEA0A0AFB01F10AFB07FB4F004FEAFD
S315020216304B0B002F52EAEF2307F10F03B8BF1F46E7
S31502021640BBF1000F0BF10F03B8BF9B460EEBDE7E1A
S3150202165006EB6E06A2EB06363F114FEA2B1BD4F8B7
S31502021660B8312A1D03F10801B9F1000F82D14644AD
S31502021670C4F8B811C3E90026D4F8BC31013B002BE9
S31502021680C4F8BC3103DC2046D4F8C0319847D4F8FA
S31502021690B8316A1D03F10801C4F8B811C3E900277B
S315020216A0D4F8BC31013B002BC4F8BC3103DC204622
S315020216B0D4F8C0319847D4F8B83103F10802C4F815
S315020216C0B82105F11002C3E9002BD4F8BC31013B63
S315020216D0002BC4F8BC3103DC2046D4F8C03198474B
S315020216E0D4F8B83103F108014FEA4A0605F10B02B2
S315020216F0C4F8B811C3E90026D4F8BC31013B002B69
S31502021700C4F8BC3103DC2046D4F8C0319847D4F879
S31502021710B831113503F10802C4F8B821C3E90056FB
S31502021720D4F8BC31013B002BC4F8BC3149DD07B009
S31502021730BDE8F08F274BCEF1080793FBFEFA0AFBB0
S3150202174007F77F00002F07F10F03B8BF1F46CEEB44
S315020217504E563F11BB46F60281E7D4F880305B0152
S315020217607FF5A9AE4FF0784393FBFEF39B0193FB01
S31502021770FAF3039A4FEA231A049902FB0AF201FBCD
S315020217800AFB002A83FB071002F10703B8BF1A46B7
S31502021790BBF1000F0BF10703B8BF9B4600284FEAC5
S315020217A0E2074FEAEB0B04DA11F10F03194640F195
S315020217B000000A46034652EA2F130599A2EB810656
S315020217C04DE72046D4F8C03107B0BDE8F04F1847BE
S315020217D00000C0FF0000F8FFF8B5064614200D46C9
S315020217E0B76903F041FC002835D000238560C36047
S315020217F0B36E044605EB8505D8074FEA850113D574
S31502021800084603F031FC606010B300232361B36E15
S31502021810D90705D4D6F88430DA0613D49B0707D43F
S31502021820002323602046F8BD304603F05BFCEAE75C
S31502021830A268042102EB82023846920007F01EFEDB
S315020218402061EDE70146384607F02EFE2061E7E702
S31502021850204603F00BFC0024E4E700BFF8B58769D3
S3150202186011B306460C460CE0304603F05DFC2A69CB
S315020218701AB1D6F884309B070DD4284603F0F6FB3C
S3150202188094B12546B36E2468DA076968ECD5084630
S3150202189003F0ECFBEBE73846042107F0FFFD28468E
S315020218A003F0E4FB002CECD1F8BD00BF10B583684F
S315020218B00446186838B100224368C260236183680D
S315020218C0A060E36110BD216A2068FFF785FF10B1AF
S315020218D0A3681860EFE71522236883F8C72110BDB3
S315020218E02DE9F0414569044682B0002D3CD0C1691A
S315020218F0AB69002933D10268012BD2F8188040F273
S31502021900978086682F69B268736802EB820203EBDC
S31502021910820307EB8207F26800690AB11760F16077
S31502021920834207D91A1A013A22F0030280210432AB
S3150202193010F03AFFD6E90123102603EB8303296945
S315020219409B004046009607F0B3FDAB692F61013B4F
S31502021950AB61204602B0BDE8F041FFF7A7BF012BFB
S3150202196023D002B0BDE8F08140F2FF310369774A23
S315020219701A6003695D6006698368321DDA6003696B
S31502021980996003F10C02C3690261013BC0E9065385
S31502021990FFF78CFF236893F9C731002B7DD1A36829
S315020219A05B68736002B0BDE8F081E96902680129E9
S315020219B0D2F8188041D9EE680139A768E9617068E0
S315020219C0002800F0AE80FB68002B55D01860002379
S315020219D0FB60A2692369032A0FD8DFE802F05840A6
S315020219E0023340F2FF311A88D96042F0004242F4D1
S315020219F000021A6003F11002226100211027E36934
S31502021A00A268013BE361A161D2E9012303EB8303ED
S31502021A1029699B004046009707F04AFD7368002B2E
S31502021A2097D0331DEB6072686B692A61AB6190E7EE
S31502021A30E9690129BFD88CD1012B04BF152382F88B
S31502021A40C73186E71A6822F07F4242F000421A60E4
S31502021A5040F2FF321A61236914332361CDE740F261
S31502021A60FF311A78996042F0802242F400021A602B
S31502021A7003F10C022261C0E72369344A1A60236920
S31502021A8058602369A2680433D3602369083340F29B
S31502021A90FF3243F8042B2361AFE72369A269A3F15C
S31502021AA00C012161032A11D8DFE802F0162D1E026B
S31502021AB040F2FF3153F80C2C596022F07F4242F079
S31502021AC0004243F80C2C2369143323610022E36992
S31502021AD0013BC4E9062344E740F2FF31A3F10802BF
S31502021AE043F80C1C2261F1E7194640F2FF3033F843
S31502021AF00C2C42F0004242F4000243F80C2C41F84C
S31502021B00040B2161E2E740F2FF3113F80C2C43F891
S31502021B10041C42F0802242F4000243F80C2C236198
S31502021B20D4E7AA68042102EB82024046920007F039
S31502021B30A5FC706000287FF446AF0122236883F871
S31502021B40C721706800283FF444AF3CE732808080A8
S31502021B5083690269032B0CD8DFE803F01002201115
S31502021B601146137843F0802343F4000341F8083BFD
S31502021B7001610022C369013BC0E90623704711468F
S31502021B801368002223F07F4343F0004341F8103BDF
S31502021B90C3690161013BC0E90623EFE711461388D7
S31502021BA0002243F0004343F4000341F80C3BC369AD
S31502021BB00161013BC0E90623E0E700BF10B5044616
S31502021BC00068816E11F0200104D13B2200F5BC703F
S31502021BD010F0EAFD63686269C4E9023362B113680E
S31502021BE0D36063691A6812681A6163695A68DA61AC
S31502021BF063695A699A6163680022596821619B681E
S31502021C00E262C4E9062310BD2DE9F0474FF000084F
S31502021C100D4686692C6814F0803F14D0B4F1803FD9
S31502021C203DD02204E7B23CD5322F00F096803946E7
S31502021C3030466A6801F032FA202F65D0AC68083560
S31502021C4014F0803FEAD15FFA84FA514630466A6856
S31502021C5001F024FABAF1200FC4F30729C4F30747A5
S31502021C604FEA14644CD049463046AA6801F016FA85
S31502021C70B9F1200F40D039463046EA6801F00EFA31
S31502021C80202F35D0214630462A6901F007FA202C48
S31502021C902AD01435BEE7002C42DBFF2F17D00435BB
S31502021CA0B8E72302F7D5FF2FC4F3072430D039460B
S31502021CB030466A6801F0F2F9202F55D021463046A5
S31502021CC0AA6801F0EBF9202C4AD00C35A2E7C4F33C
S31502021CD00728B8F1020F02D0B8F1040F3DD13046FF
S31502021CE0043501F0E1F995E7304601F0DDF9D0E776
S31502021CF0304601F0D9F9C5E7304601F0D5F9BAE71F
S31502021D00304601F0D1F9AEE7304601F0CDF995E75A
S31502021D10022C21D1304601F0C7F9A046043579E7F3
S31502021D20394630466A6801F0B9F9202FC4F3072909
S31502021D30C4F3074424D049463046AA6801F0AEF9F4
S31502021D40B9F1200F18D021463046EA6801F0A6F909
S31502021D50202C0DD010355DE7A0464046BDE8F0873F
S31502021D60304601F0A1F9B0E7304601F09DF9A5E748
S31502021D70304601F099F9EDE7304601F095F9E2E7CE
S31502021D80304601F091F9D6E72DE9F04F876EC46825
S31502021D90D0E96D5117F02007A1EB050881462268AA
S31502021DA0A66983B04FEAE80851D1A942236945D010
S31502021DB002F5BC718946DFF890A1083502F18C0B57
S31502021DC0019005E00137B84505F1080534D92268C4
S31502021DD092F9C72103EB860E701C6ABB55E9022CE7
S31502021DE01AF8021061B119F9021019B15BF8221040
S31502021DF06145E7D04FF0010109F802104BF822C003
S31502021E009A55CEF804C0E26A10F0030602F1010204
S31502021E10E262D7D1E2692369013A1433012A2361C4
S31502021E20E261CFD82046A6610137FFF759FDB845D0
S31502021E30236905F10805CAD8DDF80490A661402394
S31502021E40D9F8B421C9E96E2303B0BDE8F08FE36A7B
S31502021E504344E36292F9C731002BF0D126B32069DB
S31502021E60B8F1000FEBD0424605F1080301E0083350
S31502021E7086B153E90217013A815500EB860106F152
S31502021E8001061D464F6006F0030608F1FF38EED141
S31502021E90002ED4D10022236914332361E369013B64
S31502021EA0012BC4E906234BD95FEA98074FF00006D5
S31502021EB005D125E00136BE4205F1200520D0236870
S31502021EC093F9C731E3B92A6823691A70AA685A7064
S31502021ED02A699A70AA69DA706A685A60EA689A6026
S31502021EE06A69DA60EA691A61E3692269013B1432B4
S31502021EF0012B2261E361DDD82046FFF7F1FCD9E727
S31502021F0018F003089BD008F1010805F1080305EB56
S31502021F10C805AC460EE0A169206953E902574A1C7C
S31502021F20083300EB810602F00302634545547760EB
S31502021F30A26184D0226892F9C721002AEBD07EE7F9
S31502021F402046FFF7CDFCAFE76836030238B50446F2
S31502021F50FFF71AFFE06882690369032A0FD8DFE8EE
S31502021F6002F03326021940F2FF451A8803F11001E4
S31502021F7042F0004242F400021A60DD600161002270
S31502021F80C369013B012BC0E9062323D9002084F849
S31502021F90C60138BD40F2FF411A68196122F07F423A
S31502021FA042F000421A60036914330361E7E740F222
S31502021FB0FF451A7803F10C0142F0802242F4000234
S31502021FC01A609D600161DAE740F2FF4243F8042B90
S31502021FD00361D4E7FFF784FC002084F8C60138BD0A
S31502021FE038B50446FFF7D0FEE06882690369032A20
S31502021FF00FD8DFE802F03326021940F2FF251A88CB
S3150202200003F1100142F0004242F400021A60DD605E
S3150202201001610022C369013B012BC0E9062323D9D0
S31502022020002084F8C60138BD40F2FF211A68196100
S3150202203022F07F4242F000421A60036914330361BE
S31502022040E7E740F2FF251A7803F10C0142F08022FB
S3150202205042F400021A609D600161DAE740F2FF2251
S3150202206043F8042B0361D4E7FFF73AFC002084F815
S31502022070C60138BD2DE9F041036882B09D6E15F0A6
S31502022080010526D1D0E90274BC4280469E6912D06D
S31502022090236830461BB1E2680AB11B691360A36862
S315020220A0626803EB830321699B00009507F000FA3D
S315020220B02468A742ECD10025D8F81C00A3686268FE
S315020220C01B1A03EB8303216930469B00009507F036
S315020220D0EFF902B0BDE8F08103689A6ED20720D406
S315020220E02DE9F041D0E90264B44207469D690BD05C
S315020220F0A368626803EB8303042128469B000FF060
S31502022100A5FF2468A642F3D1FA69A36828469B1A58
S3150202211003EB830362680421BDE8F0419B000FF0E2
S3150202212095BF704703689A6ED20726D42DE9F0410D
S31502022130D0E90264B44207469D6911D0236804219C
S3150202214028461BB1E2680AB11B691360A3682269B9
S3150202215003EB83039B000FF079FF2468A642EDD1BD
S31502022160FA69A36828469B1A03EB830322690421B0
S31502022170BDE8F0419B000FF069BF70472DE9F041BF
S315020221800C46054682B008681746FFF7FDFDA269AE
S315020221902369032A0FD8DFE802F04235022840F209
S315020221A0FF311A88D96042F0004242F400021A60F4
S315020221B003F1100222610022E369013BC4E906230C
S315020221C0EB6F002B55D06369002B46D06FBB002301
S315020221D02046E361FFF784FBA2686369E260002B93
S315020221E060D0186902B0BDE8F08140F2FF311A6888
S315020221F0196122F07F4242F000421A6023691433C7
S315020222002361D8E740F2FF311A78996042F08022C0
S3150202221042F400021A6003F10C022261CBE740F299
S31502022220FF3243F8042B2361C5E70025206800F03C
S3150202223003FAE169A268D2E901235B1A616903EB37
S31502022240830309699B00009507F032F92046FFF7DE
S31502022250B5FC002318466362C4E7D5F884302046EB
S315020222609A0730D4DB0629D5FFF75CFF002FAED0E2
S31502022270ECE7D4F80880D8F8003053B3A36A0133E6
S315020222803C2BA3629FD1D8F8006000E08846314613
S315020222903668002EFAD12068FFF7E0FAC8F8006025
S315020222A0A66290E7D5F8843013F0120F02D01069B5
S315020222B0002897D1206902B0BDE8F081FFF70CFF32
S315020222C0002F84D0C2E7FFF7D5FE002F3FF47FAF7F
S315020222D0BCE7A36277E700BFB1F934300A6B002B81
S315020222E00FDD002310B41C46043A42F8044FB1F93A
S315020222F0340001339842F8DC00235DF8044BCB86A6
S3150202230070470023CB867047F8B5B1F93400B1F9AC
S315020223103660431EB3420C461746096B06DD731C32
S31502022320B00041F82670E3860844F8BD103000B2C8
S31502022330A0860122800002F09BFEB4F934300146E7
S315020223409E422063EBDA35460022B00001EB860399
S3150202235043F8042BB4F934C00135AC45F8DC731CDE
S3150202236041F82670E3860844F8BD00BF2DE9F8431A
S31502022370002708604F61D0F87C8006460C46B8F109
S31502022380000F74D0D8F8003020204B6002F06CFEA9
S3150202239005466061002867D0D8F80800800002F07E
S315020223A063FE8146286000285ED0D8F8081069606C
S315020223B0D6F88830D8F8042003FB02F2AA60D8F8CD
S315020223C004306B6171B1012307606A689A4206D9C9
S315020223D02A6842F823706A6801339A42F8D8D5F815
S315020223E00090AA68C5F80C9002EB82020421B06939
S315020223F0920007F043F8C9F800002B681B68002B0D
S3150202240032D069686A692B61C5E906216068E060B3
S3150202241050B300231022A0604168216181684020E6
S31502022420C4E90631C4E90A33A28602F01DFE20631C
S31502022430D0B1636903B31B681A68B4F93430002B4E
S3150202244009DD00231D46011F41F8045FB4F9340079
S3150202245001338342F8DB002321463046E386FFF747
S3150202246053FF0120BDE8F8830020BDE8F883114638
S31502022470FFF7B2F96060CAE7D6F88420636812F001
S31502022480120F02D01A69002AD7D15A68D5E700BFBD
S31502022490F8B505464FF4EA7002F0E6FD0446002856
S315020224A057D000264FF0000202234FF40011A0F883
S315020224B0C621C0E90666C0E9123685664165066529
S315020224C0FEF7FEFDA6EE100B6A0684ED087F03D424
S315020224D0702002F0C9FD0646002315F0040F0CBF58
S315020224E005210421C4E90D33C4E90F33C4E91B33C0
S315020224F084F8C63184F8C43163646367A4F8783019
S31502022500636180EF50602B074FF033004FF00005F6
S315020225104FF0010748BF21F00401221D26636766B8
S3150202252082ED007F40F22712C4F88800E16504F1C9
S315020225308C0029462566E56710F036F90822064B15
S31502022540C4F88050196884F8C851216084F8C521FC
S315020225501C602046F8BD00BF28B2092270B50446A7
S3150202256000F076FDA06100285ED03B22002104F530
S31502022570BC7010F019F9E56F7DB1D4F888102046C7
S31502022580FFF72AF906462E602046D4F88810FFF78E
S3150202259023F930602B681A681360D4F88820204623
S315020225A0114603F0F7F80346D4F888202361114650
S315020225B0204603F0EFF8226903466061F2B1E8B100
S315020225C00025C4E9022263604FF40070656302F0DB
S315020225D04BFD184B4022C4F8C03103460A21C4E916
S315020225E06D33A069C4F8BC2184F8C95106F0A0FE75
S315020225F048B9002384F8C631184670BD012384F80F
S31502022600C631184670BDFF232A460A21A06906F082
S3150202261065FE2A460A21A06906F07CFEFF2804BF4F
S31502022620012384F8C931E4E7052384F8C631184642
S3150202263070BD00BF891D020280697047002843D01F
S3150202264038B5436E04468B420D4617D0082B1AD074
S31502022650082929D003F0B4F90021626A92F80E31F0
S3150202266043F0010382F80E31626A84F8C611656686
S3150202267092F80E3143F0010382F80E31002384F8F8
S31502022680C631184638BD426A616692F80E3143F087
S31502022690010382F80E3103F07FF9082D0CD00023D4
S315020226A084F8C631184638BD426A616692F80E311E
S315020226B043F0010382F80E31204603F049F9002362
S315020226C084F8C631184638BD0220704740B110B5AB
S315020226D0044600F0F3FC002384F8C631184610BD06
S315020226E0022070472DE9F04F89B0DDE9127C149C75
S315020226F007FB07FED4F810411CF0010F08BFA346E0
S31502022700804618BF4FF0000B03FB03E01CF0020FDA
S315020227101D4608BFA2468946164618BF4FF0000A52
S3150202272002F01EFC159B240194FBF0F403B11C601B
S31502022730784204FB00F005FB04F44D44241104FB29
S3150202274005F50011374400FB1755149BC9F1000128
S31502022750D3F810210AEB2513029300FB01F304FBC3
S31502022760163300FB06F604FB0166CDE905045208A0
S3150202277002EB23120BEB2616049207969DED045FDB
S315020227804346009442426442039401929DED007FC5
S31502022790A3EC045F83ED007FC8F8200009B0BDE810
S315020227A0F08F00BF2DE9F04F89B0DDE912B60BFBBF
S315020227B00BFC6FEA0609804603FB03C01D468A46E6
S315020227C01746149C02F0CCFB4FF4801386F00206E5
S315020227D0C6F340064FEA094993FBF0F0360409F4C0
S315020227E0803904B12060CBF1000300FB03F300FB46
S315020227F005F41B115544CAF1000A03FB0AF224111D
S3150202280004FB1722BB4403FB07F704FB0A77CDE955
S315020228100534121102F5004209EB271704920797B3
S315020228209DED045F424604FB05F503FB1B5500942E
S3150202283006EB2516594264420296019103949DEDD6
S31502022840007FA2EC045F82ED007FC8F8203009B057
S31502022850BDE8F08F2DE9F04F89B0DDE91245EF436D
S3150202286085F0020CCCF3400C3F04002BDDF85090AD
S315020228704FEA0C4C07F4803704EB020503EB01081E
S315020228804ADB002C23DBC2F1000AA3424FEA0A3AD0
S3150202289069DD5E42240494FBF6F402FB04FE04FBA9
S315020228A005F501FB04F64FEA2E1E2D11C5EB08357E
S315020228B0AEEB013EAAEB2616C4F10008B9F1000FEF
S315020228C001D0C9F800304FF480337D4965E0C4F186
S315020228D0000A4E429A454FEA063BC0F296801B0414
S315020228E093FBFAF301FB03FE08FB03F802FB03F672
S315020228F02D034FEA2E1EC5EB2815CEEB023EABEB9D
S3150202290026165942B9F1000F01D0C9F800A04FF4B8
S315020229108034DFF8AC8140E0002CC0F291805E4246
S31502022920A6424FEA013A52DD240494FBF3F401FB78
S3150202293004F604FB05F502FB04FE4FEA0838C8F169
S3150202294000083611A8EB2515C6EB02360AEB2E1E37
S31502022950C4F10008B9F1000F01D0C9F800304FF4F2
S315020229608031574B19E01B0493FBF4F303FB02F28B
S31502022970121108FB03F8C2EB013603FB01F12D0328
S31502022980AAEB211E05EB28155942B9F1000F38D0E0
S315020229904FF48038C9F80040494C06F50046CDE9A5
S315020229A004647744079706939DED045F02466544E5
S315020229B0CDE90251CDF8048000939DED007FA2EC91
S315020229C0045F82ED007F046209B0BDE8F08F1B044A
S315020229D093FBF4F301FB03FE02FB03F608FB03F887
S315020229E02D03C2F1000B4FEA2E1EAAEB261605EBA9
S315020229F02815CEEB0B3E5942B9F1000F01D0C9F8A8
S31502022A0000404FF480382E4CC7E75E42240494FB02
S31502022A10F6F401FB04F604FB05F502FB04FEC2F121
S31502022A20000A36112D11C5EB08350BEB2E1EC6EB2D
S31502022A300A36C4F10008B9F1000F7FF442AF42E749
S31502022A40A3424FEA023E1EDA240494FBF3F401FB8C
S31502022A5004F604FB05F5AEEB261602FB04FE4FEA6C
S31502022A600838C8F100084FEA013AA8EB25150AEB25
S31502022A702E1EC4F10008B9F1000F3FF470AF5B429B
S31502022A80C9F800306BE764421B0493FBF4F302FBC2
S31502022A9003F6C1F1000A08FB03F803FB01F12D0359
S31502022AA03611AEEB211EC5EB2815C6EB0A36594284
S31502022AB0B9F1000F3FF42BAFC9F8004027E700BF78
S31502022AC00000FFFF10B4002B019C2CDB002C16DB4E
S31502022AD0A34238DD240494FBF3F44FF4803304FB5F
S31502022AE001F112036442C2EB2111029AC0E90143C7
S31502022AF0002A51EA01915DF8044B01607047C4F164
S31502022B00000C194422449C4512B209B2E2DB1B04B0
S31502022B1093FBF4F303FB02F209034FF480345B42A4
S31502022B20C1EB2211E1E7002C22DBC3F1000CA44522
S31502022B3014DD240494FBF3F404FB01F10911104B96
S31502022B40C1EB0231D1E71B0493FBF4F302FB03FC54
S31502022B504FEA2C1C0A4CCCEB0131C6E71B0493FB51
S31502022B60F4F303FB02F21211054CC2EB0131BCE78C
S31502022B7019442244A34212B209B2DADDC7E700BF00
S31502022B800000FFFF2DE9F043002BDDE9075EDEF8C8
S31502022B90104138DB002D1EDBAB424ADC4FEA034C06
S31502022BA09CFBF5FC8CFB04631F4656EA2F4702FB8D
S31502022BB00CF212116542C2EB0132BEF91430120155
S31502022BC092FBF3F204EBD47302EB6302C0E9015601
S31502022BD00260BDE8F0836E4219442A449E4212B252
S31502022BE009B247DA2D0495FBF3F585FB0483994670
S31502022BF058EA2F4901FB05F51203C2EB25122646B6
S31502022C00C8F10005D9E7002D44DB5F42AF42C4F1A9
S31502022C1000061FDD2D0495FBF3F585FB0483994619
S31502022C2058EA2F4901FB05F52D11C5EB023245463D
S31502022C30C3E72D0495FBF3F383FB0485A94658EA01
S31502022C402F4901FB03F312032646C2EB2312C8F1F4
S31502022C500005B2E71B0493FBF5F3354683FB0486B4
S31502022C60B14658EA2F4903FB02F212114646C2EB5B
S31502022C700132A2E71B0493FBF5F383FB04652F469D
S31502022C8056EA2F4703FB02F209032546C1EB22123B
S31502022C90764292E719442A44AB420FFA82FC09B2FF
S31502022CA00FDD1A0492FBF5F282FB04631F4656EA13
S31502022CB02F470CFB02F209032546C1EB221276428A
S31502022CC07BE72D0495FBF3F585FB0483994658EAC7
S31502022CD02F4901FB05F52D11C5EB0C32664245461D
S31502022CE06BE700BF10B4019C002C03DA194422449C
S31502022CF009B212B204FB01F103FB12121B03836037
S31502022D001302029A6442002A53EA0393240303F546
S31502022D100043446003605DF8044B70472DE9F041BD
S31502022D20069D0646002D0C4690461F4604DA1C44B2
S31502022D30A84424B20FFA88F805FB05F007FB070040
S31502022D4002F00EF94FF48013B3FBF0F06D4200FB72
S31502022D5005F500FB07F72D11644205FB04F43F114A
S31502022D6007FB1842079B1211002B52EA0292C6E98E
S31502022D70015702F500423260BDE8F08182680368BB
S31502022D8010B401FB02335442846003605DF8044BC3
S31502022D90704700BFF8B5B1F916C00D46ACEB030C8D
S31502022DA08B68069E03FB0CFCB1F9143004469B1A8F
S31502022DB04A6802FB03C20B681211511C13F0080F78
S31502022DC018BF0A4613F0100FA2F5803118BF0A4641
S31502022DD0590751BF012740F20127A2F5004202F12B
S31502022DE0FF325B0607FA06F704D54FF40033710881
S31502022DF08B401F43D4F8B831C2F1000C079A311D39
S31502022E0003F10800C4F8B80119608ABBC3F804C00A
S31502022E10D4F8BC31013B002BC4F8BC315DDDD4F8D9
S31502022E20B8316A6803F10801C4F8B8115A6006F1AA
S31502022E300A021A60D4F8BC31013B002BC4F8BC3139
S31502022E4046DDD4F8B831AA6803F108011036C4F88F
S31502022E50B811C3E90062D4F8BC31013B002BC4F8B5
S31502022E60BC3103DC2046D4F8C03198473846F8BD57
S31502022E704FEA8C125A60D4F8BC31013B002BC4F8DB
S31502022E80BC3120DD6A68D4F8B831920103F1080137
S31502022E90C4F8B8115A6006F10A021A60D4F8BC31B3
S31502022EA0013B002BC4F8BC3104DDAA68D4F8B83160
S31502022EB09201C9E7D4F8C03120469847AA68D4F8E5
S31502022EC0B8319201C0E72046D4F8C0319847D9E713
S31502022ED02046D4F8C0319847B3E72046D4F8C03129
S31502022EE098479CE7002380EF5060036080ED017FE4
S31502022EF0436170472DE9F0411D464B7E0C46D907C8
S31502022F008046174682B011D5E269D20706D5052D4B
S31502022F10089E6CD9304602B0BDE8F081042D00F25B
S31502022F208480089A023522F4000208929E0738D457
S31502022F30089EA37D990719D5627E520716D5E26CC1
S31502022F40D00777D5052DE5D806F080730193B7F938
S31502022F50023000954046B7F9002004F14C01FFF712
S31502022F6019FFA37D3043013520F400065907D1D556
S31502022F70637E1A07CED5636EDB0762D5052DC9D8E5
S31502022F8006F080730193B7F90230B7F90020404682
S31502022F90009504F16401FFF7FDFE304320F40006BA
S31502022FA0B8E7636BD8071BD5052D089EB2D806F083
S31502022FB080730193B7F9023000954046B7F90020B3
S31502022FC004F13401FFF7E6FE636B304320F4000698
S31502022FD013F0400F20F4400018BF06460135A8E759
S31502022FE0042D22D8089B023523F40006A1E706F037
S31502022FF080730193B7F902300095B7F9002004F104
S315020230001C01FFF7C7FEE369013513F0400F089B67
S3150202301040EA030020F4000220F4400018BF0246F0
S31502023020637E08929E0783D5BBE7089E304602B0AE
S31502023030BDE8F081042D3FF66DAF26F40006023597
S3150202304094E726F40003052D38BF1E4662E700BF49
S3150202305038B50546084606F00FF90446B8B101220C
S31502023060114606F057F9420144BF012385F8C831D9
S315020230708303C5F880000CD5312201212046EB6D6F
S3150202308006F02CF9204606F00DFAC5F88400204611
S3150202309038BDAB6E43F00103AB66EDE78C461346D1
S315020230A00121624606F01AB910B504460022012130
S315020230B0204606F02FF9C307F8D410BD38B5836E41
S315020230C005468469D8070AD501210022204606F060
S315020230D021F98107F8D138BDAB6E9A0707D50022CE
S315020230E00121204606F016F90307F5D4F3E7C822B2
S315020230F00421204606F050F9F1E700BF70B54C688C
S315020231000B6B816E0546C90786690CD41A684AB1E9
S3150202311090F9C91191B13046BDE8704032220121BF
S3150202312006F0DCB870BD5AB9002CFBD0284661689D
S31502023130FEF76AFD0328F5D02468F5E71346EAE7A7
S315020231401968BDE87040FEF75FBD00BF2DE9F04F7A
S31502023150A9B0BDF9C8E0BDF9CCC0AEEB0206ACEB34
S31502023160030A0D4656EA0A01BDF9D08000F03C82F6
S3150202317095F8D67008F10F010446012F4FEA610055
S315020231800C90069000F04682359911F4005107918F
S3150202319040F02E82079912911FFA8EF1002EBDF887
S315020231A018B00D911FFA82F940F3558201F10F020E
S315020231B05A44A9EB0B0122F00F0221F00F0112B2BF
S315020231C009B2ADF86C20ADF868101FFA8CF299B20A
S315020231D0BAF1000F0992089140F3308202F10F030D
S315020231E05B44A1EB0B0223F00F0322F00F021BB288
S315020231F012B220461AA9ADF86E30ADF86A2003F073
S3150202320019FE002800F0F081BDF86830089AA9EB91
S3150202321003090FFA89F30A93BDF86A30B8F12F0F40
S315020232201593A2EB03031BB20B9302DC022F08BF18
S3150202323001273599359A01F001010E91359995F8D2
S31502023240D53002F0030201F00201032A03F003035E
S315020232500F9100F0C082032B00F04184DDE90A12CD
S31502023260359BB8F11F0FCDE900A31CAB1846139389
S3150202327017AB0293334640F3FB81FFF793FA1C9B8B
S31502023280012F03EBC8231C934FEA0833119300F074
S31502023290EB822946204602F099FBD5F82831BAF18B
S315020232A0000F109340F34C82F60FAB7D109ADFF8B3
S315020232B0809902F4185213F0060F42EA090913D052
S315020232C0079A022F14BF02230523002A18BF0523D9
S315020232D0CDF80090294620461AAAFFF70BFE10F4F3
S315020232E0000F814608BF002695F8D42093072DD5F4
S315020232F00A9B2199A5F890300B9BD5F8D000A5F828
S3150202330092302123EB6795F80E31090143F0080347
S3150202331012F0080F85F80E3191FBF0F1209B00F0B6
S31502023320C1825B421B0193FBF0FC0B46D5F8CC1023
S31502023330C5E9203C0B03C5F88830530706D5179B0F
S315020233401B0193FBF0F30B44C5F8CC3033462946F6
S3150202335020461AAA01F00AFF3346294620461AAA2D
S3150202336003F00EFB022F00F0F2810E9B002B40F0BF
S3150202337037820F9B002B40F09A8298461493359B14
S3150202338013F4C05F15D01A0505D51FAB93E80700E3
S31502023390369B83E80700359BDB0405D5369B22AABA
S315020233A00C3307CA83E807001AAB03CB379B1860B4
S315020233B05960B346002E40F04382079BB3B1129B7B
S315020233C003F5803A359B980506D5389BD3E9002347
S315020233D052EA030140F02E84359B5B0506D5389BE3
S315020233E0D3E9022352EA030140F0BE830422D4F84F
S315020233F0B8311C9903F10800C4F8B801C3E90021E7
S31502023400D4F8BC31013B002BC4F8BC3103DC2046A4
S31502023410D4F8C03198470A22D4F8B8311D9903F17B
S315020234200800C4F8B801C3E90021D4F8BC31013B53
S31502023430002BC4F8BC3103DC2046D4F8C0319847CD
S315020234401022D4F8B8311E9903F10800C4F8B80163
S31502023450C3E90021D4F8BC31013B002BC4F8BC31CC
S3150202346003DC2046D4F8C0319847D4F8B8311F9A03
S3150202347003F10801C4F8B8115A60B8F1000F00F05E
S31502023480FA8008221A60D4F8BC31013B002BC4F838
S31502023490BC3103DC2046D4F8C03198470E22D4F858
S315020234A0B831209903F10800C4F8B801C3E9002132
S315020234B0D4F8BC31013B002BC4F8BC3103DC2046F4
S315020234C0D4F8C03198471422D4F8B831219903F1BD
S315020234D00800C4F8B801C3E90021D4F8BC31013BA3
S315020234E0002BC4F8BC3103DC2046D4F8C03198471D
S315020234F00522D4F8B831229903F10800C4F8B801BA
S31502023500C3E90021D4F8BC31013B002BC4F8BC311B
S3150202351003DC2046D4F8C03198470B22D4F8B831DE
S31502023520239903F10800C4F8B801C3E90021D4F8CB
S31502023530BC31013B002BC4F8BC3103DC2046D4F873
S31502023540C03198471122D4F8B831249903F1080000
S31502023550C4F8B801C3E90021D4F8BC31013B002BFF
S31502023560C4F8BC3103DC2046D4F8C031984716228F
S31502023570D4F8B83103F10801C4F8B8111199C3E9B4
S315020235800021D4F8BC31013B002BC4F8BC3103DC68
S315020235902046D4F8C03198470022D4F8B83103F154
S315020235A00801C4F8B811C3E90029D4F8BC31013BB9
S315020235B09342C4F8BC3103DC2046D4F8C0319847A2
S315020235C00C9A069B2046134403F10F084FEA281869
S315020235D042461AA9002E00F0B08002F045FD022FE3
S315020235E000F06C81012000E0002029B0BDE8F08FD6
S315020235F095F8D7104FEA6800042900F04A81B5F916
S31502023600D810014401EB81000903129140F38F01A4
S315020236100691C1E5359901F0030103293FF4B4ADE0
S3150202362000EB4001C0EBC10141F30F11069135993E
S3150202363011F4005107913FF4ADADD9E7089B099AFF
S315020236400F335B44A2EB0B0223F00F0322F00F02AD
S315020236501BB212B2CDE50D9909F10F025A44A1EB42
S315020236600B0122F00F0221F00F0112B209B2A8E5F4
S31502023670FFF7F0F803E605221A60D4F8BC31013BE3
S31502023680002BC4F8BC3103DC2046D4F8C03198477B
S315020236900B22D4F8B831209903F10800C4F8B80114
S315020236A0C3E90021D4F8BC31013B002BC4F8BC317A
S315020236B003DC2046D4F8C03198471122D4F8B83137
S315020236C0219903F10800C4F8B801C3E90021D4F82C
S315020236D0BC31013B002BC4F8BC3103DC2046D4F8D2
S315020236E0C03198470822D4F8B83122999818C4F8FA
S315020236F0B801C3E90021D4F8BC31013B002BC4F85E
S31502023700BC3103DC2046D4F8C03198470E22D4F8E5
S31502023710B831239903F10800C4F8B801C3E90021BC
S31502023720D4F8BC31013B002BC4F8BC3103DC204681
S31502023730D4F8C0319847142205E702F005FC4EE799
S3150202374000F00F82002ED4BF00260126ADE508F155
S3150202375010080E9B4FEA68011491002B00F0768145
S31502023760BDF868300D9AD31A1BB2002E40F0E481DE
S31502023770BDF86A200998821A12B203EB4107002F9A
S3150202378018464FF000074FEA41011FDD4FF00108CC
S3150202379002EB010CBCF1000F13DDA0EB010EBDF929
S315020237A068C0BDF96C00A0EB0C00864509DABDF9CA
S315020237B06E00BDF96AC0511AA0EB0C008142C0F23A
S315020237C024830E9B13B3B8F1000F0BD04FF00108FE
S315020237D049F400590AE0032B00F0858200273DE5F1
S315020237E0002314934FF0000849F48069359B98052B
S315020237F000F148811F9BBAF1000F03F5004202F164
S31502023800010203F50043C8BF13461F930F9B002B09
S315020238103FF4B5ADB8F1000F4BD049F48069359B40
S31502023820590500F14181229BBAF1000F03F50042CC
S3150202383002F1010203F50043D8BF134622939EE525
S31502023840BDF96A20BDF96E3013989B1A4FEA231B03
S315020238505946FFF793FA59461FA8FFF78FFA5946B8
S3150202386022A8FFF78BFAA8E50E9B33B9119A1F9B82
S31502023870A2F5803203EB62031F930F9B002B7FF4A8
S3150202388008AD119A229BA2F5803203EB62032293C0
S31502023890FFE4069901EB810141F38F0106910103CF
S315020238A0129179E41B0193FBF0F38C463EE50E9BE3
S315020238B014934FF0000849F40059B0E700229446E7
S315020238C00D9FBDF85030099907F10F099944A7EBEC
S315020238D0030A01F10F0E9E446AF30F02CB1A69F331
S315020238E00F0C18A863F31F426EF31F4C014622F017
S315020238F00F122CF00F1320461892199303F09AFA1C
S3150202390000283FF46FAE4FF00009149B0999019308
S31502023910BDF862302046CB1A1BB20093BDF8603066
S315020239202946FB1A4A461BB2CDE90399CDF80890FD
S31502023930FDF77EFD109BBD4F03F400732946204618
S3150202394018AA1F434B4601F011FC4B462946204654
S3150202395018AA03F015F8AB7D13F0060F40F0428267
S31502023960BDF96830BDF96010BDF96220C91ABDF908
S315020239706A302498D21A091112111EB14042A2EBE0
S315020239800B0224900626229B239D5B4205FB1133E2
S3150202399000FB1233D4F8B82103F1011302F1080134
S315020239A0C4F8B811C2E90063D4F8BC31013B002B5A
S315020239B0C4F8BC3103DC2046D4F8C03198470C2146
S315020239C0D4F8B831239A03F108005242C4F8B80176
S315020239D0C3E90012D4F8BC31013B002BC4F8BC3156
S315020239E003DC2046D4F8C03198471221D4F8B83104
S315020239F0249A03F108005242C4F8B801C3E900123C
S31502023A00D4F8BC31013B002BC4F8BC3103DC20469E
S31502023A10D4F8C0319847D4F8B83103F10802C4F891
S31502023A20B8210022C3E90027D4F8BC31013B9342F4
S31502023A30C4F8BC3103DC2046D4F8C031984720468C
S31502023A4018A948F30B1202F07FFACBE50B9A56B18C
S31502023A50BDF86E20159B13441A46BDF86A30D21A77
S31502023A60089BD21A12B20F9B002B6BD00A98002720
S31502023A7000EB4103002B4FEA41017FF71AAFB8462A
S31502023A800A9B85E60023DDE90A120193389B1FA8E9
S31502023A905B684FEA4B0B0093389B1B68FFF722F9D0
S31502023AA00FFA8BF30693B1E60123BDF86A2001935E
S31502023AB0099BBDF868109A1A0D9B12B2591A389BC5
S31502023AC009B2DB6822A85B420093389B9B685B4281
S31502023AD0FFF708F9069B5B001BB206934FE4359B80
S31502023AE0DDE90A12CDE900A31CAB1846139317AB04
S31502023AF0039302953346FEF7F5FDD5F810311C996C
S31502023B0008FB03F2012F01EB62111C914FEA22110B
S31502023B104FEA621209D10E9810B91F9810441F90EB
S31502023B200F9810B92298104422905B08A3F58033AD
S31502023B300B441193FFF7ADBBBDF86E200998121A1A
S31502023B4012B21AE60A98DDF83CC000EB4103002BDA
S31502023B50E04649F400594FEA41017FF710AC0346A9
S31502023B6016E65646FFF7A1BB009200220999019278
S31502023B70BDF86A200D988A1ABDF868105B42411A8E
S31502023B80109812B200F4805040EA090040F0080987
S31502023B9009B225A8FFF7C2F8002E40F02C8135980B
S31502023BA0D4F8B8210004259B02F1080140F1E6800F
S31502023BB05344C4F8B811536007231360D4F8BC31D6
S31502023BC0013B002BC4F8BC3103DC2046D4F8C031D9
S31502023BD098470D22D4F8B831269903F10800C4F8A1
S31502023BE0B801C3E90021D4F8BC31013B002BC4F869
S31502023BF0BC3103DC2046D4F8C03198471322D4F8EC
S31502023C00B831279903F10800C4F8B801C3E90021C3
S31502023C10D4F8BC31013B002BC4F8BC313FF7E6AB0A
S31502023C202046D4F8C0319847FFF7E0BB450840006A
S31502023C301380C000002001901098009200F40060E8
S31502023C4040EA090040F004095B4225A8DDE90A12AE
S31502023C50FFF764F8002E40F0D380D4F8B8213598E5
S31502023C6002F10801C4F8B8114104259B54D4534405
S31502023C70536006231360D4F8BC31013B002BC4F80F
S31502023C80BC3103DC2046D4F8C03198470C22D4F862
S31502023C90B831269903F10800C4F8B801C3E9002134
S31502023CA0D4F8BC31013B002BC4F8BC3103DC2046FC
S31502023CB0D4F8C03198471222D4F8B831279903F1C1
S31502023CC00800C4F8B801C3E90021D4F8BC31013BAB
S31502023CD0002BC4F8BC313FF77FAB2046D4F8C03183
S31502023CE09847FFF779BB359BDDE90A12CDE900A3B6
S31502023CF01CAB1846139317AB039302953346FEF792
S31502023D00F1FCD5F810311C9A08FB03F102EB6112A1
S31502023D1000271C92091108E7AAEB03035360062344
S31502023D201360D4F8BC31013B002BC4F8BC3103DC6E
S31502023D302046D4F8C03198470C21D4F8B831269AD5
S31502023D4003F108005242C4F8B801C3E90012D4F8DA
S31502023D50BC31013B002BC4F8BC3103DC2046D4F84B
S31502023D60C03198471221D4F8B831279A03F10800D4
S31502023D705242C4F8B801C3E90012A6E7AAEB03034A
S31502023D80C4F8B811536007231360D4F8BC31013B5F
S31502023D90002BC4F8BC3103DC2046D4F8C031984764
S31502023DA00D21D4F8B831269A03F108005242C4F81A
S31502023DB0B801C3E90012D4F8BC31013B002BC4F8A6
S31502023DC0BC3103DC2046D4F8C03198471321D4F81B
S31502023DD0B831279A03F108005242C4F8B801C3E97E
S31502023DE0001215E7009729460323204618AAFFF771
S31502023DF081F80746B4E5594625A8FEF7BFFFCEE687
S31502023E00594625A8FEF7BAFF27E74FF0000C0092A3
S31502023E10149A2946019220460222CDE903CCCDF814
S31502023E2008C0FDF705FB109B03F4006343EA09038E
S31502023E3043F4801949F08409C3E400BF4FF0000C31
S31502023E402DE9F0479EB2634688B0BDF940501FFA8B
S31502023E5082F91035C5F34F07884609F10F01394435
S31502023E60A9EB070E06F10F023A4461F30F03F71BA1
S31502023E706EF30F0C67F31F4C62F31F432CF00F17FE
S31502023E8023F00F1306A904460697079302F0D2FF00
S31502023E9010B908B0BDE8F0870022BDF81A306D10DD
S31502023EA0F61A36B2BDF8183001950096D8F828618E
S31502023EB0A9EB030341462046CDE903221BB2029235
S31502023EC0FDF7B6FA06F4007242F4800242F04102AB
S31502023ED0022300924146204606AAFFF70BF8119BDF
S31502023EE00F3506462D09002B69D0139BBDF9182002
S31502023EF0B3F900309B1A4FEA2319139BBDF91A2014
S31502023F00B3F902309B1A1F11119BDA0700F189805D
S31502023F104FF0020A119B9B0753D50721129B129A55
S31502023F20DB681269C3F5803302FB0933129A5269BE
S31502023F3002FB0733D4F8B821013302F10800C4F8B0
S31502023F40B801C2E90013D4F8BC31013B002BC4F814
S31502023F50BC3140F3C9800D21129B1B695A42D4F827
S31502023F60B83103F10800C4F8B801C3E90012D4F863
S31502023F70BC31013B002BC4F8BC3140F3A1801321B2
S31502023F80129B5A69D4F8B831524203F10800C4F8B6
S31502023F90B801C3E90012D4F8BC31013B002BC4F8C4
S31502023FA0BC3140F38880BAF1030F46F480560CBF47
S31502023FB04FF0040A4FF0020A46F0080601E04FF0FB
S31502023FC0020A5346414606AA20460096FEF792FF89
S31502023FD00022D4F8B83103F10801C4F8B811C3E9D2
S31502023FE00020D4F8BC31013B9342C4F8BC3103DC55
S31502023FF02046D4F8C03198474146204606AA0023F5
S3150202400001F0B4F800234146204606AA02F0B8FCA3
S3150202401020462A4606A901F097FF012008B0BDE80C
S31502024020F0870621129B129A1B685268C3F58033E7
S3150202403002FB0933129A926802FB0733D4F8B821BB
S31502024040013302F10800C4F8B801C2E90013D4F838
S31502024050BC31013B002BC4F8BC3140DD0C21129B62
S315020240605B685A42D4F8B83103F10800C4F8B801C1
S31502024070C3E90012D4F8BC31013B002BC4F8BC31AF
S3150202408028DD1221129B9B685A42D4F8B83103F1F9
S315020240900800C4F8B801C3E90012D4F8BC31013BE6
S315020240A0002BC4F8BC3110DD46F400664FF0030A59
S315020240B046F004062EE72046D4F8C031984772E746
S315020240C02046D4F8C031984759E72046D4F8C03181
S315020240D09847E9E72046D4F8C0319847D1E7204607
S315020240E0D4F8C0319847B9E72046D4F8C031984788
S315020240F031E700BF2DE9F04FADB0BDF9E040BDF9A1
S31502024100D850BDF9DCA00994BDF9E440CDE9105AB4
S315020241100F950894AD1A0446AAEB0300079355EAD3
S3150202412000030C9203D100202DB0BDE8F08F00FBF4
S3150202413000F091F8D63005FB05008946069300F099
S315020241400FFF4FF0807393FBF0F213461592079A14
S3150202415003FB05F5A2EB0A0603FB06F609993612DC
S315020241602D1206FB01F805FB01F708994FEA684C86
S3150202417006FB01FB05FB01F34FEA6B41129159144F
S3150202418013910C994FEA674E01EB6840A1EB68481E
S31502024190114602EB6742A1EB67470F990D9001EBBD
S315020241A06B40A1EB6B410B910AEB634BAAEB6341AA
S315020241B0069B0E90022B0A9100F0E9823A9B03F0CB
S315020241C00303032B00F06983069B012B1AD13A9B48
S315020241D0D80707D40D9BA8EB0E08A3EB0E030D938B
S315020241E0624467443A9B99070CD413990E9B0B447B
S315020241F00E930B9B0B440B9312990A9BABEB010B8F
S315020242005B1A0A93DDE90D139942A8BF19460B9B65
S315020242104345A8BF43469942ADBF23F00F0321F09F
S315020242200F010BB21BB2ADF87830DDE90D139942DC
S31502024230B8BF19460B9B4345B8BF4346994240F362
S3150202424061820F3121F00F010BB2ADF87C300A9B6D
S315020242505A451146A8BF5946BB42A8BF3B46994298
S31502024260ADBF23F00F0321F00F010BB21BB2ADF863
S315020242707A300A9B5A451146B8BF5946BB42B8BF65
S315020242803B46994240F339820F3121F00F010BB2BC
S3150202429020461EA91292ADF87E3002F0CBFD00280E
S315020242A03FF441AFDDE90D329A1ABDF878000D925C
S315020242B0129ABDF87AC0A2EB0B011B1A0E9119B221
S315020242C0A2EB0C030FFA83FE079B0C9AA3EB0C03D9
S315020242D00FFA83FB0F9BAAEB0C0C1B1A1BB205FBF4
S315020242E003F30FFA8CFC06FB1C331B1103F5004386
S315020242F01B9306FB0BF3101A00B205FB10331B11BC
S3150202430003F580332596764219951A9618939DEDF2
S31502024310187F1FFA88F212920B9A99F8D530A2EBFD
S31502024320080213920A9A03F00303D21B6D42032B6D
S3150202433014928DED207F724616902495BEB200F03D
S31502024340CA8200250E9B0195009326AB1846179347
S315020243500D9BFEF7B7FB1298BDF87A20BDF87810CE
S31502024360149B411AB21A009329A8139B019512B201
S3150202437009B21290FEF7A6FB269B03F5004326938B
S31502024380299B03F5004329933A9B03F00106069BF8
S31502024390012B00F085824946204601F017FB069B57
S315020243A0D9F82851022B0BD145F40073002E08BF0F
S315020243B01D463A9B13F0020F45F4806308BF1D4661
S315020243C099F8D42093072DD5169B2298A9F89030F6
S315020243D02123C9F87C3099F80E31D9F8D01043F06E
S315020243E00803000112F0080F89F80E3190FBF1F072
S315020243F0219BA9F892B000F0B1825B421B0193FBAA
S31502024400F1FC0346D9F8CC00C9E9203C0303C9F8FA
S315020244108830530706D5159B1B0193FBF1F3034420
S31502024420C9F8CC300A9B9F4240F371810B9BA8EBE1
S3150202443003030D930D9B002BC0F2738100234946A1
S3150202444020461EAA00F092FE0023494620461EAAD4
S3150202445002F096FA079B9A4580F2A3824FF0000871
S31502024460BDF97A20AAEB0202DDE908319942B8BF08
S31502024470194699F8160005F4F05343F4400341F342
S315020244800B1110F0060F43F00F0301EB020740F087
S315020244905F81002E00F06C8101220020CDE90A2004
S315020244A0089A42F34F020D92C346B8F1000F40F04A
S315020244B02F820021D4F8B82102F10800C4F8B8010B
S315020244C0C2E90013D4F8BC31013B8B42C4F8BC31B9
S315020244D003DC2046D4F8C031984799F8D53003F068
S315020244E00303032B00F0AD81209A0421D4F8B831DC
S315020244F003F10800C4F8B801C3E90012D4F8BC31CA
S31502024500013B002BC4F8BC3103DC2046D4F8C0318F
S3150202451098470A22D4F8B831219903F10800C4F85F
S31502024520B801C3E90021D4F8BC31013B002BC4F81F
S31502024530BC3103DC2046D4F8C03198471022D4F8A5
S31502024540B831229903F10800C4F8B801C3E900217F
S31502024550D4F8BC31013B002BC4F8BC3103DC204643
S31502024560D4F8C03198470522D4F8B831239903F119
S315020245700800C4F8B801C3E90021D4F8BC31013BF2
S31502024580002BC4F8BC3103DC2046D4F8C03198476C
S315020245900B22D4F8B831249903F10800C4F8B80101
S315020245A0C3E90021D4F8BC31013B002BC4F8BC316B
S315020245B003DC2046D4F8C03198471122D4F8B83128
S315020245C0259903F10800C4F8B801C3E90021D4F819
S315020245D0BC31013B002BC4F8BC3103DC2046D4F8C3
S315020245E0C03198470622D4F8B831269903F1080059
S315020245F0C4F8B801C3E90021D4F8BC31013B002B4F
S31502024600C4F8BC3103DC2046D4F8C03198470C22E8
S31502024610D4F8B831279903F10800C4F8B801C3E9FE
S315020246200021D4F8BC31013B002BC4F8BC3103DCB7
S315020246302046D4F8C03198471222D4F8B8312899C4
S3150202464003F10800C4F8B801C3E90021D4F8BC3169
S31502024650013B002BC4F8BC3103DC2046D4F8C0313E
S3150202466098470722D4F8B831299903F10800C4F809
S31502024670B801C3E90021D4F8BC31013B002BC4F8CE
S31502024680BC3103DC2046D4F8C03198470D22D4F857
S31502024690B8312A9903F10800C4F8B801C3E9002126
S315020246A0D4F8BC31013B002BC4F8BC3103DC2046F2
S315020246B0D4F8C03198471322D4F8B8312B9903F1B2
S315020246C00800C4F8B801C3E90021D4F8BC31013BA1
S315020246D0002BC4F8BC3103DC2046D4F8C03198471B
S315020246E03A4620461EA9B8F1000F63D001F0BCFC7F
S315020246F0069B022B63D0012016E50F3323F00F032C
S315020247001BB2C5E50F3323F00F031BB29DE50E9BC9
S31502024710002B3FF78FAE3FF491AE0D9B002B7FF736
S315020247208DAE0123494620461EAA00F01FFD012333
S315020247301EAA4946204602F023F9079BBDF97E20AE
S315020247409A454FF00108B4BFD21AA2EB0A028BE6CF
S3150202475000934946042320461EAAFEF7CBFB10F419
S31502024760000F034608BF4FF00008002E7FF494AEF6
S315020247703A9A12F0020200F0F680079A0B9611920A
S315020247800C9A0A961092099A52100D928CE6099B7D
S315020247900899302B3A9BB8BF43F001032F293A936B
S315020247A003F0030340F3CE80033B18BF01235B00F1
S315020247B0069327E501F0C8FB069B022B9BD1002339
S315020247C01E46BDF83410BDF84050BDF8442005EB34
S315020247D0010C8F186D1A0CF10F0C521A0F3765F372
S315020247E00F036CF30F0662F31F4367F31F4623F0B0
S315020247F00F1326F00F1620461CA91C931D9602F0D3
S3150202480019FB002840F0E4800B9B002B3FF473AFA8
S3150202481020463C9C0A9B03943B9C012B0294DDE9B5
S3150202482008534FF0010408BF1D460C99079B0F9AC5
S3150202483014BF53460A46009549460194FFF7FEFA0B
S3150202484059E7069B022B3FF44FAEA905209A0FD4D5
S31502024850219BB9F914001901229B91FBF0F11B016C
S3150202486093FBF0F3120192FBF0F2CDE921132092AF
S315020248706B053FF53AAE23982499259BB9F9145054
S31502024880000109011B0190FBF5F091FBF5F193FB87
S31502024890F5F3CDE92301259327E600230693B1E436
S315020248A03EB9099A209B1203A2F5803203EB6203F8
S315020248B020933A9B9A077BD4089A239B1203A2F56A
S315020248C0803203EB620349462046239301F07EF8C7
S315020248D0D9F8285174E50E9BCDF80490009326ABC5
S315020248E0184617930D9BFEF74DF91298BDF87A20DA
S315020248F0BDF87810149BB21A411A009329A8139B89
S31502024900CDF8049012B209B21290FEF73BF93BE5DA
S31502024910BDF97A10BDF97E2020A8521A4FEA221B4F
S3150202492059460E93FEF72AFA594623A8FEF726FAA5
S3150202493059461798FEF722FA59461298FEF71EFAB8
S315020249400E9BB6E543F00203033B18BF01233A99D5
S315020249505B0041F002013A91069353E41B0193FB79
S31502024960F1F384464EE5DDE90801814227DC0121A5
S315020249700A91089941F34F010D912CA902EB4202C9
S3150202498001EB820201211EAEB4463B9E303A0B91E6
S3150202499007CA86E80700BCE803003C9A1060516029
S315020249A082E5BDF97A20079B4FF000089A1A5BE569
S315020249B04946204601F00AF8D9F8285100E5079A35
S315020249C00A9611920C9A1092012211410D91D4E784
S315020249D000221199BDF972300D9DCB1A1BB21099A4
S315020249E00093BDF970302046CB1A29B21BB201914F
S315020249F0CDE9032249460292FCF71AFD2B460F33F2
S31502024A001B090693B8F1000F00F039810A992CAA04
S31502024A1001EB410302EB830353F8282C4F00524267
S31502024A2043F8282C289BBDF978205B4228932B9BBE
S31502024A305B422B93BDF970309B1A1D11BDF97A2088
S31502024A40BDF972309B1ACBEB231600234946204648
S31502024A501CAA00F08BFB0023494620461CAA01F041
S31502024A608FFFDDE92632062102FB0533289A02FB75
S31502024A700633D4F8B82102F10800C4F8B801C2E933
S31502024A800013D4F8BC31013B002BC4F8BC3103DC61
S31502024A902046D4F8C03198470C22D4F8B831279967
S31502024AA003F10800C4F8B801C3E90021D4F8BC3105
S31502024AB0013B002BC4F8BC3103DC2046D4F8C031DA
S31502024AC098471222D4F8B831289903F10800C4F89B
S31502024AD0B801C3E90021D4F8BC31013B002BC4F86A
S31502024AE0BC3103DC2046D4F8C0319847DDE92932CD
S31502024AF0072102FB05332B9A02FB0633D4F8B821AF
S31502024B0002F10800C4F8B801C2E90013D4F8BC31B4
S31502024B10013B002BC4F8BC3103DC2046D4F8C03179
S31502024B2098470D22D4F8B8312A9903F10800C4F83D
S31502024B30B801C3E90021D4F8BC31013B002BC4F809
S31502024B40BC3103DC2046D4F8C03198471322D4F88C
S31502024B50B8312B9903F10800C4F8B801C3E9002160
S31502024B60D4F8BC31013B002BC4F8BC3103DC20462D
S31502024B70D4F8C031984708220A9BF9182CAB03EBEA
S31502024B80810151F8303C51F82C0CC3F5803300FBFD
S31502024B90153351F8281C01FB1633D4F8B811013328
S31502024BA08818C4F8B801C1E90023D4F8BC31013B24
S31502024BB0002BC4F8BC3103DC2046D4F8C031984736
S31502024BC00E210A9B2CAAFB1802EB830353F82C2C08
S31502024BD0D4F8B831524203F10800C4F8B801C3E965
S31502024BE00012D4F8BC31013B002BC4F8BC3103DC01
S31502024BF02046D4F8C031984714210A9B1F442CAB95
S31502024C0003EB870757F8282CD4F8B831524203F13E
S31502024C100800C4F8B801C3E90012D4F8BC31013B5A
S31502024C20002BC4F8BC3103DC2046D4F8C0319847C5
S31502024C30D9F82831494603F4D052184B2046134379
S31502024C4000931CAA0523FEF755F90022D4F8B831BF
S31502024C5003F10801C4F8B811C3E90020D4F8BC3143
S31502024C60013B9342C4F8BC3103DC2046D4F8C0317E
S31502024C7098472046069A1CA901F066F9C4E5BDF9D1
S31502024C807820BDF970309B1A1D11BDF97A20BDF943
S31502024C9072309B1A1E110A9B5F00D6E65D20400007
S31502024CA02DE9F04F91F8D5C091B01CF0010FBDF974
S31502024CB068A0BDF96CB0BDF970701FD12F2F0C46DA
S31502024CC005469146984604DD91F8D6C0BCF1020F1C
S31502024CD026D02146209C1D9B06941F9CCDE9027379
S31502024CE005941E9C43464A462846CDE900AB0494E7
S31502024CF0FEF72CFA012011B0BDE8F08F1D9C08AD1B
S31502024D0004940AACCDE90277CDE90545CDF804B0A3
S31502024D10CDF800A0FFF7EEF9012011B0BDE8F08F41
S31502024D201D9E06F0030CBCF1030FD2D0209ECDE9E4
S31502024D3001B706961F9ECDF800A005961E9E049602
S31502024D401D9E46F4C05C4CF0030CCDF80CC0FEF777
S31502024D50FDF90028CED01D9BDA0710D51D9B9B07B5
S31502024D60C8D4022621461F9C5B4603941E9C5246C9
S31502024D702846CDE900760294FFF760F8BAE71F9952
S31502024D80434603911E994A46029101212846019100
S31502024D9000972146FFF752F8E0E700BFF0B58C46CE
S31502024DA01D46002491B00DF1200E0AAF816ABDF9AB
S31502024DB05830CDE9047EBDF95C60189F0193CDE9B6
S31502024DC002671346069462460095FFF769FF20467C
S31502024DD011B0F0BD30B5002591B0009313460A46D4
S31502024DE01699BDF95040039108A905910AA90194A1
S31502024DF006950491B0F86C10BDF9544004EB4104D7
S31502024E0024B2C16A0294FFF74BFF284611B030BDA5
S31502024E1030B50025964691B0BDF954200695029208
S31502024E20169ABDF950C0039208AA05920AAA0492DA
S31502024E30B0F86E2013441BB20093B0F870300A44E5
S31502024E409C440FFA8CF47344C16A12B201941BB2E7
S31502024E50FFF726FF284611B030BD00BF2DE9F04FFD
S31502024E604FF0000993B01E9DBDF9744003951D468D
S31502024E708B4690460294099404460AAF0CAE0597F5
S31502024E80CDF818900496B0F86E20B0F87030BDF9DD
S31502024E9070A0511909B2009103EB0A0109B20191FC
S31502024EA05A444344C16A12B21BB2FFF7F9FE2046C4
S31502024EB000F04EFD1E9A099BCDE904670392029306
S31502024EC0CDF81890CDF804A0A16A43465A46204668
S31502024ED00095FFF7E5FE204600F05EFD484613B058
S31502024EE0BDE8F08F2DE9F04F1D464FF000088B46C4
S31502024EF0044693B0BDF970901E9B0AAF0CAE0393A3
S31502024F00CDF804900597CDF8188004960095BDF960
S31502024F1074A0B0F86C1013460AEB410109B2029171
S31502024F20C16A09925A46FFF7BBFE204600F010FDFF
S31502024F301E9BCDE90467CDE902A3CDF81880CDF810
S31502024F400490A16A5A46099B20460095FFF7A8FEDD
S31502024F50204600F021FD404613B0BDE8F08F00BFA7
S31502024F60B0F1804F03466ED34FF0A0424FF4004099
S31502024F7003F14043934224BF00F580409B1A820309
S31502024F8002F18062934224BF00F500509B1A42034B
S31502024F9002F18072934224BF00F580509B1A0203EB
S31502024FA002F58002934224BF00F500609B1AC202F8
S31502024FB002F58012934224BF00F580609B1A820298
S31502024FC002F58022934224BF00F500709B1A420228
S31502024FD002F58032934224BF00F580709B1A0202C8
S31502024FE002F58042934224BF80309B1AC20102F527
S31502024FF08052934224BF40309B1A820102F580629C
S31502025000934224BF20309B1A420102F580729342D8
S3150202501024BF10309B1A02014032934224BF083049
S315020250209B1AC2001032934224BF04309B1A82009A
S315020250300432934224BF02309B1A42000132934247
S3150202504050EA309070474FF08052002092E700BF3C
S3150202505040EA500040EA900040EA101040EA10206E
S3150202506040EA1040704700BF04F0F4B904F002BAF5
S315020250702DE9F0410D4668B306460846904604F00D
S31502025080FBF9044648B386422F4602D23846BDE8A9
S31502025090F081304604F0DEF90746F0B1B8F1000FAE
S315020250A012D0A40810D0A400A4F1040E4FEA9E0E58
S315020250B00EF1010E02464EF001E02B1F53F8041FB9
S315020250C042F8041B0FF007C0284604F0D3F938460B
S315020250D0BDE8F081084604F0CDF900273846BDE85E
S315020250E0F08100BF38B504460D46FDF7A5FAD4F89D
S315020250F08430DA0711D4DB0604D42846BDE83840E8
S3150202510004F0A8B92A460421044604F0B7F9014676
S315020251102046BDE8384004F0C9B92A46BDE83840FF
S31502025120042104F0ABB900BF38B505460C46FDF7BB
S3150202513083FAD5F88430DA0711D4DB060AD521467A
S31502025140054604F0B1F9042102462846BDE8384074
S3150202515004F0A4B92046BDE8384004F08BB92246D1
S31502025160BDE83840042104F099B900BF2DE9F041A7
S315020251700D46C97D022901D0BDE8F081E96F0446D8
S31502025180D5E9206701F02000B5F990C0B5F9921071
S31502025190002B4DD1002800F09F8001FB07F706FB8A
S315020251A00C77D5F8883003EB27132421D4F8B821DB
S315020251B05B4202F10800C4F8B801C2E90013D4F84E
S315020251C0BC31013B002BC4F8BC3103DC2046D4F8C7
S315020251D0C03198472522D4F8B831D5F8801003F1A8
S315020251E00800C4F8B801C3E90021D4F8BC31013B76
S315020251F0002BC4F8BC3103DC2046D4F8C0319847F0
S315020252002622D4F8B831D5F8841003F10800C4F87E
S31502025210B801C3E90021D4F8BC31013B002BC4F822
S31502025220BC31A9DC2046D4F8C031BDE8F0411847AA
S31502025230B2F900E0B2F90280B2F90630002842D091
S3150202524006FB0CF6A3EB08035B1A07FB1366D5F8FB
S31502025250882002EB26132421D4F8B8215B4202F1FC
S315020252600800C4F8B801C2E90013D4F8BC31013B04
S31502025270002BC4F8BC3103DC2046D4F8C03198476F
S315020252802522D4F8B831D5F8801003F10800C4F803
S31502025290B801C3E90021D4F8BC31013B002BC4F8A2
S315020252A0BC3103DC2046D4F8C03198472621D5F812
S315020252B08420D4F8B831524203F10800C4F8B80186
S315020252C0C3E90012A7E7CB1A07FB03F3ACEB0E0EF8
S315020252D006FB0E331B11BEE7B2F90230B2F9002009
S315020252E0CB1A07FB03F3ACEB020C06FB0C331B11C6
S315020252F05BE700BF80EF50602DE9F04FA7B00A933B
S31502025300309BBDF9C440022B0F948DED1C7FCDE973
S315020253101010329CBDF9CC60BDF9D050159200F244
S31502025320EA8040F0E480002313930B9314F0040303
S31502025330B1B2A8B216930D91309B0E9040F0EE8058
S31502025340013B3093159BE2431D460E995B8802F0A0
S3150202535001020B440FFA83FA0D9935F8043B0B440A
S315020253601BB21F46309B012B00F0458116990C9108
S31502025370002604F006031293309BB046023BB14666
S3150202538014930996134656463A4604350EE0149B82
S31502025390A3EB0903B3FA83F35B095B00309809F1C5
S315020253A00109814505F1040500F0A1800D9835F841
S315020253B0044C0896044435F8026C0E9824B206444C
S315020253C0944236B200F0C5800B9883F00307002898
S315020253D000F0BB80099858EA000000F0E280C2465B
S315020253E0DDF824B0F8070AD583F4007701EB0A0345
S315020253F05B421D930C9B87F003075B441C93BB071E
S315020254002ED5309BCDE91712013B4B4500F0E680C3
S315020254106B880D9AB5F8008013441BB29B1B03FBE3
S3150202542003F090440FFA88F8A8EB040808FB080078
S315020254300993FFF795FDDDE9171240B1099B4FEA81
S3150202544008281B0293FBF0F398FBF0F8099308EB8A
S315020254500A035B421F93099B47F480675B441E93D0
S315020254600A9B2BB1184650F8043B012B0A902CD00A
S31502025470139847F4C053002870D10B98A8B10C9B1D
S315020254800AFB03F00BFB01F3984247F4605347F41D
S31502025490F047C8BF3B4609990BFB08F00AFB01F12C
S315020254A0814243F40041C8BF0B461CA906911AA9C0
S315020254B005910F990393CDE9016120A90491089BF5
S315020254C00094DDE91010FFF7EBFB129B51462246D0
S315020254D0CDF830B0002B3FF45AAF309809F10109EA
S315020254E081454FF0000305F104057FF45FAF012009
S315020254F027B0BDE8F08F0F9B102B7FF714AF109BDE
S3150202550093F8D730002B73D0022B0CBF0123002352
S3150202551013930CBF002301230B9307E7159D03F197
