S015000074726F6E5F6932635F746573742E73726563D0
S3150200000040040022E51B0002BD1A0002E11B0002A9
S31502000010E11B0002E11B0002E11B0002E11B0002E0
S31502000020000000000000000000000000E11B0002CA
S31502000030E11B000200000000E11B0002E11B0002BE
S3150200004095070002290900024D0A0002310B00023F
S315020000500000000001030000CD4200020A00000079
S315020000600004000000000000000000000103000080
S31502000070494300020A0000000008000000000000D8
S315020000800348044B834202D0034B03B1184770471F
S31502000090300000223000002200000000064B074913
S315020000A0C91A891048BF0131491003D0044B0BB15C
S315020000B001481847704700BF300000223000002276
S315020000C00000000010B5064C237843B9FFF7D8FFAD
S315020000D0044B13B10448AFF300800123237010BD13
S315020000E0482800220000000028F1C90208B5054B85
S315020000F01BB105490548AFF30080BDE80840FFF78C
S31502000100CDBF00BF000000004C28002228F1C90222
S3150200011002F01EB8022800D070470249024800F0D9
S31502000120EBB800BFC04500026428002208B5FFF7FD
S31502000130EFFF002008BD00BF002001238242CAB2A1
S3150200014003FA02F39AB24FEA034308BF1A460B0AAE
S315020001505B0103F1804303F580039A60704700BF99
S315020001602DE9F84F0388DBB14FF0000A80464FF0C5
S315020001700109DFF8D4B00024314D4FEACA07D8F896
S31502000180043035F8022BD919898891420AD00134F4
S31502000190032CF4D1B8F800300AF1010A5345EAD823
S315020001A0BDE8F88FDB5909FA04F603F0B853B3F148
S315020001B0807F244BF6B293F84C2C12D0324230D1C7
S315020001C004F120021BF81230DB09E0D01BF81230D2
S315020001D0012123F08003C8200BF8123001F02AFC1B
S315020001E0D5E7324210D004F120021BF81230DB09A7
S315020001F0CDD11BF81230012143F08003C8200BF841
S31502000200123001F017FCC2E7012001F0BFFC0D4BD2
S31502000210012093F84C2C324383F84C2C01F086FCD7
S31502000220E1E7012001F0B2FC064B012093F84C2CC9
S3150200023022EA060283F84C2C01F078FCC0E700BFE4
S31502000240B44A000200E0014000202040F8B506460C
S31502000250FFF786FFEFF31082012383F31088234F03
S315020002603B681BB9402022490B7508753B68013370
S315020002703B6082F31088338800211BB31D4D08E0D2
S315020002801B01134445F82340328801318BB29A424E
S3150200029018D9736853F8314003EBC1029288E00320
S315020002A04FEA1223D2B2EBD502EB031055F820E047
S315020002B024F4803C2EF4803E45F820E01B0145F8EC
S315020002C020C0DEE7EFF31082012383F310883B6838
S315020002D013B13B68013B3B603B681BB98020044974
S315020002E00B75087582F31088F8BD00BF2429002219
S315020002F0000D40400008404008B5034B0360084625
S31502000300FFF7A4FF002008BD54524F5003460020B9
S3150200031059601A72704700BF30B5836B83B00446CA
S315020003200A466D46A3B193E8030085E80300E16B34
S315020003301A7119601846636B9847A36B1BB195E84F
S31502000340030083E80300002384F82B3003B030BD9A
S315020003502B46ECE730B5454B83B01B6A0169019326
S31502000360019B03F00F230193019A019D0B7C90F8E8
S315020003702C409CB9C2F30322DBB2A2EB1562934076
S315020003809B0804D1082003B030BD013BFAD04A785D
S31502000390C2F3C014D209F8D1CC710169002390F8D6
S315020003A026408569026880F82B30C56180F82D30B9
S315020003B080F8274080F82E3080F8283080F82F30D9
S315020003C0036280F83030546A227894F801E0012AF8
S315020003D014BF4FF0040C4FF0050C6279120142EA89
S315020003E04E0294F806E042EACE124CEA0202D2B279
S315020003F0CA7001690A7942F010020A7101690A7922
S3150200040063F3C3020A7101690A7963F304120A717A
S315020004100269E179137961F3C7131371026953799A
S3150200042043F001035371036893F90F30002B07DB86
S31502000430012203F01F040E495B09A24041F8232062
S31502000440BF210269537A03F0F30353720369D97128
S3150200045090F82C302BB1002380F82C30002003B00A
S3150200046030BD022203695A70F8E700BF00E001407E
S3150200047000E100E090F808C0C0E90512BCF1010FE6
S3150200048080F82A3008D10022436880F826C05B0033
S3150200049080F8243080F82520002380F82930FFF7E1
S315020004A059BF00BF90F808C0C0E90512BCF1010FA0
S315020004B080F82A300AD10022436880F826C05B0001
S315020004C043F0010380F8243080F82520012380F8C8
S315020004D02930FFF73FBF00BF70B4002440220369F2
S315020004E01C7003691A70026913785B06FCD5C02377
S315020004F01370036802695B6A804D1B794FF0000C2A
S3150200050043F0E0031374036802695B6AB324DB7881
S3150200051043F0E0035374036802695B6A9B781B012C
S3150200052003F0700343F008039370036802695B6A81
S315020005301E78012E5E7814BF0423052343EA460380
S31502000540DBB2D37003685B68AB4214BF7722F72233
S3150200055003695A71036983F806C00369DC7191F96C
S3150200056011204B7B6245C0F2AA801B0102F1604456
S31502000570DBB204F5614484F80033614C614B44F804
S31502000580220002F5C65553F8256026F4803643F854
S31502000590256053F82530BFF35F8F012553099B0071
S315020005A002F01F0203F1604303F5614305FA02F20A
S315020005B0C3F880211A6091F90F204B7B002AC0F202
S315020005C095801B0102F16045DBB205F5614585F8B0
S315020005D000334C4B44F8220002F5C65553F8256009
S315020005E026F4803643F8256053F82530BFF35F8F33
S315020005F0012553099B0002F01F0203F1604303F534
S31502000600614305FA02F2C3F880211A6091F91020BB
S315020006104B7B002A63DB1B0102F16045DBB205F569
S31502000620614585F80033374B44F8220002F5C6557A
S3150200063053F8256026F4803643F8256053F82530B2
S31502000640BFF35F8F012553099B0002F01F0203F1DE
S31502000650604303F5614305FA02F2C3F880211A608A
S3150200066091F90E204B7B002A31DB1B0102F160411E
S31502000670DBB201F5614181F80033224B44F82200D6
S3150200068002F5C65153F8214024F4803443F8214040
S3150200069053F82130BFF35F8F012153099B0002F00B
S315020006A01F0203F1604303F5614301FA02F2C3F844
S315020006B080211A609F2203691A7070BC7047124C1F
S315020006C002F00F051B01DBB22C44237655E70E49D7
S315020006D002F00F051B01DBB229440B76CDE70B4D69
S315020006E01B0102F00F06DBB2AB559CE7074D1B015F
S315020006F002F00F06DBB2AB556BE700BF40420F00BC
S315020007002829002200600040FCEC00E014ED00E025
S31502000710F8B500250A781C4B016013441B020361DD
S315020007208B680E4643600B7B04460372CB694363B8
S315020007300B6A80F82950C36380F82A50856380F8D3
S315020007402B50C0E90555C0E9075580F82C50EFF348
S315020007501087012181F310880C4A33785068C3F15F
S31502000760090301FA03F320EA0303536053681E20C8
S3150200077001F060F987F3108820463146FFF7ACFE98
S31502000780034B2846E360F8BDE025400000302040D8
S315020007904349495210B582B0EFF30383103B5F4AD7
S315020007A05BB203F5C65352F8231021F4803142F8A6
S315020007B0231052F82330EFF30383594A103B5BB2FE
S315020007C052F8234094F82D305BBBA369022B22D941
S315020007D0E369012B0ED12269137943F010031371D9
S315020007E02269137943F0080313712269137923F0FE
S315020007F01003137123685B6ADB79002B3ED1012259
S315020008002369DB7CDBB28DF807309DF8073084F86C
S315020008102D2002B010BD2269137943F040031371F3
S31502000820D6E7E369002BF4D02268526AD279FAB984
S31502000830032B17D0022B26D0012B34D02269236A30
S31502000840D17C6269D154D4E907320132013BC4E951
S315020008500732002BDDD121690A7963F386120A7108
S3150200086002B010BD2269137943F040031371E5E724
S3150200087005212046FFF750FDE369D9E70521204609
S31502000880FFF74AFDBBE72269137943F010031371A0
S315020008902269137943F0080313712269137923F04D
S315020008A010031371CAE794F82A2072B322681D480E
S315020008B092F90F20510902F01F0203FA02F22031C7
S315020008C040F82120BFF34F8FBFF36F8F04202169B9
S315020008D0CA7942F08002CA7121690A7942F010028D
S315020008E00A7121690A7922F008020A7121690A79D4
S315020008F022F010020A712269507021694A7922F0A7
S3150200090001024A7184F82C3098E708212269537A49
S3150200091003F0F7035372236959708FE700600040B2
S315020009202829002200E100E010B5EFF30383103B13
S31502000930434A5BB203F5C65352F8231021F48031C1
S3150200094042F8231052F82330EFF303833D4A103B5B
S315020009505BB252F8234094F82730002B40D194F82A
S315020009602930002B3BD123685B6ADB792BB194F8E3
S315020009702B3013B9236A002B5CD1E3692169002B62
S3150200098041D1CB79C02223F08003CB71216901E0EA
S31502000990013A02D0CB79DB09FAD12368284A93F9C6
S315020009A0103003F5C65352F8231021F4803142F871
S315020009B0231052F82330236893F91030002B09DBF9
S315020009C001215A09204803F01F03603201FA03F39A
S315020009D040F822302269D37943F04003D37110BD27
S315020009E094F82630032B1CD094F8242023699A7499
S315020009F094F8282094F827300132013B84F8282005
S31502000A0084F8273010BD236A6269D35C8B74D4E9FB
S31502000A1007320132013BC4E90732002BDFD12169DB
S31502000A20AFE794F82830022BDED194F83030002B51
S31502000A30DAD110BD05212046FFF76EFC9DE700BF07
S31502000A40006000402829002200E100E038B5EFF3FB
S31502000A500383344A103B5BB252F8234023685B6A35
S31502000A60DB79002B4BD194F829301BB194F827304F
S31502000A70012B52D0E369E3B12169C023CA7922F07E
S31502000A804002CA71216901E0013B02D0CA795206CD
S31502000A90FAD4EFF30383103B234A5BB203F5C65342
S31502000AA052F8231021F4803142F8231052F82330F1
S31502000AB038BD94F82A203AB3012022681B4D92F9D8
S31502000AC00F20510902F01F02203100FA02F245F806
S31502000AD02120BFF34F8FBFF36F8F4FF0040C2169B4
S31502000AE0CA7942F08002CA71226982F801C021697C
S31502000AF04A7963F300024A7184F82C00BCE70521A7
S31502000B002046FFF709FCAEE708212269537A03F073
S31502000B10F703537223695970AEE794F83030002B0D
S31502000B20AAD0A7E7282900220060004000E100E0E1
S31502000B3038B5EFF303834F4A103B5BB252F82300FA
S31502000B400269537A517ADC0601F0E00151725FFACA
S31502000B5083FC03F003022CD50369597849064ED467
S31502000B600024012580F82B50DC710168FFF7B4FCE4
S31502000B70B32290F82630816980F82830036980F81C
S31502000B802C400162C46180F82A402946DA71FFF7D7
S31502000B90C3FBEFF30383103B374A5BB203F5C6533D
S31502000BA052F8231021F4803142F8231052F82330F0
S31502000BB038BD002A5CD11CF0080F11D0C369002B86
S31502000BC045D190F82B30002B41D1B32290F8291051
S31502000BD00369C1F10301C9B2DA71FFF79DFBD8E7D8
S31502000BE090F82C200CF0040342B3002BD1D0C36939
S31502000BF0002B3BD190F82B30002B37D1E5E7002AAA
S31502000C00AED15A78C2F380115206D4D5082280F8A2
S31502000C102B105A70036801695A6A947913785279CB
S31502000C2043EAC41343EA021343F00203DBB2CB7076
S31502000C300269537943F001035371AAE7002BA8D046
S31502000C4003685B6ADB79002BA3D00421C5E7002386
S31502000C50B32190F826508469026980F82C3080F816
S31502000C6028500462C36180F82A30D1710121B4E7A9
S31502000C70036975E728290022006000400346002028
S31502000C80D3E902235360704730B48C6E01342AB123
S31502000C90944203D930BC013A1A607047029D496BEF
S31502000CA00078ED0754BF01F01F01C1F30441032888
S31502000CB008D9090981F001016AB9A1B930BC022239
S31502000CC05A60704701F00C01A1F10401B1FA81F1F9
S31502000CD04909002AF1D0944201D80029EED130BC4C
S31502000CE003225A607047002CE8D0F8E74FF0010C57
S31502000CF02DE9F0430B7C00250CFA03F3C360C3F322
S31502000D000D03B3FA83F35B09416003740B7CAD4AAE
S31502000D100E461A44120282604B69044643618B698D
S31502000D2085B0C0E90653CD69EFF310878CF31088BE
S31502000D30097CA54B0A1F052A83BF4FF00042CA4011
S31502000D40D2436FF000621B6913409F4A1361136915
S31502000D5001211E2000F06EFE87F31088E368190752
S31502000D600DD0EFF31081012383F31088974AE068D0
S31502000D7053889BB223EA0003538081F310884FF411
S31502000D8025400022A3684FF000411860A368DA628A
S31502000D90A368DA63A3689A64337A3078DB0503289A
S31502000DA043F4803008BF0346A7687068FB62A368F5
S31502000DB001381961A3685961A3689961A1684A62F9
S31502000DC0A1688A62A168AB69CB61A168EB690B6213
S31502000DD0A1688866A16848664FF0FF300021CDE918
S31502000DE0020130782F6D002840F0F08101204FF08B
S31502000DF0030E7368D4F808805B08013B0293C8F8B7
S31502000E005430A26893653278032A03D9A268D3655F
S31502000E10A26813662B6DD3B92B78A3B133786A789F
S31502000E20022B4FEA821C4FEA021100F00282032BC8
S31502000E3003D0002A0CBF062309233B4343EA0C03D3
S31502000E400B4343F48077AB78002B40F0DA81002322
S31502000E506268D16991F8482001F1300CDA40D20774
S31502000E600ED5032B5CF8232016D0042B21D002F1D9
S31502000E70FF38A26803F1120902EB8902C2F8048064
S31502000E800133062B1DD091F84820DA40D207F7D558
S31502000E90032B5CF82320E8D1A368013ADA6591F8BE
S31502000EA04820D30640F1A7810423042BDCF8102046
S31502000EB0DDD1A368013A9A6591F848309B0600F1A4
S31502000EC09C810123327C9340C3F30D0313B10022AC
S31502000ED0A3685A640023A2689363A268C2F88830A2
S31502000EE02B6D3BB995F8213095F820205B0743EA34
S31502000EF042331F4395F84830002B14BF4FF4A0022B
S31502000F004FF4AA02A3681A643378012B04D1002392
S31502000F10A268D364A2681365A3685F63A26895F8A2
S31502000F205410D36A43EA011395F8551043EA411364
S31502000F30D362A368C3F830E0A3681863D4E9023227
S31502000F40DA6096F91230002B26DB727C03F16041DF
S31502000F5012011F48D2B201F5614181F800231D4AF0
S31502000F6040F8234003F5C65152F8210020F48030A0
S31502000F7042F8210052F82120BFF35F8F01215A095E
S31502000F80920003F01F0302F1604202F5614201FA88
S31502000F9003F3C2F88031136095F92830002B33DB56
S31502000FA095F8222003F1604112010948D2B201F5F7
S31502000FB0614181F80023074A40F8234003F5C651F0
S31502000FC00AE000BF2032400000302040004032409C
S31502000FD0282900220060004052F8210020F48030C7
S31502000FE042F8210052F82120BFF35F8F01215A09EE
S31502000FF0920003F01F0302F1604202F5614201FA18
S3150200100003F3C2F88031136095F92930002B27DBF0
S3150200101095F8232003F1604112018848D2B201F506
S31502001020614181F80023864A40F8234003F5C65100
S3150200103052F8210020F4803042F8210052F8212093
S31502001040BFF35F8F01215A09920003F01F0302F1D9
S31502001050604202F5614201FA03F3C2F8803113607D
S3150200106095F92A30002B27DB95F8242003F16041FD
S3150200107012017248D2B201F5614181F80023704A29
S3150200108040F8234003F5C65152F8210020F480307F
S3150200109042F8210052F82120BFF35F8F01215A093D
S315020010A0920003F01F0302F1604202F5614201FA67
S315020010B003F3C2F88031136095F92B30002B27DB3E
S315020010C095F8252003F1604112015C48D2B201F580
S315020010D0614181F800235A4A40F8234003F5C6517C
S315020010E052F8210020F4803042F8210052F82120E3
S315020010F0BFF35F8F01215A09920003F01F0302F129
S31502001100604202F5614201FA03F3C2F880311360CC
S3150200111095F92C30002B27DB95F8262003F1604148
S3150200112012014648D2B201F5614181F80023444AD0
S3150200113040F8234003F5C65152F8210020F48030CE
S3150200114042F8210052F82120BFF35F8F01215A098C
S31502001150920003F01F0302F1604202F5614201FAB6
S3150200116003F3C2F88031136095F92D30002B27DB8B
S3150200117095F8272003F16040304D12013049D2B272
S3150200118000F5614080F8002303F5C65245F8234076
S3150200119051F8220020F4803041F8220051F8222032
S315020011A0BFF35F8F01215A09920003F01F0302F178
S315020011B0604202F5614201FA03F3C2F8803113601C
S315020011C00020204B236005B0BDE8F0830128D4F847
S315020011D0088029D00092F268606802AB4146FFF7A8
S315020011E053FDDDE90232100440EA026040F0030ECC
S315020011F040F0010003E6052330E60523DCF814205F
S3150200120035E6E97832780B01022A43EA811312D0D5
S31502001210032A03D000290CBF06220922134347EAF8
S31502001220034343F0807712E64FF0030E4FF0FF338D
S31502001230E5E5092301E60922F0E700BF2829002295
S3150200124000600040545047001D4A92F82630928CA6
S31502001250DBB202F00F02A2F1080103292BD8DFE864
S3150200126001F020160C021749174A51F82330A2FB47
S3150200127003231B09154A136070471249124A51F893
S315020012802330A2FB0323114ADB08136070470D4982
S315020012900D4A51F82330A2FB03230C4A9B08136024
S315020012A070470849084A51F82330A2FB0323074A2C
S315020012B05B0813607047034951F82330D340D9E7DE
S315020012C000E0014040040022ABAAAAAA4429002257
S315020012D0704700BF4AF20351F8B5594B594AB3F861
S315020012E0FA43A3F8FA1353680746D903A4B21AD5E8
S315020012F0544B00255A68920329D50026504A524972
S3150200130092F8753092F86D2003F00F0302F00F0287
S3150200131051F82330072A00F28E80DFE802F02929ED
S3150200132029888A828486EFF31086012585F3108840
S31502001330536843F48033536053681E20294600F0F5
S3150200134079FB86F310883F4B5A689203D5D4EFF3A4
S315020013501086012181F310885A6842F400325A60DD
S315020013605B681E2000F066FB86F310880226C5E73E
S31502001370012101FA02F2B3FBF2F30121334AA2FB85
S3150200138003239B0C03FA01F000F054FB2C4A92F85B
S31502001390753043F0400382F8753092F87530DB09F8
S315020013A0FBD07B78264982F86D303B7843F04003C8
S315020013B082F875303B7882F8753091F87530DB0922
S315020013C0FBD135B9BEB91E4B44F42544A3F8FA4302
S315020013D0F8BDEFF31085012181F31088194B5A6885
S315020013E022F480325A605B681E2000F023FB85F3EC
S315020013F01088002EE7D0EFF31085012181F31088C3
S31502001400104B5A6822F400325A605B681E2000F0C4
S3150200141011FB85F310880A4B44F42544A3F8FA43DA
S31502001420F8BD0322A7E70522A5E70A22A3E70622BB
S31502001430A1E708229FE71021083A01FA02F29AE789
S3150200144000E00140003020404004002283DE1B43BE
S315020014504AF203529FEDBC4B9FEDBD5BC24BC348A4
S31502001460C34930B5C3E90801C24CC3499FEDBA6B03
S315020014709FEDBB7B9962A4F8FA23A3EC045F83B0C9
S3150200148083ED007FFFF7E0FE09230A2284F8502A43
S3150200149084F8A23094F8003C23B994F8013C9C07E6
S315020014A000F06382B34C94F8003C002B00F05282A9
S315020014B00022B04B83F8012C83F8002C0022AD4B9E
S315020014C083F8362083F8322093F83C201007FBD5A8
S315020014D040F2234400204FF6021140F25142A74D3A
S315020014E0C3F8C850A3F84E4083F84A00C3F8AC10BC
S315020014F0A3F84C20BFF34F8FBFF36F8FA04A5169F9
S3150200150021F400315161C2F85002BFF34F8FBFF38D
S315020015106F8F9C490A6822F440520A60BFF34F8FCC
S31502001520BFF36F8F0120197D924A60F3020119758C
S31502001530137DD906FCD4934A136843F440531360CF
S31502001540BFF34F8FBFF36F8FA2F57342536913F444
S31502001550003311D1BFF34F8FBFF36F8FC2F85032F2
S31502001560BFF34F8FBFF36F8F536943F40033536159
S31502001570BFF34F8FBFF36F8F00237E4A82F82A3064
S3150200158092F83C309B06FBD500227F4B1A701A78E4
S315020015901A781A785A68FA2A04D07C4959605A6825
S315020015A0FA2AFBD1784B9A687D2A04D07849996049
S315020015B09A687D2AFBD1052242F220116D4B7548AD
S315020015C01862998483F82620FFF73EFE01211E2029
S315020015D000F030FA6C4A5368C3F30903642B84BFE4
S315020015E001231370FFF730FE4AF201526A4B1A804A
S315020015F0BFF35F8F01221A72BFF35F8F4FF425414B
S315020016005C4A198092F8DA3043F0400382F8DA3005
S3150200161092F8DA30DB09FBD0C923032082F8D40022
S3150200162082F8DA3092F8DA30524903F0BF0382F8D0
S31502001630DA3091F8DA30DB09FBD10124802081F817
S31502001640534081F83E3081F83E0091F87430494AA1
S3150200165043F0400381F8743092F87430DB09FBD012
S3150200166007204A210A23434C82F86C0082F8741040
S3150200167082F8743094F87430DB09FBD14FF007031B
S3150200168001A8ADF80430FFF725FE94F87630394A02
S3150200169043F0400384F8763092F87630DB09FBD0CB
S315020016A0CA23032082F86E0082F8763092F87630EA
S315020016B0304903F0BF0382F8763091F87630DB09C1
S315020016C0FBD191F855302B4A43F0400381F855304F
S315020016D092F85530DB09FBD0CA23022082F8540067
S315020016E082F8553092F85530224903F0BF0382F84A
S315020016F0553091F85530DB09FBD191F857301D4A28
S3150200170043F0400381F8573092F85730DB09FBD09B
S31502001710C723002082F8560082F8573092F85730D5
S31502001720144903F0BF0382F8573091F85730DB09AA
S31502001730FBD191F85D300F4A43F0400381F85D30EA
S315020017402CE000BFAFF30080006CDC0200127A00CE
S315020017500080000000366E010080000000CA9A3B3D
S315020017600046C3235543DE13400400220084D717E4
S315020017700008AF2F00E0014000389C1C022B01003C
S3150200178000ED00E000E001E000C01340FA00001E98
S315020017907D0000E1323423320020004092F85D30B1
S315020017A0DB09FBD0C62082F85C3082F85D0092F835
S315020017B05D30704903F0BF0382F85D3091F85D3009
S315020017C0DB09FBD191F878306A4A43F0400381F88D
S315020017D0783092F87830DB09FBD0C923022082F8F0
S315020017E0700082F8783092F87830624903F0BF03CD
S315020017F082F8783091F87830DB09FBD191F85F30C6
S315020018005C4A43F0400381F85F3092F85F30DB09AF
S31502001810FBD0CA2082F85E3082F85F0092F85F3011
S31502001820544903F0BF0382F85F3091F85F30DB0959
S31502001830FBD191F877304F4A43F0400381F8773075
S3150200184092F87730DB09FBD0CA23042082F86F00B6
S3150200185082F8773092F87730464903F0BF0382F870
S31502001860773091F87730DB09FBD191F85B30414A4A
S3150200187043F0400381F85B3092F85B30DB09FBD022
S31502001880CA23022082F85A0082F85B3092F85B3053
S31502001890384903F0BF0382F85B3091F85B30DB090D
S315020018A0FBD191F8DB30334A43F0400381F8DB3059
S315020018B092F8DB30DB09FBD0C523022082F8D50083
S315020018C082F8DB3092F8DB302A4903F0BF0382F854
S315020018D0DB3091F8DB30DB09FBD191F8DC30254AAD
S315020018E043F0400381F8DC3092F8DC30DB09FBD0B0
S315020018F0C52082F8D63082F8DC0092F8DC301D4929
S3150200190003F0BF0382F8DC3091F8DC30DB09FBD14F
S3150200191091F8DE30174A43F0400381F8DE3092F840
S31502001920DE30DB09FBD0C923092082F8D80082F811
S31502001930DE3092F8DE300F4903F0BF0382F8DE3064
S3150200194091F8DE30DB09FBD14FF42543A1F8FA33D7
S3150200195003B030BD0121C82084F8001C00F06AF8EB
S3150200196094F8003C012BFBD1A2E54FF47A70FFF705
S31502001970AFFCA3E500E0014038B50025284C012163
S31502001980C82084F8285000F055F884F8245094F8BA
S315020019902430002BFBD194F82430214943F0020372
S315020019A084F8243091F82430C3F340009B07F9D41D
S315020019B01B4A81F8220092F8223003F0FF00002B26
S315020019C0F9D192F84030164960F3C71382F84030D5
S315020019D091F84030DB09FBD191F84200104A63F3DB
S315020019E0C71081F8420092F84230DB09FBD192F827
S315020019F044000B4963F3C71082F8440091F844305F
S31502001A00C3F3C014DB09F9D1012000F0BFF8054B7E
S31502001A10012083F84C4CBDE8384000F087B800BF7F
S31502001A200020204000E00140A0F101000028FBD187
S31502001A30704700BF1E4B1F4A1B6800FB01F1934211
S31502001A4013D302F1854202F5071203F5742302F657
S31502001A50834203F23F23A2FB03239B0CA3FB013128
S31502001A604FF0FF30E1B1FFF7DFBF4FF47A7210B4E7
S31502001A70114C4FF0FF30B4FBF3F3A1FB02C434B9AF
S31502001A80BCFBF3F080B15DF8044BFFF7CDBFB1FBB1
S31502001A90F3F1A1FB0212002AF5D1084620B1F2E7C2
S31502001AA01846002BDFD170475DF8044B704700BF24
S31502001AB04429002200127A0000CA9A3BF8B5002493
S31502001AC001260D4B0D4FD3F80021D3F820511540B6
S31502001AD006FA04F32B4204D057F82430E0B203B1DD
S31502001AE098470134152CF3D1034AC2F81051D2F8A3
S31502001AF020312B42FBD1F8BD00C00040D028002285
S31502001B000022042310B40748074C30F8021B02F5E2
S31502001B10C65C013209B144F82C10013BF5D15DF8DF
S31502001B20044B7047AC4A000200600040EFF310819C
S31502001B30012383F31088124B33F8102092B22AB194
S31502001B4033F81020013A92B223F8102033F81030FD
S31502001B509BB293B910B40B4A0B4CB2F8FA3334F871
S31502001B6010009BB243F4254323EA0003A2F8FA339A
S31502001B7081F310885DF8044B704781F31088704733
S31502001B803829002200E00140EC4C000230B4EFF3A9
S31502001B901081012383F310880E4A32F810309BB26B
S31502001BA06BB90D4C0D4DB4F8FA3335F810C09BB233
S31502001BB043EA0C0343F425439BB2A4F8FA3332F802
S31502001BC0103001339BB222F8103081F3108830BCFA
S31502001BD0704700BF3829002200E00140EC4C0002A9
S31502001BE000BE704708B500F037F8FEF79FFAFEE729
S31502001BF0F8B5174F05463E68A6B17C6806EB460661
S31502001C0004EB860602E00C34B4420BD0637AAB4294
S31502001C10F9D1D4E900020021121A0C3402F064FC54
S31502001C20B442F3D1BE6896B1FC6804EB061602E034
S31502001C301034A6420BD0637BAB42F9D1D4E9000241
S31502001C40A168121A103402F057FCA642F3D1F8BD6D
S31502001C50BC4A000200000000F8B5844A844B5A616F
S31502001C60BFF34F8FBFF36F8F1B6803F47002B2F599
S31502001C70801F00F0D48013F4600F00F0BC807D4A10
S31502001C80136823F004031360BFF34F8FBFF36F8F04
S31502001C904FF47002784B764C0020C4F88820A3607B
S31502001CA0FEF738FA0025FFF7D3FB4AF202514FF44A
S31502001CB02542724B0120A3F8FA1383F8B05AA3F80F
S31502001CC0FA23FEF727FA6E4B83F30A88694B1A68E2
S31502001CD0910704D5A268B2F1007F00F0A48000202B
S31502001CE0FFF786FFFFF7B0FAFFF746FE0320FFF77E
S31502001CF04DFF00234FF00E0E1C464EF001E06149E7
S31502001D0003F10C0221F8224001330FF007C8032029
S31502001D10FFF70CFF0320FFF739FF5B4B03205C60E4
S31502001D209C60DC601C61554CFFF700FFD4F8D83389
S31502001D309A0747D5D4F8D833504CD4F8D8335B0732
S31502001D4027D5D4F8D8330220FEF7E4F90120FFF7AD
S31502001D504FFFBFF34F8FBFF36F8F0024444BC3F87F
S31502001D605042BFF34F8FBFF36F8F484B484D5B1BFB
S31502001D70A3424FEAA30605DD55F8043B0134984712
S31502001D80A642F9DCFFF7BCFEBDE8F840002000F0F1
S31502001D9081B894F81431002BD5D00120FFF7F6FE56
S31502001DA094F8143103F0C003802BF9D10023334A8F
S31502001DB084F8143192F814313F2BFBD80120FFF737
S31502001DC0B5FEC0E794F81031002BB5D00120FFF71D
S31502001DD0DDFE94F8103103F0C003802BF9D1002305
S31502001DE0264A84F8103192F810313F2BFBD8012095
S31502001DF0FFF79CFEA0E71F4A136843F00403136033
S31502001E00BFF34F8FBFF36F8F4FF0E022936843F417
S31502001E1080339360BFF34F8FBFF36F8F38E7180796
S31502001E207FF42DAF27E701211A695869C2F3C3026D
S31502001E30093201FA02F300260027DB0843F005C047
S31502001E40E5E802670FF005C0C0F3C303093301FAE0
S31502001E5003F34FF00052DB0843F007C0AFF30080F4
S31502001E60E2E802670FF005C039E700BF01020E0083
S31502001E7000ED00E000E001E00000000200E00140A9
S31502001E8040000022000D4040004020402453000242
S31502001E9020530002704700BF00290FDD10B4084A24
S31502001EA0084C0144D2F848389B00FBD510F8013B98
S31502001EB081422371F6D15DF8044B7047704700BF2B
S31502001EC0008035400088354030B4112000251024AA
S31502001ED00849094B4A6822F400024A60074AC3F8D5
S31502001EE00858C3F80C48C3F81028C3F8080830BCD1
S31502001EF0704700BF0030204000803540104000800F
S31502001F0080F31188BFF36F8F704700BFEFF3118024
S31502001F10704700BFEFF31180102383F311887047D7
S31502001F2030B4002001244FF0E0234FF08052044DDC
S31502001F30044928600C60C3F8042D30BCFFF7E0BFEB
S31502001F4054260022582600224FF0E0234FF08052FA
S31502001F50C3F8042D704700BF30484FF001010160FD
S31502001F602F480168002909D14FF0085282F30A88E6
S31502001F70DFF8B0D02C4A82F30A8811E02DE9F00F7F
S31502001F8000B50A6912F4805205D01EF0100302D180
S31502001F902DED108A08B4C1F818D04FF00002026085
S31502001FA01F4C224D224E4FF0100282F31188D5F8B3
S31502001FB00080B8F1000F0DD1D6F800C0BCF1000FB9
S31502001FC008BF00F04FF94FF0000282F31188BFF309
S31502001FD06F8FE8E7C4F800804FF0085282F30A8850
S31502001FE0D8F818D0D8F81C2082F30A88D8F810003E
S31502001FF010F4805006D0009B13F0100302D108BCE7
S31502002000BDEC108A5DF804EBBDE8F00F03484FF013
S315020020100001016081F311887047000058260022F2
S3150200202054260022502A002250290022502600223D
S31502002030682A002208B5024800F036F9FEE700BF1A
S31502002040F84C000208B54FF0E0230A4A1168D3F8AB
S315020020502C2D01B18968530007D54FF0E0230648BD
S31502002060D3F8283D00F056FCFEE7044800F052FC87
S31502002070FAE700BF54260022004D0002344D00024A
S3150200208008B5024800F010F9FEE700BF604D0002F5
S3150200209008B5024800F008F9FEE700BF6C4D0002E1
S315020020A008B5024800F000F9FEE700BF784D0002CD
S315020020B008B5024800F0F8F8FEE700BF884D0002B6
S315020020C008B5024800F0F0F8FEE700BF904D0002A6
S315020020D010B5054C23680133236001F0BDFE236869
S315020020E0013B236010BD00BF4829002270B40E4890
S315020020F00E490F4A0F4B85B0CDE90001CDE9022307
S315020021000D480E4B0E499DED007FC3E90E010020DE
S315020021100C4E0D4D0D4C83ED027FC3E90B549E61AF
S3150200212005B070BC704700BF352000024520000292
S315020021308120000291200002591F0002002C002279
S31502002140D1200002A1200002B1200002C12000021B
S315020021502DE9F047FFF7DEFE00F060F84FF0700E53
S315020021604FF0E021214C4EF001E02346D1F8081D44
S315020021701F4A1160091B5A5843F8042B0FF005C871
S315020021804FF0E0221B494FF6FF4AB1F1085F98BFB4
S315020021904FF008514FF4E0294FF00008C2F8084DFD
S315020021A0D2F80C3D144803EA0A03144F144E154D97
S315020021B0DFF854E0DFF854C043F0BF6343F4003362
S315020021C0C2F80C3DC2F8249D4FF00853C2F81C8D8C
S315020021D0C2F8207D31602860CEF80010CCF80000ED
S315020021E083F30A8801F0C6FFFEE700BF002C002237
S315020021F0602A00220033002200000E220000F010A6
S315020022005C2A0022582A0022542A0022502A00223E
S31502002210002070470020704700207047704700BFBB
S3150200222008B5FFF777FEFEE7821C08B510D0431CFF
S3150200223004D0033008D06FF0100008BD064800F045
S3150200224033F86FF0080008BD044800F02DF8F8E7EF
S31502002250034800F029F8F4E7A04D0002DC4D000225
S31502002260C04D0002704700BFFFF72EBE10B582B008
S315020022708DF80700FFF74EFE9DF8073004460A2B3D
S315020022800AD001210DF10700FFF706FE2046FFF7EF
S3150200229037FE002002B010BD01210248FFF7FCFD07
S315020022A0EFE700BF43520002F0B5054683B0FFF7E1
S315020022B031FE2B780646D3B1104F0AE001210DF10B
S315020022C00700FFF7E9FD2046FFF71AFE15F8013F62
S315020022D06BB18DF80730FFF71DFE9DF807300446F7
S315020022E00A2BEBD101213846FFF7D6FDE6E7304649
S315020022F0FFF706FE002003B0F0BD00BF4352000206
S3150200230038B5138800290B44138007DD04464518A7
S3150200231014F8010BFFF7AAFFA542F9D138BD00BF99
S315020023202DE9F04F17468BB0009317F8013BA3B186
S3150200233082468B46002016461946252907F10104D6
S315020023400ED03978002866D03E4627460029F4D1B9
S3150200235018B1391A5A460139D0470BB0BDE8F08F89
S3150200236018B1391A5A460139D0474FF0000814F805
S31502002370012C2046A2F12003102B0AD8DFE803F035
S31502002380480909450909090909090942093F0909CB
S315020023903A002A2A62D1009A52F8040B01B20029A5
S315020023A003DA404201B248F0010800922278B81CD2
S315020023B02E2A68D04FF0FF3402F0FB03682B4FF051
S315020023C000038DF8173028D0782A10D8632A73D9DB
S315020023D00123A2F16407FDB2AB40974D2B4240F0B8
S315020023E0F381732A00F0D380702A00F02F8106460B
S315020023F001382CE048F0100827460134B7E748F0C8
S315020024000108F9E748F00208F6E748F00808F3E79A
S3150200241048F00408F0E7304696E7064616F8015BF0
S31502002420782D14D8632D3DD90123A5F164075FFAEF
S3150200243087FC03FA0CF3DFF800C213EA0C0F40F034
S315020024404981732D00F0A480702D00F0008137467B
S3150200245017F8011B00297FF470AF79E7A2F1300368
S31502002460DCB2092C4FF00001A2D810F8012B01EBC7
S31502002470810103EB4101A2F13003DCB2092C09B25E
S31502002480F3D92E2A96D102782A2A25D1009B4278A0
S3150200249053F8044B023024B2009324EAE47408F0A1
S315020024A0EF0889E7582D00F0E281632D2BD0002D2D
S315020024B0CDD10BB0BDE8F08F582A00F0F081632A27
S315020024C020D0002A93D110F8011C0746461E10465A
S315020024D000297FF432AF3BE7A2F13003DDB2092DCA
S315020024E04FF0000400F10100D9D804EB840410F87F
S315020024F0012B03EB44031CB2A2F13003DDB2092D1A
S31502002500F3D9CCE70646012201398DB20A214FF0F2
S31502002510FF34009B029253F8042B01910DF1250919
S315020025208DF825200093039118F0110872D09DF8BA
S31502002530173023B15A4601210DF11700D047019BEE
S31502002540002B48DB013D002C2DB206F1010758DDB8
S31502002550013C24B2013C01215A46384824B2D047F4
S31502002560611CF7D148465A460299D047002DC0F25F
S31502002570AB80013D5A46012131482DB2D0476B1C32
S31502002580F7D13178002000297FF4D7AEE0E606467F
S315020025900098002C50F8049B8DB2A3B2C0F2F780CB
S315020025A0013B1CB2621C00F09881A1B24A468446E5
S315020025B0013102E0013900F0FD801746A3B212F89C
S315020025C0010B5C1E24B20028F4D160460A22009058
S315020025D00192039261E019485A460121D047039BB2
S315020025E0D806AFD513F0400F164B17485A4618BFF8
S315020025F018460121D047013D002C2DB206F10107F4
S31502002600A6DCB8F1100F55D0013C2204AAD447F635
S31502002610FF749FE7013D2FB2002FADB287DB084D55
S31502002620013F5A46012128463FB2D0477B1CF7D1CB
S315020026304FF6FF757BE700BF21081200004E00022D
S31502002640FC4D0002F44D0002F84D00020646009AC7
S315020026508DB252F8043B002B00F0A480023D0F2BF2
S31502002660ADB20DF1260740F24B81B9469E4803F002
S315020026700F0C10F80CC0FF2B09F801CD4FEA13130B
S31502002680F5D86FF06F01019190210391C35C00921E
S3150200269009F8013C09F1FF39A3B2A7EB090202923C
S315020026A092B29C1A24B2002CD5BFAA1AEB1A95B282
S315020026B09DB239E7002D03DB2C464FF0FF3549E783
S315020026C048465A460299D0473178002000297FF4BD
S315020026D034AE3DE66C2A2CD1009A52F8043B0092A5
S315020026E089B20D46142F0CD8DFE807F02D0B0B0B21
S315020026F00B2D0B0B0B0B0B420B0B0B0B0B0B0B0BC9
S3150200270080000A2201920392002B79D1002C3AD042
S315020027100DF12607B946039B73484FEAA30E0EF046
S31502002720100E10F80E3009F1FF3989F80030A3B205
S31502002730B3E70098682A50F8043B0090D0D1692D7F
S3150200274048D11BB289B2002B0D46C0F2828018F026
S31502002750020F49D118F0040FD3D020228DF817208A
S315020027600A2201398DB201920392002BCED047E0A4
S3150200277018F0080F32D0002B40F09A8008230193FC
S315020027800393002CC4D102940DF12609CCE699F8E4
S315020027900070002F00F086804F4617F8012F002A9E
S315020027A0FBD113E70A210DF12607B9464E480191DE
S315020027B003916BE70A2317461A460193CDF800C028
S315020027C04FF6FF73039268E7009A064652F8043BF7
S315020027D0009285E7642DB4D09BB281E7082201926C
S315020027E00392002B92D00BE02B22B7E71022039222
S315020027F018F0080F28D19DF90C200192002B85D0E4
S3150200280003998A1002F0100E01F03F02934271D32F
S315020028100DF12607B9463448029400EB0E0CB3FBC1
S31502002820F2F102FB11340B461CF80410934209F82C
S31502002830011DF4D29E4410F80E30029C09F8013CA8
S3150200284009F1FF39A3B228E7DBB99DF90C300193F0
S315020028505CE70A224D1E019211462D224FF0000E10
S315020028608DF817205B420A46ADB20391CEE76C2A79
S3150200287028D1009A5023039352F8043B8DB200925A
S31502002880B6E7039A022142F08000821002F0100E8F
S315020028901022039040B20190691A8DB2B6E706463D
S315020028A0009AE7E70A2300900297019303933BE617
S315020028B06FF077028821019203914FF0000E0822F1
S315020028C00121E9E70098682A50F8043B00900DD1EF
S315020028D050229BB28DB203928AE70A23002200900D
S315020028E0CDE9013203931FE64852000250228DB20F
S315020028F003927DE70DF12607B94605489E4410E787
S315020029006FF06F0101919021B94601480391BDE62E
S31502002910485200024FF0000C0FB400B583B004AB6E
S3150200292053F8042B07480DF10201ADF802C00193DA
S31502002930FFF7F6FCBDF9020003B05DF804EB04B044
S31502002940704700BF01230002F0B50546012685B097
S3150200295017468E40FFF7DEFA6B6801336B60FFF7AE
S31502002960CFFA08E0A8682122314603AB009700F0AF
S31502002970B7FB041E0ADBFFF7CDFA2C6846EA040110
S3150200298029603440FFF7BCFA002CEBD1FFF7C2FAFC
S315020029906B68013B6B60FFF7B3FA204605B0F0BDEA
S315020029A04FF0FF32FFF7D0BF38B5044601258D4000
S315020029B0FFF7B0FA236823EA05032360FFF7A0FABC
S315020029C0606800B938BD2946A068BDE8384000F005
S315020029D01FBB00BF70B50923002584B0084A044610
S315020029E068460E46CDE90135009200F08DFAA842FE
S315020029F0A06003DB2846C4E90055E66004B070BD5A
S31502002A004D4C4F4310B504468068002807DD00F0A0
S31502002A10C1FA002802DB00231846A36010BD6FF03E
S31502002A20100010BD072A38B58C461446054635DD1A
S31502002A3083073ED00346C9B21A4603F8011B98071C
S31502002A40FAD1013C2C44A41A4FEA0C4202F47F024A
S31502002A5001EB01200243032C42EA0C6225DD043C11
S31502002A604FEA940C0CF101004FEA800EAEF1040E0F
S31502002A704FEA9E0E0EF1010E4EF001E003EB8000CE
S31502002A8043F8042B0FF005C0CCEB8C7C04EB8C04D2
S31502002A9014B1224601F028FD284638BD002AFBDD86
S31502002AA0C9B201F021FD284638BD1846002CF0D1E6
S31502002AB0F2E7C9B24FEA0C4201EB012302F47F02AC
S31502002AC01A4342EA0C620346C9E700BF38B5174902
S31502002AD01748FFF77FFF041E1FDB164C164800251A
S31502002AE021460822C0E90000144B246000E0034698
S31502002AF0013AC3E9004103F148000B6019461D7211
S31502002B00F5D1636000F0A6F9041E06DB00240C4B27
S31502002B101D6000F059F9204638BD00F069F900F051
S31502002B20CBF90348FFF76EFF204638BD044E00027C
S31502002B30C00600226C040022740400227C040022D7
S31502002B40BC0600222DE9F04F0B46054685B0002152
S31502002B5097480393FFF724FF6B690024D3E90D26F8
S31502002B60D3F814A0029201F027F82B6BC5E90D04E5
S31502002B70A34200F3FB80A94659F8204F4C4524D0C6
S31502002B808C4FE368F3B1237F43F010032377FFF7FB
S31502002B90C1F93A680020538D01335385FFF7B0F926
S31502002BA05346012204F11001E068B047FFF7B2F97B
S31502002BB03A680020538D013B5385FFF7A1F9AB6BB1
S31502002BC00133AB6324684C45DBD100217848FFF71B
S31502002BD0EBFEAB6B002B05DD4FF0FF320121E86BFC
S31502002BE000F078FD4FF0000B71485946C5F834B035
S31502002BF0FFF7D6FE2C6A4C453ED06E4F6E4EDFF87E
S31502002C00B0810195237F002143F0100323774046CC
S31502002C10FFF7CAFEFFF77EF93A680020538D0133AB
S31502002C205385FFF76DF9012153464FF0FF32029D9E
S31502002C3004F11000A847FFF76DF93A680020538D9A
S31502002C40013B5385FFF75CF900214046FFF7A8FEDA
S31502002C5023689C4203D06268136062685A60736894
S31502002C60C4E9006373681C60019BC4F808B0746011
S31502002C701C6AA145C6D11D4600214D48FFF794FEA8
S31502002C8000214B48FFF78CFED5E90594E86BD9F88D
S31502002C902C60D9F8147000F0DFFC2B689D4203D03B
S31502002CA06A6813606A685A602B4653F8082F9A427C
S31502002CB003D0EB681A60EB685360002349462B6128
S31502002CC051F8403F994203D113E01B68994210D054
S31502002CD09A699442F9D1D9F8181011F0010104D178
S31502002CE03348FFF761FE00242DE0039B23F0010326
S31502002CF0039300212E48FFF757FE002EF3D0DFF88C
S31502002D00B480FFF707F9D8F800200020538D01336D
S31502002D105385FFF7F5F82948294BA9EB0000C010A7
S31502002D2003FB00F001303A46039904EB0020B0475A
S31502002D300446FFF7EFF8D8F800200020538D013B38
S31502002D405385FFF7DDF800211948FFF729FE1D4BD1
S31502002D5000215A681648C5E900325A6815605D6056
S31502002D60FFF722FE204605B0BDE8F08F114FD5F8D9
S31502002D702C80FFF7CFF83A682046538D05F12009DB
S31502002D8001335385FFF7BCF8D5E90B12534658F8C1
S31502002D90040CB047FFF7BEF83A682046538D013B54
S31502002DA05385FFF7ADF8AB6B0133AB630DE700BF9D
S31502002DB0C006002254260022DC0600227C040022E1
S31502002DC0398EE338240A002238B5074D00212846F9
S31502002DD0FFF7E6FD0021054C2846C4E90044A16040
S31502002DE0BDE83840FFF7E0BDC0060022D00600224B
S31502002DF0F8B5154D2B682BB3002700211348FFF7B2
S31502002E00CFFD134AA96813682C685B1AAC4213609B
S31502002E10AF6011D00D4E0021A7603046FFF7C4FD0A
S31502002E200021A4F10800FFF78DFE00213046FFF7CE
S31502002E30B7FD2C68AC42EED1BDE8F840002103484C
S31502002E40FFF7B2BDF8BD00BFD0060022C0060022C1
S31502002E50642A002230B54FF0100E134D0021284689
S31502002E604EF001E0114B2D60024619611D605A6059
S31502002E701846136040330FF009C84FF0100E0C4C81
S31502002E806860214600204EF001E00A4B24600A46A3
S31502002E9098601C605A601946136034330FF009C8F3
S31502002EA06160002030BD00BF240A00222C0A0022E5
S31502002EB0DC060022E406002200207047836B044AE7
S31502002EC0013B03EB4303014602EBC30001F024B9C5
S31502002ED0340E002230B40A4C002521461022094B3A
S31502002EE0246000E00346013AC3E901151C6003F1C0
S31502002EF018000B601946F5D16360002030BC70479C
S31502002F002C0E0022340E002230B5436883B033F013
S31502002F10090330D10546FEF7FDFF184A13689342AE
S31502002F2026D0174C17491C1BE41001FB04F4196840
S31502002F3001344A60C3E9013411601B602A68DA6011
S31502002F406A681A61AA685A610F4A104B12681B68AE
S31502002F509A4203D00E4B1B68034304D0FEF7D0FF00
S31502002F60204603B030BD0190FEF7EEFF0198F5E76B
S31502002F706FF02104E8E76FF00A04F1E72C0E002255
S31502002F80340E0022ABAAAAAA5426002250260022F8
S31502002F9058260022F8B5441E0F2C2BD8FEF7BAFF8E
S31502002FA0164F04EB440407EBC406B3680546E40077
S31502002FB083B96FF02904124A124B12681B689A42AF
S31502002FC003D0114B1B682B4311D02846FEF798FFFE
S31502002FD02046F8BD304601F03DF800220B4B5968F9
S31502002FE03B51716014460E605E60B260E3E7FEF725
S31502002FF0ABFFEAE76FF01104EAE700BF340E0022E6
S315020030005426002250260022582600222C0E002288
S315020030102DE9F84F451E0F2D56D80C46FEF77AFFBE
S315020030202B4F05EB450307EBC30BDBF80820814664
S315020030304FEA4508DB008AB3F858DBF814305845E6
S3150200304044EA0301CBF8141006D125E073B95C45B6
S3150200305022D02046DBF81410D0E9126A1AF0010FCA
S31502003060046806EA0103F1D19E42F0D1036D1960AC
S3150200307000F088FF1AF0200F06D0DBF8143023EA9E
S315020030800603CBF814303BB11AF0100FDFD0002341
S31502003090A84407EBC8077B61002401E06FF029040E
S315020030A00C4A0D4B12681B689A4204D00B4B1B68E4
S315020030B059EA030305D04846FEF722FF2046BDE83B
S315020030C0F88FFEF741FFF6E76FF01104F6E700BF4F
S315020030D0340E0022542600225026002258260022B0
S315020030E02DE9F04B0027441E82B00F2C019700F207
S315020030F088800E46002900F08180994632F031031D
S3150200310015467BD10A9B013378DB3F4F3B68002B88
S3150200311071D13E4B1B68002B6DDCDFF804B1DBF886
S315020031200030002B67D0FEF7F1FE002863D1FEF7D0
S31502003130F1FE3749804604EB440001EBC000836888
S315020031406200002B50D0D0F810C01CF0080F2ED011
S31502003150131901EBC3035B6915F0010F06EA030EAF
S315020031602ED0BEF1000F2DD12A4B1CF0010F2A4A98
S3150200317018BF1A46DBF800300A995A6301AAC3E956
S315020031801265C3F850905A6400F092FF234BDBF8A5
S3150200319000201B689A4203D03B6858EA030327D0F3
S315020031A04046FEF7ADFE019802B0BDE8F08B13195A
S315020031B051F833309842CBD06FF028030193E5E7FC
S315020031C07645D1D1A806C9F8003005D5101923EAEB
S315020031D0060301EBC0004361EB06D7D5002022446B
S315020031E001EBC2035861D1E76FF029030193CDE7E2
S315020031F0FEF7AAFED4E76FF01800D5E76FF01000CD
S31502003200D2E76FF01100CFE75826002248290022A4
S31502003210340E002268520002745200025026002226
S315020032205426002230B40A4C002521460822094BB6
S31502003230246000E00346013AC3E901151C6003F16C
S315020032401C000B601946F5D16360002030BC704744
S31502003250B40F0022BC0F0022034653F80C2BD01CDD
S31502003260002AB8BF0246B1EBA20F18460EDD0022B5
S3150200327002E0C26891420DDA40688342F9D18A427D
S3150200328007DB00687047C2688A4202DA0068834236
S31502003290F9D17047FDDD0068704700BF70B50E4674
S315020032A00C4656F8081B0546891BFFF7D5FF6368CF
S315020032B00C3523F00103A842636002D0C3688B4237
S315020032C009D000234268C4E90202426816604660D9
S315020032D0C4E9043170BD23460246816843F8101FD3
S315020032E042F8083F2169626101B14B600023A36085
S315020032F070BD00BF0268836892B153B1426843E968
S3150200330002024268083B1360D0E902214360516021
S315020033100268904203D043681A604368536070475C
S31502003320C2681360002BFAD0C2685A60704700BFA9
S3150200333000282DE9F0413BDD0F288ABF0730102512
S3150200334020F00705FEF7E6FDDFF86C800746D8F8A1
S31502003350006029463046FFF77FFF0C36B04204462E
S3150200336011D0FFF7C7FFC3685B1B172B0DD854F8A4
S31502003370043C43F0010344F8043C3846FEF7C0FD22
S315020033802046BDE8F0810024F7E74119A0F10803C1
S315020033904B6050F8082C4251536803F001030B436B
S315020033A0536040F8081CD8F80000FFF777FFDEE705
S315020033B000242046BDE8F0819C10002270B5054627
S315020033C0FEF7A8FD55E9023424F0010445F8044C41
S315020033D05A680646D2070ED56368DB0720D5A5F1E3
S315020033E00804174B21461868FFF758FF3046BDE818
S315020033F07040FEF785BD03F10800FFF77BFF55F825
S31502003400082CD2E9003121F001010B60596852689B
S3150200341061F300025A6055F8044C6368DB07DED498
S3150200342004F10800FFF766FF2268D2E9003121F0B5
S3150200343001010B605968526861F300025A60D0E7D5
S315020034409C10002270B52248224D03682A68033375
S3150200345023F0030303F11B0121F007011E4C103A6E
S31502003460521A23601A6022682B6884B0151DCDE9B2
S315020034700055036002F10C03CDE902339DED007F96
S3150200348082ED017F106808300B185D6055680D509B
S31502003490686800F0010018436860256853602A1DB9
S315020034A04A606E680E607268206802F001020A4382
S315020034B0726069605A6842F001025A60836843F09A
S315020034C001038360FFF7EAFE002004B070BD00BF6F
S315020034D05C2A0022582A00229C10002210B40B4CAF
S315020034E00020214608220A4B246000E06346013A86
S315020034F0C3E9011018631C6003F1380C0B6019460E
S31502003500F4D1636000205DF8044B7047A0100022DE
S31502003510A81000220B4810B40146002404220A4BCC
S315020035200060013AC3E90114186003F1340C0B6020
S31502003530194601D06346F4E743605DF8044B002068
S31502003540704700BF681200227012002230B40A4C83
S31502003550002521460822094B246000E00346013A71
S31502003560C3E901151C6003F134000B601946F5D15D
S315020035706360002030BC70474013002248130022CB
S315020035800B4810B40146002404220A4B0060013A9B
S31502003590C3E90114186003F1200C0B60194601D02F
S315020035A06346F4E743605DF8044B0020704700BFB2
S315020035B0E8140022F01400222DE9F041846BDFF8B2
S315020035C05880013CC4EBC40700294FEAC40508EB46
S315020035D0870703DB0146384600F09EFD2B1B08EBEE
S315020035E0830632699B00920714D458F80340A74217
S315020035F010D0736909E0284600F0C4FC7369AA6C0E
S31502003600A742A3EB0203736104D02546AA6C246881
S315020036109A42F0DDBDE8F081781500224FF0FF31C5
S31502003620FFF7CABF30B40A4C002521461022094BC7
S31502003630246000E00346013AC3E901151C6003F168
S315020036401C000B601946F5D16360002030BC704740
S315020036507015002278150022F8B5441E0F2C2BD8BF
S31502003660FEF758FC164FC4EBC40407EB8406B36896
S315020036700546A40083B96FF02904124A124B126858
S315020036801B689A4203D0114B1B682B4311D0284664
S31502003690FEF736FC2046F8BD304600F0DBFC002281
S315020036A00B4B59683B51716014460E605E60B26006
S315020036B0E3E7FEF749FCEAE76FF01104EAE700BF29
S315020036C0781500225426002250260022582600226F
S315020036D07015002200232DE9F04F441E85B00F2CF1
S315020036E0039379D899420D4673DD501C174670DB59
S315020036F0DFF8FCA0DAF80030002B67D1384B1B68E4
S31502003700002B63DCDFF8EC90D9F80030002B5DD09B
S31502003710FEF7FCFB002859D1FEF7FCFBDFF8D8B018
S31502003720C4EBC4060BEB8606B3688046E200002BA8
S3150200373043D0B169D9F80030A9420BDB3169890758
S315020037401BD5111B0BEB81014869A8421FDB401BED
S31502003750486102E06FF010020392224A12689A420E
S3150200376004D0DAF8003058EA03032CD04046FEF7BC
S31502003770C7FB039805B0BDE8F08F194630460192A3
S3150200378000F0E6FCD9F80030019A8342D9D0121B28
S315020037900BEB820BDBF81020134C12F0010F134ACD
S315020037A018BF22465A6303AA9D645A6439463046B4
S315020037B000F07EFCD9F80030CFE76FF02902D9F885
S315020037C000300392C9E7FEF7BFFBCFE76FF01800A0
S315020037D0D0E76FF01000CDE76FF01100CAE700BF27
S315020037E04829002250260022805200028C520002F2
S315020037F0582600225426002278150022202270B56F
S31502003800194C0021234642F001E0184D1848296060
S31502003810016043F8042BC3E9003308330FF005C8EF
S315020038200026042231461348134DC4F80461C4F835
S315020038300C61FFF7F7F811492C4620203246B446B0
S315020038400F4B2D600E6000E00B4601320138C3E9D2
S31502003850014283F82FC01D6003F1700123601C46EC
S31502003860F2D16B60002070BD402500225026002256
S315020038705426002248260022381700225826002203
S315020038804017002230B400226FF006054FF0807414
S315020038904FF0080C90F8303090F82C1023F0030308
S315020038A080F82D1080F82E1080F8303090F928100C
S315020038B0836EC263418502644264C26680F82FC089
S315020038C043F8044C43F8445C43F80C2C4269A3F1D8
S315020038D0440422F0010243F8082C836E0269456A09
S315020038E0D91C42F480525B1BC0E9064330BC01621C
S315020038F002617047012330B490F82E50104C80F8C4
S315020039002F3004EBC5018A68AB4042600A46043296
S3150200391002608A681060D4F8082188601A43C4F8E5
S31502003920082190F830309B07236848BFC4F80C0181
S315020039309D4202DA034B2560186030BC704700BF17
S31502003940402500225026002210B52D4B90F82E104D
S31502003950D3F80C21904204BF0022C3F80C2102685E
S31502003960904203D0446822604468546090F8302044
S31502003970D40734D403EBC10C6246DCF804400432AB
S31502003980944209D01F4A1168814200D010BDD3F873
S315020039900C1169B3116010BD4FF0010ED3F8084146
S315020039A01A680EFA01FC24EA0C049142C3F8084193
S315020039B0E8D11F2A22DC1CEA040F0AD1C2F1200137
S315020039C002E01CEA040F04D1013201390EFA02FCAC
S315020039D0F7D11A600B4A11688142D7D1D7E722F094
S315020039E0010280F83020074A11688142CED1CEE723
S315020039F0196803EBC10359681160CCE72022E8E796
S31502003A0040250022502600222DE9F041426822F488
S31502003A10995323F00103002B6ED106690546002E49
S31502003A2067DBC368013B1F2B63D8920642D57F2E04
S31502003A305FDDD0F81480FEF76DFA314B07461C683D
S31502003A409C4229D00122216820464B6019602B68CE
S31502003A50E3606B682361AB686361EB686662013B96
S31502003A60464484F82C3084F828206285A666FFF73F
S31502003A7009FF244A244B12681B68A4689A4203D0A1
S31502003A80224B1B683B4321D03846FEF739FA002CFD
S31502003A9007DB2046BDE8F081D8B1FEF731FA6FF0B8
S31502003AA021046B689B06F4D44046FFF787FC204648
S31502003AB0BDE8F081873626F007063046FFF738FC68
S31502003AC080460028B7D16FF02004E2E7FEF73CFA01
S31502003AD0DAE70D4A0B4B12681B689A42DDD00B4B94
S31502003AE01C68002CD9D1FEF72FFA2046FEF708FAF9
S31502003AF0D5E76FF01004CCE76FF00A04C9E700BF00
S31502003B003817002254260022502600225826002268
S31502003B1070B5244B0D461B68002B23DD441E1F2C5B
S31502003B203CD8214EFEF7F6F9204BC4EBC40403EB56
S31502003B30041393F82F200446082A23D0002A14BF20
S31502003B406FF028056FF02905194B32681B689A42F7
S31502003B5003D0184B1B68234311D02046FEF7D0F939
S31502003B60284670BD104E3368ABB128B1441E1F2CD7
S31502003B7014D89B688342D5D16FF02805F0E7FEF78B
S31502003B80E3F9EAE79A6918465562DB68002593620B
S31502003B90FFF7B0FED8E7441E1F2CC3D96FF01105FC
S31502003BA0DEE700BF482900225426002240170022E1
S31502003BB05026002258260022024B186800B180685F
S31502003BC0704700BF5426002200232DE9F04182B03F
S31502003BD00193431C43DB234F3B68002B3CD1224B12
S31502003BE01B68002B38DCDFF88C80D8F80030002BFD
S31502003BF032D00446FEF78AF9054668BBFEF78AF913
S31502003C00D8F800300646DA6B002A0FDD013ADA638D
S31502003C10164A12689A4202D03B68334319D030469C
S31502003C20FEF76EF9019802B0BDE8F0816FF031023D
S31502003C300192002CECD00E4A9D635A6301AA5A6483
S31502003C402046294600F0C2F9D8F80030C3E900330D
S31502003C50DEE7FEF779F9E2E76FF01800E3E76FF0C7
S31502003C601000E0E7582600224829002250260022AA
S31502003C70A4520002542600220023F0B5051E83B08A
S31502003C80019333DB1B4F3B686BBB1B4B1B68002B43
S31502003C9029DC1A4E336833B3FEF738F9044610BBF3
S31502003CA015B9019803B0F0BDFEF734F90246336840
S31502003CB013499C6359632146144601AA5A6428464D
S31502003CC000F0A6F933680F4A1B6012685B609342E4
S31502003CD002D03B68234303D02046FEF711F9E0E702
S31502003CE0FEF732F9F8E76FF01800DBE76FF0100025
S31502003CF0D8E700BF5826002248290022542600226F
S31502003D0098520002502600220B4810B401460024A5
S31502003D1004220A4B0060013AC3E90114186003F158
S31502003D20280C0B60194601D06346F4E743605DF840
S31502003D30044B0020704700BF842700228C270022F4
S31502003D4030B40A4C002521460822094B246000E0C3
S31502003D500346013AC3E901151C6003F124000B6016
S31502003D601946F5D16360002030BC70475C260022FC
S31502003D706426002210B40E4B0E4C19682368A34227
S31502003D800DD0826801F100410131A2EB010C02E083
S31502003D901B68A34203D09A68521A9445F8D25A680D
S31502003DA0C0E900325A68106058605DF8044B7047EB
S31502003DB040280022302800220021002038B50C4A73
S31502003DC00C4B0D4CC2E90001C4E900010625002492
S31502003DD0C3E90033FEF79EF84FF0E02307220749B6
S31502003DE01D6159619C611A61FEF78AF8204638BD49
S31502003DF04028002230280022382800227F96980088
S31502003E004FF0E02300221A61704700BFC0E9032386
S31502003E104B1C10B404D1C0E900005DF8044B704796
S31502003E20044B5DF8044B1B680A330B448360FFF7AF
S31502003E30A1BF00BF4028002210B5064CC0E90323EB
S31502003E40246804F10A0E71448160BDE81040FFF750
S31502003E5091BF00BF402800224FF0E0234FF00072CE
S31502003E6070B51969C3F8042DFEF754F8194B0646C6
S31502003E70D3E900520A3542F10002C3E90052164C58
S31502003E800CE09A68AA1A002A0BDB1A68934203D03E
S31502003E9059680A6059685160DA688AB92368A34288
S31502003EA0EFD10E4A0E4B12681B689A4203D00D4B95
S31502003EB01B68334307D03046BDE87040FEF720B892
S31502003EC018699047EAE7FEF73FF83046BDE87040CA
S31502003ED0FEF716B840280022302800225426002277
S31502003EE0502600225826002208B5FFF787FC002834
S31502003EF023DBFFF797FB00281FDBFEF7EBFF00280B
S31502003F001BDBFFF78FF9002817DBFFF71FFB0028E3
S31502003F1013DBFFF735FB00280FDBFFF7FBFA002860
S31502003F200BDBFFF7DBFA002807DBFFF7EDFE0028C5
S31502003F3003DBFFF705FF00EAE07008BD036898425D
S31502003F4003D04268136042685A6090F82F30022B01
S31502003F5007D0042380F82F30436B9B6803B11847C0
S31502003F60704700B583B00190FFF7C4FC0198436B1C
S31502003F709B681BB103B05DF804EB184703B05DF80C
S31502003F8004FB00BF034610B553F8542F04469A4269
S31502003F9003D0836D1A60836D536023689C4203D0FD
S31502003FA06268136062685A6094F82F30022B06D05A
S31502003FB00423002284F82F30636C1A6010BD204659
S31502003FC0FFF798FC0022636C1A6010BD70B50E4DA7
S31502003FD004462B6893F82F20012A0DD0042A07D015
S31502003FE02146BDE87040094A03F15400FFF70EBFAF
S31502003FF0062283F82F20F3E71846FFF7A5FC0222D4
S315020040002B6883F82F20EBE7542600223D3F00025F
S3150200401070B50E4D04462B6893F82F20012A0DD059
S31502004020042A07D02146BDE87040094A03F154002C
S31502004030FFF702BF062283F82F20F3E71846FFF7A1
S3150200404083FC02222B6883F82F20EBE754260022FA
S315020040503D3F0002F8B50468A04227D00546042772
S315020040606FF0320606E0636C84F82F701E602C68CF
S31502004070A5421BD0234653F8542F9A4203D0A36D70
S315020040801A60A36D536023689C4203D06268136072
S3150200409062685A6094F82F30022BE4D12046FFF76B
S315020040A029FC636C1E602C68A542E3D1F8BD00BFF3
S315020040B06FF0310238B5174D2B685B6C1A6001B987
S315020040C038BD044682682B6808469A632169FFF761
S315020040D07DFF2369DB0707D462682B68C3E90042C8
S315020040E062681360636038BD236828689C4290F852
S315020040F02E1003D106E01B689C4203D093F82E20B3
S315020041008A42F8D95A68C0E900325A681060586083
S3150200411038BD00BF542600220B68994203D04A6874
S3150200412013604A685A60036891F82EC0984203D118
S3150200413006E01B68984203D093F82E206245F8D910
S315020041405A68C1E900325A6811605960704700BF67
S315020041500346006883420AD01B69DB0708D590F83C
S315020041602E3091F82E209A4238BF084670470846EC
S31502004170704700BF08B5FDF7CDFEFEF775F8FFF7ED
S3150200418061F9002820DBFEF743F8002828DBFDF75B
S31502004190ADFF00281CDBFFF7A7FE002824DBFFF794
S315020041A00BFE002824DB1648FFF72EFC002813DB43
S315020041B00021FFF7ADFC00281EDBFDF7B1FEFFF77D
S315020041C01FFEFEF72DF8FEE70E48FEF76DF8FAE73A
S315020041D00D48FEF769F8F6E70C48FEF765F8EEE7D4
S315020041E00B48FEF761F8EEE70A48FEF75DF8E8E7E6
S315020041F00948FEF759F8E4E70848FEF755F8DEE7FE
S31502004200B05200020C4E00023C4E0002C04E0002AA
S31502004210244E0002584E00027C4E00029C4E0002C2
S3150200422008B5FFF7EDFDFDF7FBFFFEE710B5FEF75C
S315020042304DFC002816DBFDF7EDFF002812DB0022FD
S3150200424003210E48FEF766FB00F032F90446FDF73D
S31502004250E3FF002C0BDA2046FDF7E6FFBDE810402F
S31502004260FFF7DEBF0648FEF71FF8FDF7D5FF054844
S31502004270FEF71AF8BDE81040FFF7D2BFE44E00027F
S31502004280084F0002244F00020E4B0F4A82B00193E0
S3150200429013782BB107E0019B013B0193137813B905
S315020042A0019B002BF7D1019B53B11378012B4FF0E1
S315020042B000030CBF4FF496701846137002B0704795
S315020042C01420FBE740420F006C2A002208B5044C7A
S315020042D02046FEF71FFB41F65830FFF7CDFCF7E705
S315020042E03C4F000270B58C4606464FF0300E002455
S315020042F082B0134D01230222124801A92C708DF8B7
S31502004300056064468DF804E0FCF7B4F8034620B174
S31502004310B3FA83F0400902B070BDFFF7B5FF03465A
S315020043200028F5D10122214606482B70FCF7BAF87F
S3150200433003460028ECD1FFF7A7FF0346E8E700BFD4
S315020043406C2A00226C28002210B5434882B0FEF780
S31502004350E1FA4248FEF7DEFA002240F209714048CD
S31502004360FBF7EAFE6420FFF787FC40F2097101229F
S315020043703B48FBF7E1FE0A20FFF77EFC3948FEF7D1
S31502004380C9FA39493948FCF7B1FC00283ED0014642
S315020043903748FEF7BFFA3748FEF7BCFA36493748C0
S315020043A0FCF7B6F900284ED13C2101223348FBF72F
S315020043B0ADFF3348FEF7AEFA002343F20A000DF1D1
S315020043C006018DF806308DF80730FFF78BFF08B32C
S315020043D043F20B000DF10701FFF784FF20B39DF8AE
S315020043E007209DF806102748FEF794FA9DF8063036
S315020043F0562B07D19DF80730A3F14002012A27D98F
S315020044004C2B25D02048FEF785FA13E01748FCF717
S3150200441035FCC0E71D48FEF77DFA43F20B000DF1AD
S315020044200701FFF75FFF10B91948FEF773FA19483B
S31502004430FEF770FA184C2046FEF76CFA41F2883005
S31502004440FFF71AFCF7E701461448FEF763FAABE7F3
S315020044501348FEF75FFAEDE7504F00027C4F000269
S3150200446064280022A84F000244450002AC2800221C
S31502004470DC4F000218500002144500026C2800228C
S315020044808C5000022C51000290510002F45000029E
S31502004490BC500002D0510002F85100024450000202
S315020044A058510002014B02791A7070476C2A002299
S315020044B008B50A48FDF7F8FE0948FFF7A5FA0021F4
S315020044C0FFF726FB0748FFF79FFA0021FFF720FBBD
S315020044D04FF0FF30FFF778FB002008BD10520002B4
S315020044E0180000220000002202440346934200D133
S315020044F0704703F8011BF9E70A44431E914200D1B3
S31502004500704710B511F8014B914203F8014FF9D1EA
S3150200451010BD000001000000801A06000000000025
S315020045200108000102030000000000000000000074
S31502004530A5440002000000003C4500020101020FF2
S315020045400F000000000000000A000000000000004A
S31502004550050000000CFFDF00000000000000000064
S315020045606845000200000000010000000000000093
S315020045700000000000000000000000000000000033
S3150200458000000000000000000000FFFFFFFFFFFF29
S31502004590DFDFDFDFDFDF00000000000000000000D9
S315020045A00000000000000000000000000000000003
S315020045B000000000000000000000000000000000F3
S315020045C09C000000CC4500020000000000400000F4
S315020045D0000000000040000006000000004000004D
S315020045E00800000000400000090000000040000032
S315020045F00C000000450000000D000000000C011C2C
S3150200460000010000000C011C01010000000C011C4D
S3150200461002010000000C011C03010000000C011C39
S3150200462004010000000C011C05010000000C011C25
S3150200463006010000004000000701000045040000DA
S3150200464009010000104000000B010000000C010BE4
S315020046500C010000000C010B0D010000000C010B07
S315020046600E010000000C010B0F01000000400000CB
S3150200467000020000000C011806020000000C0119DD
S3150200468007020000000C010008020000000C0100F5
S3150200469009020000000C01000A020000000C0100E1
S315020046A00B020000000C010B00030000000C010BC2
S315020046B001030000000C010B02030000040C0000C1
S315020046C003030000000C011804030000000C01188B
S315020046D005030000000C011806030000000C011877
S315020046E007030000000C011809030000000C011862
S315020046F00A030000400C010700040000400C0107F9
S315020047000104000000000112020400000000011270
S315020047100304000000000112040400000004011258
S31502004720050400000004011206040000000401133F
S315020047300704000000040114080400000004011F1D
S315020047400B040000000401180E0400000004011806
S315020047500F0400000000011300050000000C010315
S31502004760010500000004011B02050000000C010BFC
S3150200477003050000000C010B04050000000C010BF0
S3150200478005050000000C010B06050000000C010BDC
S3150200479007050000000C010B08050000000C010BC8
S315020047A009050000000C010B0A0500004004010780
S315020047B00B050000400401070C050000000C01195E
S315020047C00D050000040400000E050000000C01198E
S315020047D00F050000040C000000060000040400009F
S315020047E006060000000C010B07060000000C010B78
S315020047F008060000000C010B09060000000C010B64
S315020048000A060000000C010B0B060000000C010B4F
S315020048100C060000000C010B0D060000000C010B3B
S315020048200E060000000C010B0F060000000C011919
S315020048300707000005040000080700000404000042
S3150200484009070000000C01190A070000000C0119F3
S315020048500B070000000C01190C070000000C0119DF
S315020048600D070000000C01190E070000000C0119CB
S315020048700F070000000C011C00080000000C011CC0
S3150200488001080000000C011C02080000000C011CBB
S3150200489003080000000C011C04080000000C0119AA
S315020048A005080000000C011906080000000C011999
S315020048B007080000000C011C080800000004011B88
S315020048C00C080000000C010B0D080000000C01137F
S315020048D00E080000000C01130F080000000C01195D
S315020048E002090000000C011903090000000C01195D
S315020048F004090000000C011805090000000C01184B
S3150200490006090000000C011807090000000C011836
S3150200491008090000000C011809090000000C011921
S315020049200A090000000C01190B090000000C01190C
S315020049300C090000000C01190D090000000C0119F8
S315020049400E090000000C01190F090000000C010BF2
S31502004950000A0000000C010B010A0000000C010B0A
S31502004960020A0000000C010B030A0000000C010BF6
S31502004970040A0000000C010B050A0000000C010BE2
S31502004980060A0000040C0000070A0000000C010BD6
S31502004990080A0000000C010B090A0000000C010BBA
S315020049A00A0A0000000C010B0B0A0000000C010BA6
S315020049B00C0A0000000C010B0D0A0000000C010B92
S315020049C00E0A0000000C010B0F0A0000000C011970
S315020049D0000B0000000C0119010B0000000C01196C
S315020049E0020B0000000C0119030B0000000C011958
S315020049F0040B0000000C0119050B0000000C011944
S31502004A00060B0000000C0119070B0000000C010B3D
S31502004A10000C0000000C010B010C0000000C010B45
S31502004A20020C0000000C010B030C0000000C010B31
S31502004A30040C0000000C010B050C0000000C010B1D
S31502004A40060C0000000C010B070C0000000C010B09
S31502004A50080C0000000C010B090C0000000C010BF5
S31502004A600A0C0000000C010B0B0C0000000C010BE1
S31502004A700C0C0000000C010B0D0C0000000C010BCD
S31502004A800E0C0000000C010B0F0C0000000C010BB9
S31502004A90000D0000000C0104020D0000000C0104D0
S31502004AA0030D000000040114070D0000A100A2007E
S31502004AB0A300A40002040304040400000A00000088
S31502004AC0744C000218000000F44A000204000000C0
S31502004AD0D44A00020000006800000068000000805E
S31502004AE000000080000000700000007040000022FC
S31502004AF040000022000000680000006800000090EC
S31502004B000001090D0000006800000068000000783E
S31502004B1000010B0D0000006800000068000000277D
S31502004B200001020D0000006800000068500000024B
S31502004B300001010D000000800000008000000090CE
S31502004B4000010908000000800000008000000078D3
S31502004B5000010B0800000080000000800000002712
S31502004B6000010208000000800000008050000002E0
S31502004B7000010108000000700000007000000090B3
S31502004B800001090A000000700000007000000078B1
S31502004B9000010B0A000000700000007000000027F0
S31502004BA00001020A000000700000007050000002BE
S31502004BB00001010A00000000000000000000009051
S31502004BC00101090500000000000000000000007855
S31502004BD001010B0500000000000000000000002794
S31502004BE00100020500000000000000005000000263
S31502004BF001000105000000200000002000000090D6
S31502004C0001010904000000200000002000000078D5
S31502004C1001010B0400000020000000200000002714
S31502004C2001000204000000200000002050000002E3
S31502004C300100010400000022000000220000009092
S31502004C400001090300000022000000220000007893
S31502004C5000010B03000000220000002200000027D2
S31502004C600000020300000022300000225000000271
S31502004C700000010300000068000000680001000D4A
S31502004C8000000068000000680001000D00000080BE
S31502004C900000008000010008000000800000008083
S31502004CA00001000800000070000000700001000A08
S31502004CB000000070000000700001000A0000000001
S31502004CC00000000001000005000000200000002096
S31502004CD00100000430000022400000220000000310
S31502004CE0482800226D2A002200000003010002006B
S31502004CF008001000200000004E4D490A0000000086
S31502004D002A2A2A2048617264206661756C74202AF8
S31502004D102A2A202063747874736B3A25642020480B
S31502004D204653523A25782020434653523A25780A6A
S31502004D30000000002A2A2A204861726420666175F2
S31502004D406C74202A2A2A202063747874736B3A259D
S31502004D50642020484653523A257825780A000000F6
S31502004D604D5055204661756C740A000042757320D9
S31502004D704661756C740A0000557361676520466169
S31502004D80756C740A00000000535643616C6C0A008D
S31502004D904465627567204D6F6E69746F720A000012
S31502004DA00A3C3C2053595354454D205245534554D1
S31502004DB020262052455354415254203E3E0A0000BA
S31502004DC00A3C3C2053595354454D204641535420E6
S31502004DD052455354415254203E3E0A000A3C3C205E
S31502004DE053595354454D2052455354415254203E33
S31502004DF03E0A000058000000780000002000000073
S31502004E0030000000444D4C6B000000002145525218
S31502004E104F522120696E69745F496D616C6C6F63D4
S31502004E200A000000214552524F522120696E6974D0
S31502004E305F6465766963650A000000002145525287
S31502004E404F522120696E69745F696E697469616C7B
S31502004E50697A650A00000000214552524F5221200C
S31502004E606B65726E656C206F626A65637420696E2B
S31502004E70697469616C697A650A00000021455252BB
S31502004E804F52212053797374656D2074696D657272
S31502004E9020737461727475700A00000021455252C3
S31502004EA04F522120496E697469616C205461736B9B
S31502004EB02063616E206E6F742073746172740A00CF
S31502004EC0214552524F522120496E697469616C2004
S31502004ED05461736B2063616E206E6F74206372651A
S31502004EE061740A000A0A6D6963726F542D4B65720A
S31502004EF06E656C2056657273696F6E2025782E2555
S31502004F003032780A0A000000214552524F522120BF
S31502004F10496E6974205461736B2073746172740AEA
S31502004F20000000000A3C3C2053595354454D20537F
S31502004F30485554444F574E203E3E0A007461736BE7
S31502004F4020322072756E6E696E672E2E2E0A000052
S31502004F500A3D3D3D2043616D657261204932432021
S31502004F60436F6E6E656374696F6E20546573742049
S31502004F705374617274203D3D3D0A000052657365AB
S31502004F807474696E672043616D65726120284341BE
S31502004F904D4552415F5245534554202D3E205037D0
S31502004FA03039292E2E2E0A005374617274696E6787
S31502004FB02047505420436C6F636B20666F72204308
S31502004FC0616D6572612058434C4B2028675F6361AF
S31502004FD06D5F636C6B292E2E2E0A00004552524FCE
S31502004FE0523A204661696C656420746F206F706561
S31502004FF06E204750542028675F63616D5F636C6B58
S31502005000292C206572726F7220636F64653A2030B4
S315020050107825780A000000004F70656E696E672079
S31502005020493243204D61737465722028675F63615C
S315020050306D5F6932635F6D6173746572292E2E2E00
S315020050400A0000004552524F523A204661696C6589
S315020050506420746F206F70656E20493243206D6143
S31502005060737465722028675F63616D5F6932635F7F
S315020050706D6173746572292C206572726F7220637A
S315020050806F64653A20307825780A000052656164BB
S31502005090696E67204F56353634302050726F64750C
S315020050A0637420494420726567697374657273205C
S315020050B0766961204932432E2E2E0A004552524FFE
S315020050C0523A204661696C656420746F207265618C
S315020050D06420726567697374657220307833303084
S315020050E042202850726F64756374204944204C290B
S315020050F00A0000004552524F523A204661696C65D9
S315020051006420746F207265616420726567697374C6
S31502005110657220307833303041202850726F6475C2
S3150200512063742049442048290A00000050726F64C3
S3150200513075637420494420526561643A2048203DD3
S31502005140203078253032582C204C203D20307825CE
S315020051503032580A00000000535543434553533A30
S315020051602043616D65726120636F6E6E656374695B
S315020051706F6E2076657269666965642120284F56CE
S3150200518035363430206465746563746564290A00B3
S315020051904552524F523A2050726F647563742049D9
S315020051A044206D69736D6174636820284578706563
S315020051B063746564203078353620616E64203078F9
S315020051C034302F307834312F30783443290A0000B6
S315020051D04552524F523A2043616D65726120636FA8
S315020051E06D6D756E69636174696F6E206661696C57
S315020051F065642E0A000000007461736B203120681A
S315020052006561727420626561742E2E2E0A0000009A
S31502005210537461727420557365722D6D61696E20C7
S3150200522070726F6772616D202843616D65726120CD
S31502005230436F6E6E656374696F6E2054657374296D
S315020052402E0A000D00000000303132333435363775
S3150200525038396162636465663031323334353637E4
S31502005260383941424344454608000000BD2E00023B
S31502005270000000000800000000000000000000001E
S3150200528004000000B93500021D36000204000000C9
S31502005290000000001D3600020200000000000000AF
S315020052A000000000010000000000000000000000F5
S315020052B000000000010000002D4200020100000073
S315020052C000040000000000004275696C74207769D2
S315020052D074682052656E6573617320416476616EEF
S315020052E063656420466C657869626C6520536F66F7
S315020052F07477617265205061636B616765207665BC
S315020053007273696F6E20362E342E3000362E342E8E
S30D02005310300000000000040653
S30902005318F8B500BF1D
S3090200531CF8B500BF19
S30902005320ED00000292
S30902005324C5000002B6
S70502001BE5F8
